{
  "address": "0x5FbDB2315678afecb367f032d93F642f64180aa3",
  "abi": [
    {
      "inputs": [],
      "stateMutability": "nonpayable",
      "type": "constructor"
    },
    {
      "inputs": [],
      "name": "NotOwnerOfToken",
      "type": "error"
    },
    {
      "anonymous": false,
      "inputs": [
        {
          "indexed": true,
          "internalType": "address",
          "name": "parentAddress",
          "type": "address"
        },
        {
          "indexed": true,
          "internalType": "address",
          "name": "childAddress",
          "type": "address"
        },
        {
          "components": [
            {
              "internalType": "string",
              "name": "name",
              "type": "string"
            },
            {
              "internalType": "address",
              "name": "childAddress",
              "type": "address"
            },
            {
              "internalType": "address",
              "name": "tokenPreference",
              "type": "address"
            },
            {
              "internalType": "uint256",
              "name": "baseAmount",
              "type": "uint256"
            },
            {
              "internalType": "uint256",
              "name": "claimableAmount",
              "type": "uint256"
            },
            {
              "internalType": "bool",
              "name": "claimValid",
              "type": "bool"
            },
            {
              "internalType": "enum ParentContract.ClaimPeriod",
              "name": "claimPeriod",
              "type": "uint8"
            },
            {
              "internalType": "uint256",
              "name": "nextClaimPeriod",
              "type": "uint256"
            }
          ],
          "indexed": false,
          "internalType": "struct ParentContract.Child",
          "name": "child",
          "type": "tuple"
        },
        {
          "indexed": false,
          "internalType": "address",
          "name": "tokenAddress",
          "type": "address"
        },
        {
          "indexed": false,
          "internalType": "uint256",
          "name": "timestamp",
          "type": "uint256"
        }
      ],
      "name": "AllowanceClaimed",
      "type": "event"
    },
    {
      "anonymous": false,
      "inputs": [
        {
          "indexed": true,
          "internalType": "address",
          "name": "parentAddress",
          "type": "address"
        },
        {
          "indexed": false,
          "internalType": "address",
          "name": "childAddress",
          "type": "address"
        },
        {
          "components": [
            {
              "internalType": "string",
              "name": "name",
              "type": "string"
            },
            {
              "internalType": "address",
              "name": "childAddress",
              "type": "address"
            },
            {
              "internalType": "address",
              "name": "tokenPreference",
              "type": "address"
            },
            {
              "internalType": "uint256",
              "name": "baseAmount",
              "type": "uint256"
            },
            {
              "internalType": "uint256",
              "name": "claimableAmount",
              "type": "uint256"
            },
            {
              "internalType": "bool",
              "name": "claimValid",
              "type": "bool"
            },
            {
              "internalType": "enum ParentContract.ClaimPeriod",
              "name": "claimPeriod",
              "type": "uint8"
            },
            {
              "internalType": "uint256",
              "name": "nextClaimPeriod",
              "type": "uint256"
            }
          ],
          "indexed": false,
          "internalType": "struct ParentContract.Child",
          "name": "child",
          "type": "tuple"
        }
      ],
      "name": "ChildAdded",
      "type": "event"
    },
    {
      "anonymous": false,
      "inputs": [
        {
          "indexed": true,
          "internalType": "address",
          "name": "parentAddress",
          "type": "address"
        },
        {
          "indexed": false,
          "internalType": "address",
          "name": "tokenAddress",
          "type": "address"
        },
        {
          "components": [
            {
              "internalType": "uint256",
              "name": "supply",
              "type": "uint256"
            },
            {
              "internalType": "address",
              "name": "tokenAddress",
              "type": "address"
            },
            {
              "internalType": "string",
              "name": "name",
              "type": "string"
            },
            {
              "internalType": "string",
              "name": "symbol",
              "type": "string"
            }
          ],
          "indexed": false,
          "internalType": "struct ParentContract.Token",
          "name": "token",
          "type": "tuple"
        }
      ],
      "name": "TokenCreated",
      "type": "event"
    },
    {
      "inputs": [
        {
          "internalType": "string",
          "name": "_name",
          "type": "string"
        },
        {
          "internalType": "address",
          "name": "_childAddress",
          "type": "address"
        },
        {
          "internalType": "address",
          "name": "_tokenPreference",
          "type": "address"
        },
        {
          "internalType": "uint256",
          "name": "_baseAmount",
          "type": "uint256"
        }
      ],
      "name": "addChild",
      "outputs": [],
      "stateMutability": "nonpayable",
      "type": "function"
    },
    {
      "inputs": [
        {
          "internalType": "uint256",
          "name": "_baseAmount",
          "type": "uint256"
        },
        {
          "internalType": "enum ParentContract.ClaimPeriod",
          "name": "_claimPeriod",
          "type": "uint8"
        }
      ],
      "name": "calculateClaimableAmount",
      "outputs": [
        {
          "internalType": "uint256",
          "name": "",
          "type": "uint256"
        }
      ],
      "stateMutability": "pure",
      "type": "function"
    },
    {
      "inputs": [
        {
          "internalType": "address",
          "name": "",
          "type": "address"
        }
      ],
      "name": "childToParentMapping",
      "outputs": [
        {
          "internalType": "address",
          "name": "",
          "type": "address"
        }
      ],
      "stateMutability": "view",
      "type": "function"
    },
    {
      "inputs": [
        {
          "internalType": "contract IERC20",
          "name": "token",
          "type": "address"
        },
        {
          "internalType": "address",
          "name": "_tokenToBeClaimed",
          "type": "address"
        }
      ],
      "name": "claim",
      "outputs": [],
      "stateMutability": "nonpayable",
      "type": "function"
    },
    {
      "inputs": [],
      "name": "contractAddress",
      "outputs": [
        {
          "internalType": "address",
          "name": "",
          "type": "address"
        }
      ],
      "stateMutability": "view",
      "type": "function"
    },
    {
      "inputs": [],
      "name": "contractDeployedTime",
      "outputs": [
        {
          "internalType": "uint256",
          "name": "",
          "type": "uint256"
        }
      ],
      "stateMutability": "view",
      "type": "function"
    },
    {
      "inputs": [
        {
          "internalType": "uint256",
          "name": "_supply",
          "type": "uint256"
        },
        {
          "internalType": "string",
          "name": "_contractName",
          "type": "string"
        },
        {
          "internalType": "string",
          "name": "_contractSymbol",
          "type": "string"
        }
      ],
      "name": "createNewToken",
      "outputs": [],
      "stateMutability": "nonpayable",
      "type": "function"
    },
    {
      "inputs": [],
      "name": "currentTime",
      "outputs": [
        {
          "internalType": "uint256",
          "name": "",
          "type": "uint256"
        }
      ],
      "stateMutability": "view",
      "type": "function"
    },
    {
      "inputs": [
        {
          "internalType": "contract IERC20",
          "name": "token",
          "type": "address"
        }
      ],
      "name": "getBalanceTest",
      "outputs": [
        {
          "internalType": "uint256",
          "name": "",
          "type": "uint256"
        }
      ],
      "stateMutability": "view",
      "type": "function"
    },
    {
      "inputs": [],
      "name": "getChildsNextClaimPeriod",
      "outputs": [
        {
          "internalType": "uint256",
          "name": "",
          "type": "uint256"
        },
        {
          "internalType": "enum ParentContract.ClaimPeriod",
          "name": "",
          "type": "uint8"
        }
      ],
      "stateMutability": "view",
      "type": "function"
    },
    {
      "inputs": [],
      "name": "getChildsParent",
      "outputs": [
        {
          "internalType": "address",
          "name": "",
          "type": "address"
        }
      ],
      "stateMutability": "view",
      "type": "function"
    },
    {
      "inputs": [],
      "name": "getCurrentTime",
      "outputs": [
        {
          "internalType": "uint256",
          "name": "",
          "type": "uint256"
        }
      ],
      "stateMutability": "view",
      "type": "function"
    },
    {
      "inputs": [],
      "name": "nextWeek",
      "outputs": [
        {
          "internalType": "uint256",
          "name": "",
          "type": "uint256"
        }
      ],
      "stateMutability": "view",
      "type": "function"
    },
    {
      "inputs": [],
      "name": "owner",
      "outputs": [
        {
          "internalType": "address",
          "name": "",
          "type": "address"
        }
      ],
      "stateMutability": "view",
      "type": "function"
    },
    {
      "inputs": [
        {
          "internalType": "address",
          "name": "",
          "type": "address"
        },
        {
          "internalType": "uint256",
          "name": "",
          "type": "uint256"
        }
      ],
      "name": "parentToChildMapping",
      "outputs": [
        {
          "internalType": "string",
          "name": "name",
          "type": "string"
        },
        {
          "internalType": "address",
          "name": "childAddress",
          "type": "address"
        },
        {
          "internalType": "address",
          "name": "tokenPreference",
          "type": "address"
        },
        {
          "internalType": "uint256",
          "name": "baseAmount",
          "type": "uint256"
        },
        {
          "internalType": "uint256",
          "name": "claimableAmount",
          "type": "uint256"
        },
        {
          "internalType": "bool",
          "name": "claimValid",
          "type": "bool"
        },
        {
          "internalType": "enum ParentContract.ClaimPeriod",
          "name": "claimPeriod",
          "type": "uint8"
        },
        {
          "internalType": "uint256",
          "name": "nextClaimPeriod",
          "type": "uint256"
        }
      ],
      "stateMutability": "view",
      "type": "function"
    },
    {
      "inputs": [
        {
          "internalType": "address",
          "name": "",
          "type": "address"
        },
        {
          "internalType": "address",
          "name": "",
          "type": "address"
        }
      ],
      "name": "parentToChildMappingNested",
      "outputs": [
        {
          "internalType": "string",
          "name": "name",
          "type": "string"
        },
        {
          "internalType": "address",
          "name": "childAddress",
          "type": "address"
        },
        {
          "internalType": "address",
          "name": "tokenPreference",
          "type": "address"
        },
        {
          "internalType": "uint256",
          "name": "baseAmount",
          "type": "uint256"
        },
        {
          "internalType": "uint256",
          "name": "claimableAmount",
          "type": "uint256"
        },
        {
          "internalType": "bool",
          "name": "claimValid",
          "type": "bool"
        },
        {
          "internalType": "enum ParentContract.ClaimPeriod",
          "name": "claimPeriod",
          "type": "uint8"
        },
        {
          "internalType": "uint256",
          "name": "nextClaimPeriod",
          "type": "uint256"
        }
      ],
      "stateMutability": "view",
      "type": "function"
    },
    {
      "inputs": [
        {
          "internalType": "address",
          "name": "",
          "type": "address"
        },
        {
          "internalType": "uint256",
          "name": "",
          "type": "uint256"
        }
      ],
      "name": "parentToTokensMapping",
      "outputs": [
        {
          "internalType": "uint256",
          "name": "supply",
          "type": "uint256"
        },
        {
          "internalType": "address",
          "name": "tokenAddress",
          "type": "address"
        },
        {
          "internalType": "string",
          "name": "name",
          "type": "string"
        },
        {
          "internalType": "string",
          "name": "symbol",
          "type": "string"
        }
      ],
      "stateMutability": "view",
      "type": "function"
    },
    {
      "inputs": [
        {
          "internalType": "uint256",
          "name": "",
          "type": "uint256"
        }
      ],
      "name": "s_createdTokenAddresses",
      "outputs": [
        {
          "internalType": "address",
          "name": "",
          "type": "address"
        }
      ],
      "stateMutability": "view",
      "type": "function"
    },
    {
      "inputs": [],
      "name": "setChildClaimMomentDaily",
      "outputs": [],
      "stateMutability": "nonpayable",
      "type": "function"
    },
    {
      "inputs": [],
      "name": "setChildClaimMomentMonthly",
      "outputs": [],
      "stateMutability": "nonpayable",
      "type": "function"
    },
    {
      "inputs": [],
      "name": "setChildClaimMomentWeekly",
      "outputs": [],
      "stateMutability": "nonpayable",
      "type": "function"
    },
    {
      "inputs": [],
      "name": "setNextWeek",
      "outputs": [],
      "stateMutability": "nonpayable",
      "type": "function"
    },
    {
      "inputs": [],
      "name": "test",
      "outputs": [
        {
          "internalType": "address",
          "name": "",
          "type": "address"
        }
      ],
      "stateMutability": "view",
      "type": "function"
    },
    {
      "inputs": [],
      "name": "tokenCreator",
      "outputs": [
        {
          "internalType": "contract TokenCreator",
          "name": "",
          "type": "address"
        }
      ],
      "stateMutability": "view",
      "type": "function"
    }
  ],
  "transactionHash": "0x1995d8a1425d13136bf432bde4377d884a08958d457c11e172a7012975afb2f1",
  "args": [],
  "numDeployments": 1,
  "solcInputHash": "b54f51c2f853510b601bd7679d2db869",
  "bytecode": "0x608060405234801561001057600080fd5b50336000806101000a81548173ffffffffffffffffffffffffffffffffffffffff021916908373ffffffffffffffffffffffffffffffffffffffff16021790555030600460006101000a81548173ffffffffffffffffffffffffffffffffffffffff021916908373ffffffffffffffffffffffffffffffffffffffff1602179055506157fd806100a16000396000f3fe60806040523480156200001157600080fd5b5060043610620001785760003560e01c8063b0f7246b11620000d5578063e1727fc61162000087578063e1727fc614620003f8578063f1f77312146200041a578063f6b4dfb4146200043a578063f8a8fd6d146200045c578063fbabcdd3146200047e578063fd7364b714620004b75762000178565b8063b0f7246b146200032d578063ca7b00721462000350578063d0bd4261146200035c578063d18e81b31462000392578063da3e24f914620003b4578063db84252c14620003d65762000178565b806376aa835f116200012f57806376aa835f146200024a5780637a4e6c7614620002805780638da5cb5b14620002bd5780639060def914620002df5780639ca4ec5914620002eb578063a64cbab614620003215762000178565b80630590b377146200017d57806321c0b342146200019d57806321f0020814620001bd57806327689d8214620001fa57806329cb924d146200021c57806354ed78f1146200023e575b600080fd5b6200019b6004803603810190620001959190620028a2565b620004ed565b005b620001bb6004803603810190620001b5919062002978565b62000d63565b005b620001db6004803603810190620001d59190620029bf565b620014e1565b604051620001f198979695949392919062002b4e565b60405180910390f35b6200020462001631565b60405162000213919062002be3565b60405180910390f35b620002266200169d565b60405162000235919062002c00565b60405180910390f35b62000248620016a5565b005b62000268600480360381019062000262919062002c1d565b620016be565b60405162000277919062002c00565b60405180910390f35b6200029e600480360381019062000298919062002c4f565b6200174b565b604051620002b498979695949392919062002b4e565b60405180910390f35b620002c76200188a565b604051620002d6919062002be3565b60405180910390f35b620002e9620018ae565b005b62000309600480360381019062000303919062002cbe565b62001992565b60405162000318919062002c00565b60405180910390f35b6200032b62001acc565b005b6200033762001bb0565b6040516200034792919062002d05565b60405180910390f35b6200035a62001e2d565b005b6200037a600480360381019062000374919062002d32565b62001f11565b60405162000389919062002be3565b60405180910390f35b6200039c62001f44565b604051620003ab919062002c00565b60405180910390f35b620003be62001f4a565b604051620003cd919062002c00565b60405180910390f35b620003e062001f50565b604051620003ef919062002dcf565b60405180910390f35b6200040262001f76565b60405162000411919062002c00565b60405180910390f35b62000438600480360381019062000432919062002dec565b62001f7c565b005b62000444620021d6565b60405162000453919062002be3565b60405180910390f35b62000466620021fc565b60405162000475919062002be3565b60405180910390f35b6200049c6004803603810190620004969190620029bf565b62002204565b604051620004ae949392919062002e86565b60405180910390f35b620004d56004803603810190620004cf919062002ee1565b62002392565b604051620004e4919062002be3565b60405180910390f35b816000600660003373ffffffffffffffffffffffffffffffffffffffff1673ffffffffffffffffffffffffffffffffffffffff168152602001908152602001600020805480602002602001604051908101604052809291908181526020016000905b82821015620007175783829060005260206000209060040201604051806080016040529081600082015481526020016001820160009054906101000a900473ffffffffffffffffffffffffffffffffffffffff1673ffffffffffffffffffffffffffffffffffffffff1673ffffffffffffffffffffffffffffffffffffffff168152602001600282018054620005e59062002f42565b80601f0160208091040260200160405190810160405280929190818152602001828054620006139062002f42565b8015620006645780601f10620006385761010080835404028352916020019162000664565b820191906000526020600020905b8154815290600101906020018083116200064657829003601f168201915b505050505081526020016003820180546200067f9062002f42565b80601f0160208091040260200160405190810160405280929190818152602001828054620006ad9062002f42565b8015620006fe5780601f10620006d257610100808354040283529160200191620006fe565b820191906000526020600020905b815481529060010190602001808311620006e057829003601f168201915b505050505081525050815260200190600101906200054f565b5050505090506000805b825181101562000843576200076c6040518060400160405280600981526020017f6c6f6f70696e673a20000000000000000000000000000000000000000000000081525082620023d2565b8373ffffffffffffffffffffffffffffffffffffffff1683828151811062000799576200079862002f77565b5b60200260200101516020015173ffffffffffffffffffffffffffffffffffffffff16036200082d57620008236040518060400160405280601281526020017f746f6b656e20776974682061646472657373000000000000000000000000000081525084838151811062000811576200081062002f77565b5b60200260200101516020015162002472565b6001915062000843565b80806200083a9062002fd5565b91505062000721565b5080620008bc576200088a6040518060400160405280601281526020017f546f6b656e206e6f7420666f756e64203a28000000000000000000000000000081525062002512565b6040517f4c084f1400000000000000000000000000000000000000000000000000000000815260040160405180910390fd5b600062093a80620008cc6200169d565b620008d8919062003022565b90506000620008e986600162001992565b905060006040518061010001604052808b81526020018a73ffffffffffffffffffffffffffffffffffffffff1681526020018973ffffffffffffffffffffffffffffffffffffffff1681526020018881526020018381526020016000151581526020016001600281111562000963576200096262002ace565b5b8152602001848152509050600760003373ffffffffffffffffffffffffffffffffffffffff1673ffffffffffffffffffffffffffffffffffffffff1681526020019081526020016000208190806001815401808255809150506001900390600052602060002090600702016000909190919091506000820151816000019081620009ee919062003225565b5060208201518160010160006101000a81548173ffffffffffffffffffffffffffffffffffffffff021916908373ffffffffffffffffffffffffffffffffffffffff16021790555060408201518160020160006101000a81548173ffffffffffffffffffffffffffffffffffffffff021916908373ffffffffffffffffffffffffffffffffffffffff160217905550606082015181600301556080820151816004015560a08201518160050160006101000a81548160ff02191690831515021790555060c08201518160050160016101000a81548160ff0219169083600281111562000adf5762000ade62002ace565b5b021790555060e08201518160060155505080600860003373ffffffffffffffffffffffffffffffffffffffff1673ffffffffffffffffffffffffffffffffffffffff16815260200190815260200160002060008b73ffffffffffffffffffffffffffffffffffffffff1673ffffffffffffffffffffffffffffffffffffffff168152602001908152602001600020600082015181600001908162000b84919062003225565b5060208201518160010160006101000a81548173ffffffffffffffffffffffffffffffffffffffff021916908373ffffffffffffffffffffffffffffffffffffffff16021790555060408201518160020160006101000a81548173ffffffffffffffffffffffffffffffffffffffff021916908373ffffffffffffffffffffffffffffffffffffffff160217905550606082015181600301556080820151816004015560a08201518160050160006101000a81548160ff02191690831515021790555060c08201518160050160016101000a81548160ff0219169083600281111562000c755762000c7462002ace565b5b021790555060e0820151816006015590505033600960008b73ffffffffffffffffffffffffffffffffffffffff1673ffffffffffffffffffffffffffffffffffffffff16815260200190815260200160002060006101000a81548173ffffffffffffffffffffffffffffffffffffffff021916908373ffffffffffffffffffffffffffffffffffffffff1602179055503373ffffffffffffffffffffffffffffffffffffffff167f1d02b79871d7f08ec350cd2c9d6733dee2f61f43e9c8e7a6f7ac1da467b49f278a8360405162000d4f92919062003462565b60405180910390a250505050505050505050565b60008062000d706200169d565b90506000600960003373ffffffffffffffffffffffffffffffffffffffff1673ffffffffffffffffffffffffffffffffffffffff16815260200190815260200160002060009054906101000a900473ffffffffffffffffffffffffffffffffffffffff1690506000600660008373ffffffffffffffffffffffffffffffffffffffff1673ffffffffffffffffffffffffffffffffffffffff168152602001908152602001600020805480602002602001604051908101604052809291908181526020016000905b8282101562000fff5783829060005260206000209060040201604051806080016040529081600082015481526020016001820160009054906101000a900473ffffffffffffffffffffffffffffffffffffffff1673ffffffffffffffffffffffffffffffffffffffff1673ffffffffffffffffffffffffffffffffffffffff16815260200160028201805462000ecd9062002f42565b80601f016020809104026020016040519081016040528092919081815260200182805462000efb9062002f42565b801562000f4c5780601f1062000f205761010080835404028352916020019162000f4c565b820191906000526020600020905b81548152906001019060200180831162000f2e57829003601f168201915b5050505050815260200160038201805462000f679062002f42565b80601f016020809104026020016040519081016040528092919081815260200182805462000f959062002f42565b801562000fe65780601f1062000fba5761010080835404028352916020019162000fe6565b820191906000526020600020905b81548152906001019060200180831162000fc857829003601f168201915b5050505050815250508152602001906001019062000e37565b50505050905060005b815181101562001082578573ffffffffffffffffffffffffffffffffffffffff168282815181106200103f576200103e62002f77565b5b60200260200101516020015173ffffffffffffffffffffffffffffffffffffffff16036200106c57600194505b8080620010799062002fd5565b91505062001008565b506001151584151514620010cd576040517f08c379a0000000000000000000000000000000000000000000000000000000008152600401620010c4906200350c565b60405180910390fd5b6000600860008473ffffffffffffffffffffffffffffffffffffffff1673ffffffffffffffffffffffffffffffffffffffff16815260200190815260200160002060003373ffffffffffffffffffffffffffffffffffffffff1673ffffffffffffffffffffffffffffffffffffffff1681526020019081526020016000209050620011c96040518060400160405280600d81526020017f63757272656e742074696d653a00000000000000000000000000000000000000815250856040518060400160405280601881526020017f2e204e65787420436c61696d20706572696f642069733a2000000000000000008152508460060154620025af565b806006015484106200123357620012156040518060400160405280600d81526020017f436c61696d2056616c696421200000000000000000000000000000000000000081525062002512565b60018160050160006101000a81548160ff0219169083151502179055505b600115158160050160009054906101000a900460ff161515146200128e576040517f08c379a00000000000000000000000000000000000000000000000000000000081526004016200128590620035a4565b60405180910390fd5b60008160050160006101000a81548160ff02191690831515021790555060006002811115620012c257620012c162002ace565b5b8160050160019054906101000a900460ff166002811115620012e957620012e862002ace565b5b03620013125762015180816006015462001304919062003022565b8160060181905550620013dc565b6001600281111562001329576200132862002ace565b5b8160050160019054906101000a900460ff16600281111562001350576200134f62002ace565b5b03620013795762093a8081600601546200136b919062003022565b8160060181905550620013db565b6002808111156200138f576200138e62002ace565b5b8160050160019054906101000a900460ff166002811115620013b657620013b562002ace565b5b03620013da576224ea008160060154620013d1919062003022565b81600601819055505b5b5b8673ffffffffffffffffffffffffffffffffffffffff1663a9059cbb3383600401546040518363ffffffff1660e01b81526004016200141d929190620035c6565b6020604051808303816000875af11580156200143d573d6000803e3d6000fd5b505050506040513d601f19601f8201168201806040525081019062001463919062003624565b503373ffffffffffffffffffffffffffffffffffffffff168373ffffffffffffffffffffffffffffffffffffffff167f9a68c88a4f4b9aad13731b234f789ffa1a94ea30a1b6ee3efad0d2913ac3155c8389620014bf6200169d565b604051620014d093929190620038d1565b60405180910390a350505050505050565b60076020528160005260406000208181548110620014fe57600080fd5b906000526020600020906007020160009150915050806000018054620015249062002f42565b80601f0160208091040260200160405190810160405280929190818152602001828054620015529062002f42565b8015620015a35780601f106200157757610100808354040283529160200191620015a3565b820191906000526020600020905b8154815290600101906020018083116200158557829003601f168201915b5050505050908060010160009054906101000a900473ffffffffffffffffffffffffffffffffffffffff16908060020160009054906101000a900473ffffffffffffffffffffffffffffffffffffffff16908060030154908060040154908060050160009054906101000a900460ff16908060050160019054906101000a900460ff16908060060154905088565b600080600960003373ffffffffffffffffffffffffffffffffffffffff1673ffffffffffffffffffffffffffffffffffffffff16815260200190815260200160002060009054906101000a900473ffffffffffffffffffffffffffffffffffffffff1690508091505090565b600042905090565b62093a8042620016b6919062003022565b600a81905550565b6000808273ffffffffffffffffffffffffffffffffffffffff166370a08231336040518263ffffffff1660e01b8152600401620016fc919062002be3565b602060405180830381865afa1580156200171a573d6000803e3d6000fd5b505050506040513d601f19601f820116820180604052508101906200174091906200392c565b905080915050919050565b6008602052816000526040600020602052806000526040600020600091509150508060000180546200177d9062002f42565b80601f0160208091040260200160405190810160405280929190818152602001828054620017ab9062002f42565b8015620017fc5780601f10620017d057610100808354040283529160200191620017fc565b820191906000526020600020905b815481529060010190602001808311620017de57829003601f168201915b5050505050908060010160009054906101000a900473ffffffffffffffffffffffffffffffffffffffff16908060020160009054906101000a900473ffffffffffffffffffffffffffffffffffffffff16908060030154908060040154908060050160009054906101000a900460ff16908060050160019054906101000a900460ff16908060060154905088565b60008054906101000a900473ffffffffffffffffffffffffffffffffffffffff1681565b6000620018ba62001631565b90506000600860008373ffffffffffffffffffffffffffffffffffffffff1673ffffffffffffffffffffffffffffffffffffffff16815260200190815260200160002060003373ffffffffffffffffffffffffffffffffffffffff1673ffffffffffffffffffffffffffffffffffffffff168152602001908152602001600020905060018160050160016101000a81548160ff0219169083600281111562001967576200196662002ace565b5b021790555062093a806200197a6200169d565b62001986919062003022565b81600601819055505050565b60008060006002811115620019ac57620019ab62002ace565b5b836002811115620019c257620019c162002ace565b5b0362001a0e576000600a606486620019db91906200398d565b620019e79190620039c5565b85620019f4919062003a10565b905060078162001a0591906200398d565b91505062001ac2565b6001600281111562001a255762001a2462002ace565b5b83600281111562001a3b5762001a3a62002ace565b5b0362001a4a5783905062001ac1565b60028081111562001a605762001a5f62002ace565b5b83600281111562001a765762001a7562002ace565b5b0362001ac0576000600a60648662001a8f91906200398d565b62001a9b9190620039c5565b8562001aa8919062003022565b915081905060048162001abc9190620039c5565b9150505b5b5b8091505092915050565b600062001ad862001631565b90506000600860008373ffffffffffffffffffffffffffffffffffffffff1673ffffffffffffffffffffffffffffffffffffffff16815260200190815260200160002060003373ffffffffffffffffffffffffffffffffffffffff1673ffffffffffffffffffffffffffffffffffffffff168152602001908152602001600020905060028160050160016101000a81548160ff0219169083600281111562001b855762001b8462002ace565b5b02179055506224ea0062001b986200169d565b62001ba4919062003022565b81600601819055505050565b600080600062001bbf62001631565b90506000600860008373ffffffffffffffffffffffffffffffffffffffff1673ffffffffffffffffffffffffffffffffffffffff16815260200190815260200160002060003373ffffffffffffffffffffffffffffffffffffffff1673ffffffffffffffffffffffffffffffffffffffff1681526020019081526020016000206040518061010001604052908160008201805462001c5d9062002f42565b80601f016020809104026020016040519081016040528092919081815260200182805462001c8b9062002f42565b801562001cdc5780601f1062001cb05761010080835404028352916020019162001cdc565b820191906000526020600020905b81548152906001019060200180831162001cbe57829003601f168201915b505050505081526020016001820160009054906101000a900473ffffffffffffffffffffffffffffffffffffffff1673ffffffffffffffffffffffffffffffffffffffff1673ffffffffffffffffffffffffffffffffffffffff1681526020016002820160009054906101000a900473ffffffffffffffffffffffffffffffffffffffff1673ffffffffffffffffffffffffffffffffffffffff1673ffffffffffffffffffffffffffffffffffffffff16815260200160038201548152602001600482015481526020016005820160009054906101000a900460ff161515151581526020016005820160019054906101000a900460ff16600281111562001de85762001de762002ace565b5b600281111562001dfd5762001dfc62002ace565b5b8152602001600682015481525050905060008160e00151905060008260c001519050818195509550505050509091565b600062001e3962001631565b90506000600860008373ffffffffffffffffffffffffffffffffffffffff1673ffffffffffffffffffffffffffffffffffffffff16815260200190815260200160002060003373ffffffffffffffffffffffffffffffffffffffff1673ffffffffffffffffffffffffffffffffffffffff168152602001908152602001600020905060008160050160016101000a81548160ff0219169083600281111562001ee65762001ee562002ace565b5b02179055506201518062001ef96200169d565b62001f05919062003022565b81600601819055505050565b60096020528060005260406000206000915054906101000a900473ffffffffffffffffffffffffffffffffffffffff1681565b60025481565b600a5481565b600160009054906101000a900473ffffffffffffffffffffffffffffffffffffffff1681565b60035481565b600083838360405162001f8f906200267e565b62001f9d9392919062003a4b565b604051809103906000f08015801562001fba573d6000803e3d6000fd5b5090506005819080600181540180825580915050600190039060005260206000200160009091909190916101000a81548173ffffffffffffffffffffffffffffffffffffffff021916908373ffffffffffffffffffffffffffffffffffffffff160217905550600060405180608001604052808681526020018373ffffffffffffffffffffffffffffffffffffffff168152602001858152602001848152509050600660003373ffffffffffffffffffffffffffffffffffffffff1673ffffffffffffffffffffffffffffffffffffffff16815260200190815260200160002060405180608001604052808781526020018473ffffffffffffffffffffffffffffffffffffffff1681526020018681526020018581525090806001815401808255809150506001900390600052602060002090600402016000909190919091506000820151816000015560208201518160010160006101000a81548173ffffffffffffffffffffffffffffffffffffffff021916908373ffffffffffffffffffffffffffffffffffffffff160217905550604082015181600201908162002162919062003225565b5060608201518160030190816200217a919062003225565b5050503373ffffffffffffffffffffffffffffffffffffffff167f8503319bc0664c6e8544b25c2ff39ffb8c04ec72daf3e0619230f33ba87526c58383604051620021c792919062003b08565b60405180910390a25050505050565b600460009054906101000a900473ffffffffffffffffffffffffffffffffffffffff1681565b600033905090565b600660205281600052604060002081815481106200222157600080fd5b9060005260206000209060040201600091509150508060000154908060010160009054906101000a900473ffffffffffffffffffffffffffffffffffffffff1690806002018054620022739062002f42565b80601f0160208091040260200160405190810160405280929190818152602001828054620022a19062002f42565b8015620022f25780601f10620022c657610100808354040283529160200191620022f2565b820191906000526020600020905b815481529060010190602001808311620022d457829003601f168201915b505050505090806003018054620023099062002f42565b80601f0160208091040260200160405190810160405280929190818152602001828054620023379062002f42565b8015620023885780601f106200235c5761010080835404028352916020019162002388565b820191906000526020600020905b8154815290600101906020018083116200236a57829003601f168201915b5050505050905084565b60058181548110620023a357600080fd5b906000526020600020016000915054906101000a900473ffffffffffffffffffffffffffffffffffffffff1681565b6200246e8282604051602401620023eb92919062003b3c565b6040516020818303038152906040527fb60e72cc000000000000000000000000000000000000000000000000000000007bffffffffffffffffffffffffffffffffffffffffffffffffffffffff19166020820180517bffffffffffffffffffffffffffffffffffffffffffffffffffffffff838183161783525050505062002655565b5050565b6200250e82826040516024016200248b92919062003b70565b6040516020818303038152906040527f319af333000000000000000000000000000000000000000000000000000000007bffffffffffffffffffffffffffffffffffffffffffffffffffffffff19166020820180517bffffffffffffffffffffffffffffffffffffffffffffffffffffffff838183161783525050505062002655565b5050565b620025ac8160405160240162002529919062003ba4565b6040516020818303038152906040527f41304fac000000000000000000000000000000000000000000000000000000007bffffffffffffffffffffffffffffffffffffffffffffffffffffffff19166020820180517bffffffffffffffffffffffffffffffffffffffffffffffffffffffff838183161783525050505062002655565b50565b6200264f84848484604051602401620025cc949392919062003bc8565b6040516020818303038152906040527fc67ea9d1000000000000000000000000000000000000000000000000000000007bffffffffffffffffffffffffffffffffffffffffffffffffffffffff19166020820180517bffffffffffffffffffffffffffffffffffffffffffffffffffffffff838183161783525050505062002655565b50505050565b60008151905060006a636f6e736f6c652e6c6f679050602083016000808483855afa5050505050565b611ba48062003c2483390190565b6000604051905090565b600080fd5b600080fd5b600080fd5b600080fd5b6000601f19601f8301169050919050565b7f4e487b7100000000000000000000000000000000000000000000000000000000600052604160045260246000fd5b620026f582620026aa565b810181811067ffffffffffffffff82111715620027175762002716620026bb565b5b80604052505050565b60006200272c6200268c565b90506200273a8282620026ea565b919050565b600067ffffffffffffffff8211156200275d576200275c620026bb565b5b6200276882620026aa565b9050602081019050919050565b82818337600083830152505050565b60006200279b62002795846200273f565b62002720565b905082815260208101848484011115620027ba57620027b9620026a5565b5b620027c784828562002775565b509392505050565b600082601f830112620027e757620027e6620026a0565b5b8135620027f984826020860162002784565b91505092915050565b600073ffffffffffffffffffffffffffffffffffffffff82169050919050565b60006200282f8262002802565b9050919050565b620028418162002822565b81146200284d57600080fd5b50565b600081359050620028618162002836565b92915050565b6000819050919050565b6200287c8162002867565b81146200288857600080fd5b50565b6000813590506200289c8162002871565b92915050565b60008060008060808587031215620028bf57620028be62002696565b5b600085013567ffffffffffffffff811115620028e057620028df6200269b565b5b620028ee87828801620027cf565b9450506020620029018782880162002850565b9350506040620029148782880162002850565b925050606062002927878288016200288b565b91505092959194509250565b6000620029408262002822565b9050919050565b620029528162002933565b81146200295e57600080fd5b50565b600081359050620029728162002947565b92915050565b6000806040838503121562002992576200299162002696565b5b6000620029a28582860162002961565b9250506020620029b58582860162002850565b9150509250929050565b60008060408385031215620029d957620029d862002696565b5b6000620029e98582860162002850565b9250506020620029fc858286016200288b565b9150509250929050565b600081519050919050565b600082825260208201905092915050565b60005b8381101562002a4257808201518184015260208101905062002a25565b60008484015250505050565b600062002a5b8262002a06565b62002a67818562002a11565b935062002a7981856020860162002a22565b62002a8481620026aa565b840191505092915050565b62002a9a8162002822565b82525050565b62002aab8162002867565b82525050565b60008115159050919050565b62002ac88162002ab1565b82525050565b7f4e487b7100000000000000000000000000000000000000000000000000000000600052602160045260246000fd5b6003811062002b115762002b1062002ace565b5b50565b600081905062002b248262002afd565b919050565b600062002b368262002b14565b9050919050565b62002b488162002b29565b82525050565b600061010082019050818103600083015262002b6b818b62002a4e565b905062002b7c602083018a62002a8f565b62002b8b604083018962002a8f565b62002b9a606083018862002aa0565b62002ba9608083018762002aa0565b62002bb860a083018662002abd565b62002bc760c083018562002b3d565b62002bd660e083018462002aa0565b9998505050505050505050565b600060208201905062002bfa600083018462002a8f565b92915050565b600060208201905062002c17600083018462002aa0565b92915050565b60006020828403121562002c365762002c3562002696565b5b600062002c468482850162002961565b91505092915050565b6000806040838503121562002c695762002c6862002696565b5b600062002c798582860162002850565b925050602062002c8c8582860162002850565b9150509250929050565b6003811062002ca457600080fd5b50565b60008135905062002cb88162002c96565b92915050565b6000806040838503121562002cd85762002cd762002696565b5b600062002ce8858286016200288b565b925050602062002cfb8582860162002ca7565b9150509250929050565b600060408201905062002d1c600083018562002aa0565b62002d2b602083018462002b3d565b9392505050565b60006020828403121562002d4b5762002d4a62002696565b5b600062002d5b8482850162002850565b91505092915050565b6000819050919050565b600062002d8f62002d8962002d838462002802565b62002d64565b62002802565b9050919050565b600062002da38262002d6e565b9050919050565b600062002db78262002d96565b9050919050565b62002dc98162002daa565b82525050565b600060208201905062002de6600083018462002dbe565b92915050565b60008060006060848603121562002e085762002e0762002696565b5b600062002e18868287016200288b565b935050602084013567ffffffffffffffff81111562002e3c5762002e3b6200269b565b5b62002e4a86828701620027cf565b925050604084013567ffffffffffffffff81111562002e6e5762002e6d6200269b565b5b62002e7c86828701620027cf565b9150509250925092565b600060808201905062002e9d600083018762002aa0565b62002eac602083018662002a8f565b818103604083015262002ec0818562002a4e565b9050818103606083015262002ed6818462002a4e565b905095945050505050565b60006020828403121562002efa5762002ef962002696565b5b600062002f0a848285016200288b565b91505092915050565b7f4e487b7100000000000000000000000000000000000000000000000000000000600052602260045260246000fd5b6000600282049050600182168062002f5b57607f821691505b60208210810362002f715762002f7062002f13565b5b50919050565b7f4e487b7100000000000000000000000000000000000000000000000000000000600052603260045260246000fd5b7f4e487b7100000000000000000000000000000000000000000000000000000000600052601160045260246000fd5b600062002fe28262002867565b91507fffffffffffffffffffffffffffffffffffffffffffffffffffffffffffffffff820362003017576200301662002fa6565b5b600182019050919050565b60006200302f8262002867565b91506200303c8362002867565b925082820190508082111562003057576200305662002fa6565b5b92915050565b60008190508160005260206000209050919050565b60006020601f8301049050919050565b600082821b905092915050565b600060088302620030c17fffffffffffffffffffffffffffffffffffffffffffffffffffffffffffffffff8262003082565b620030cd868362003082565b95508019841693508086168417925050509392505050565b60006200310662003100620030fa8462002867565b62002d64565b62002867565b9050919050565b6000819050919050565b6200312283620030e5565b6200313a62003131826200310d565b8484546200308f565b825550505050565b600090565b6200315162003142565b6200315e81848462003117565b505050565b5b8181101562003186576200317a60008262003147565b60018101905062003164565b5050565b601f821115620031d5576200319f816200305d565b620031aa8462003072565b81016020851015620031ba578190505b620031d2620031c98562003072565b83018262003163565b50505b505050565b600082821c905092915050565b6000620031fa60001984600802620031da565b1980831691505092915050565b6000620032158383620031e7565b9150826002028217905092915050565b620032308262002a06565b67ffffffffffffffff8111156200324c576200324b620026bb565b5b62003258825462002f42565b620032658282856200318a565b600060209050601f8311600181146200329d576000841562003288578287015190505b62003294858262003207565b86555062003304565b601f198416620032ad866200305d565b60005b82811015620032d757848901518255600182019150602085019450602081019050620032b0565b86831015620032f75784890151620032f3601f891682620031e7565b8355505b6001600288020188555050505b505050505050565b600082825260208201905092915050565b60006200332a8262002a06565b6200333681856200330c565b93506200334881856020860162002a22565b6200335381620026aa565b840191505092915050565b620033698162002822565b82525050565b6200337a8162002867565b82525050565b6200338b8162002ab1565b82525050565b6200339c8162002b29565b82525050565b6000610100830160008301518482036000860152620033c282826200331d565b9150506020830151620033d960208601826200335e565b506040830151620033ee60408601826200335e565b5060608301516200340360608601826200336f565b5060808301516200341860808601826200336f565b5060a08301516200342d60a086018262003380565b5060c08301516200344260c086018262003391565b5060e08301516200345760e08601826200336f565b508091505092915050565b600060408201905062003479600083018562002a8f565b81810360208301526200348d8184620033a2565b90509392505050565b7f546f6b656e206973206e6f74206f776e656420627920796f757220706172656e60008201527f7400000000000000000000000000000000000000000000000000000000000000602082015250565b6000620034f460218362002a11565b9150620035018262003496565b604082019050919050565b600060208201905081810360008301526200352781620034e5565b9050919050565b7f536f72727920796f757220636c61696d20706572696f64206973206e6f74207660008201527f616c696400000000000000000000000000000000000000000000000000000000602082015250565b60006200358c60248362002a11565b915062003599826200352e565b604082019050919050565b60006020820190508181036000830152620035bf816200357d565b9050919050565b6000604082019050620035dd600083018562002a8f565b620035ec602083018462002aa0565b9392505050565b620035fe8162002ab1565b81146200360a57600080fd5b50565b6000815190506200361e81620035f3565b92915050565b6000602082840312156200363d576200363c62002696565b5b60006200364d848285016200360d565b91505092915050565b60008154620036658162002f42565b6200367181866200330c565b945060018216600081146200368f5760018114620036a657620036dd565b60ff198316865281151560200286019350620036dd565b620036b1856200305d565b60005b83811015620036d557815481890152600182019150602081019050620036b4565b808801955050505b50505092915050565b60008160001c9050919050565b600073ffffffffffffffffffffffffffffffffffffffff82169050919050565b60006200372a6200372483620036e6565b620036f3565b9050919050565b6000819050919050565b6000620037526200374c83620036e6565b62003731565b9050919050565b600060ff82169050919050565b60006200377d6200377783620036e6565b62003759565b9050919050565b60008160081c9050919050565b600060ff82169050919050565b6000620037b5620037af8362003784565b62003791565b9050919050565b6000610100830160008084018583036000870152620037dc838262003656565b92505060018401549050620037f18162003713565b6200380060208701826200335e565b5060028401549050620038138162003713565b6200382260408701826200335e565b506003840154905062003835816200373b565b6200384460608701826200336f565b506004840154905062003857816200373b565b6200386660808701826200336f565b5060058401549050620038798162003766565b6200388860a087018262003380565b5062003894816200379e565b620038a360c087018262003391565b5060068401549050620038b6816200373b565b620038c560e08701826200336f565b50819250505092915050565b60006060820190508181036000830152620038ed8186620037bc565b9050620038fe602083018562002a8f565b6200390d604083018462002aa0565b949350505050565b600081519050620039268162002871565b92915050565b60006020828403121562003945576200394462002696565b5b6000620039558482850162003915565b91505092915050565b7f4e487b7100000000000000000000000000000000000000000000000000000000600052601260045260246000fd5b60006200399a8262002867565b9150620039a78362002867565b925082620039ba57620039b96200395e565b5b828204905092915050565b6000620039d28262002867565b9150620039df8362002867565b9250828202620039ef8162002867565b9150828204841483151762003a095762003a0862002fa6565b5b5092915050565b600062003a1d8262002867565b915062003a2a8362002867565b925082820390508181111562003a455762003a4462002fa6565b5b92915050565b600060608201905062003a62600083018662002aa0565b818103602083015262003a76818562002a4e565b9050818103604083015262003a8c818462002a4e565b9050949350505050565b600060808301600083015162003ab060008601826200336f565b50602083015162003ac560208601826200335e565b506040830151848203604086015262003adf82826200331d565b9150506060830151848203606086015262003afb82826200331d565b9150508091505092915050565b600060408201905062003b1f600083018562002a8f565b818103602083015262003b33818462003a96565b90509392505050565b6000604082019050818103600083015262003b58818562002a4e565b905062003b69602083018462002aa0565b9392505050565b6000604082019050818103600083015262003b8c818562002a4e565b905062003b9d602083018462002a8f565b9392505050565b6000602082019050818103600083015262003bc0818462002a4e565b905092915050565b6000608082019050818103600083015262003be4818762002a4e565b905062003bf5602083018662002aa0565b818103604083015262003c09818562002a4e565b905062003c1a606083018462002aa0565b9594505050505056fe60806040523480156200001157600080fd5b5060405162001ba438038062001ba48339818101604052810190620000379190620003bf565b818181600390816200004a91906200069a565b5080600490816200005c91906200069a565b5050506200007133846200007a60201b60201c565b5050506200089c565b600073ffffffffffffffffffffffffffffffffffffffff168273ffffffffffffffffffffffffffffffffffffffff1603620000ec576040517f08c379a0000000000000000000000000000000000000000000000000000000008152600401620000e390620007e2565b60405180910390fd5b6200010060008383620001e760201b60201c565b806002600082825462000114919062000833565b92505081905550806000808473ffffffffffffffffffffffffffffffffffffffff1673ffffffffffffffffffffffffffffffffffffffff168152602001908152602001600020600082825401925050819055508173ffffffffffffffffffffffffffffffffffffffff16600073ffffffffffffffffffffffffffffffffffffffff167fddf252ad1be2c89b69c2b068fc378daa952ba7f163c4a11628f55a4df523b3ef83604051620001c791906200087f565b60405180910390a3620001e360008383620001ec60201b60201c565b5050565b505050565b505050565b6000604051905090565b600080fd5b600080fd5b6000819050919050565b6200021a8162000205565b81146200022657600080fd5b50565b6000815190506200023a816200020f565b92915050565b600080fd5b600080fd5b6000601f19601f8301169050919050565b7f4e487b7100000000000000000000000000000000000000000000000000000000600052604160045260246000fd5b62000295826200024a565b810181811067ffffffffffffffff82111715620002b757620002b66200025b565b5b80604052505050565b6000620002cc620001f1565b9050620002da82826200028a565b919050565b600067ffffffffffffffff821115620002fd57620002fc6200025b565b5b62000308826200024a565b9050602081019050919050565b60005b838110156200033557808201518184015260208101905062000318565b60008484015250505050565b6000620003586200035284620002df565b620002c0565b90508281526020810184848401111562000377576200037662000245565b5b6200038484828562000315565b509392505050565b600082601f830112620003a457620003a362000240565b5b8151620003b684826020860162000341565b91505092915050565b600080600060608486031215620003db57620003da620001fb565b5b6000620003eb8682870162000229565b935050602084015167ffffffffffffffff8111156200040f576200040e62000200565b5b6200041d868287016200038c565b925050604084015167ffffffffffffffff81111562000441576200044062000200565b5b6200044f868287016200038c565b9150509250925092565b600081519050919050565b7f4e487b7100000000000000000000000000000000000000000000000000000000600052602260045260246000fd5b60006002820490506001821680620004ac57607f821691505b602082108103620004c257620004c162000464565b5b50919050565b60008190508160005260206000209050919050565b60006020601f8301049050919050565b600082821b905092915050565b6000600883026200052c7fffffffffffffffffffffffffffffffffffffffffffffffffffffffffffffffff82620004ed565b620005388683620004ed565b95508019841693508086168417925050509392505050565b6000819050919050565b60006200057b620005756200056f8462000205565b62000550565b62000205565b9050919050565b6000819050919050565b62000597836200055a565b620005af620005a68262000582565b848454620004fa565b825550505050565b600090565b620005c6620005b7565b620005d38184846200058c565b505050565b5b81811015620005fb57620005ef600082620005bc565b600181019050620005d9565b5050565b601f8211156200064a576200061481620004c8565b6200061f84620004dd565b810160208510156200062f578190505b620006476200063e85620004dd565b830182620005d8565b50505b505050565b600082821c905092915050565b60006200066f600019846008026200064f565b1980831691505092915050565b60006200068a83836200065c565b9150826002028217905092915050565b620006a58262000459565b67ffffffffffffffff811115620006c157620006c06200025b565b5b620006cd825462000493565b620006da828285620005ff565b600060209050601f831160018114620007125760008415620006fd578287015190505b6200070985826200067c565b86555062000779565b601f1984166200072286620004c8565b60005b828110156200074c5784890151825560018201915060208501945060208101905062000725565b868310156200076c578489015162000768601f8916826200065c565b8355505b6001600288020188555050505b505050505050565b600082825260208201905092915050565b7f45524332303a206d696e7420746f20746865207a65726f206164647265737300600082015250565b6000620007ca601f8362000781565b9150620007d78262000792565b602082019050919050565b60006020820190508181036000830152620007fd81620007bb565b9050919050565b7f4e487b7100000000000000000000000000000000000000000000000000000000600052601160045260246000fd5b6000620008408262000205565b91506200084d8362000205565b925082820190508082111562000868576200086762000804565b5b92915050565b620008798162000205565b82525050565b60006020820190506200089660008301846200086e565b92915050565b6112f880620008ac6000396000f3fe608060405234801561001057600080fd5b50600436106100b45760003560e01c80633950935111610071578063395093511461019157806370a08231146101c157806395d89b41146101f1578063a457c2d71461020f578063a9059cbb1461023f578063dd62ed3e1461026f576100b4565b806306fdde03146100b9578063095ea7b3146100d757806318160ddd14610107578063230b9da31461012557806323b872dd14610143578063313ce56714610173575b600080fd5b6100c161029f565b6040516100ce9190610b5b565b60405180910390f35b6100f160048036038101906100ec9190610c16565b610331565b6040516100fe9190610c71565b60405180910390f35b61010f610354565b60405161011c9190610c9b565b60405180910390f35b61012d61035e565b60405161013a9190610d15565b60405180910390f35b61015d60048036038101906101589190610d30565b610384565b60405161016a9190610c71565b60405180910390f35b61017b6103b3565b6040516101889190610d9f565b60405180910390f35b6101ab60048036038101906101a69190610c16565b6103bc565b6040516101b89190610c71565b60405180910390f35b6101db60048036038101906101d69190610dba565b6103f3565b6040516101e89190610c9b565b60405180910390f35b6101f961043b565b6040516102069190610b5b565b60405180910390f35b61022960048036038101906102249190610c16565b6104cd565b6040516102369190610c71565b60405180910390f35b61025960048036038101906102549190610c16565b610544565b6040516102669190610c71565b60405180910390f35b61028960048036038101906102849190610de7565b610567565b6040516102969190610c9b565b60405180910390f35b6060600380546102ae90610e56565b80601f01602080910402602001604051908101604052809291908181526020018280546102da90610e56565b80156103275780601f106102fc57610100808354040283529160200191610327565b820191906000526020600020905b81548152906001019060200180831161030a57829003601f168201915b5050505050905090565b60008061033c6105ee565b90506103498185856105f6565b600191505092915050565b6000600254905090565b600560009054906101000a900473ffffffffffffffffffffffffffffffffffffffff1681565b60008061038f6105ee565b905061039c8582856107bf565b6103a785858561084b565b60019150509392505050565b60006012905090565b6000806103c76105ee565b90506103e88185856103d98589610567565b6103e39190610eb6565b6105f6565b600191505092915050565b60008060008373ffffffffffffffffffffffffffffffffffffffff1673ffffffffffffffffffffffffffffffffffffffff168152602001908152602001600020549050919050565b60606004805461044a90610e56565b80601f016020809104026020016040519081016040528092919081815260200182805461047690610e56565b80156104c35780601f10610498576101008083540402835291602001916104c3565b820191906000526020600020905b8154815290600101906020018083116104a657829003601f168201915b5050505050905090565b6000806104d86105ee565b905060006104e68286610567565b90508381101561052b576040517f08c379a000000000000000000000000000000000000000000000000000000000815260040161052290610f5c565b60405180910390fd5b61053882868684036105f6565b60019250505092915050565b60008061054f6105ee565b905061055c81858561084b565b600191505092915050565b6000600160008473ffffffffffffffffffffffffffffffffffffffff1673ffffffffffffffffffffffffffffffffffffffff16815260200190815260200160002060008373ffffffffffffffffffffffffffffffffffffffff1673ffffffffffffffffffffffffffffffffffffffff16815260200190815260200160002054905092915050565b600033905090565b600073ffffffffffffffffffffffffffffffffffffffff168373ffffffffffffffffffffffffffffffffffffffff1603610665576040517f08c379a000000000000000000000000000000000000000000000000000000000815260040161065c90610fee565b60405180910390fd5b600073ffffffffffffffffffffffffffffffffffffffff168273ffffffffffffffffffffffffffffffffffffffff16036106d4576040517f08c379a00000000000000000000000000000000000000000000000000000000081526004016106cb90611080565b60405180910390fd5b80600160008573ffffffffffffffffffffffffffffffffffffffff1673ffffffffffffffffffffffffffffffffffffffff16815260200190815260200160002060008473ffffffffffffffffffffffffffffffffffffffff1673ffffffffffffffffffffffffffffffffffffffff168152602001908152602001600020819055508173ffffffffffffffffffffffffffffffffffffffff168373ffffffffffffffffffffffffffffffffffffffff167f8c5be1e5ebec7d5bd14f71427d1e84f3dd0314c0f7b2291e5b200ac8c7c3b925836040516107b29190610c9b565b60405180910390a3505050565b60006107cb8484610567565b90507fffffffffffffffffffffffffffffffffffffffffffffffffffffffffffffffff81146108455781811015610837576040517f08c379a000000000000000000000000000000000000000000000000000000000815260040161082e906110ec565b60405180910390fd5b61084484848484036105f6565b5b50505050565b600073ffffffffffffffffffffffffffffffffffffffff168373ffffffffffffffffffffffffffffffffffffffff16036108ba576040517f08c379a00000000000000000000000000000000000000000000000000000000081526004016108b19061117e565b60405180910390fd5b600073ffffffffffffffffffffffffffffffffffffffff168273ffffffffffffffffffffffffffffffffffffffff1603610929576040517f08c379a000000000000000000000000000000000000000000000000000000000815260040161092090611210565b60405180910390fd5b610934838383610ac1565b60008060008573ffffffffffffffffffffffffffffffffffffffff1673ffffffffffffffffffffffffffffffffffffffff168152602001908152602001600020549050818110156109ba576040517f08c379a00000000000000000000000000000000000000000000000000000000081526004016109b1906112a2565b60405180910390fd5b8181036000808673ffffffffffffffffffffffffffffffffffffffff1673ffffffffffffffffffffffffffffffffffffffff16815260200190815260200160002081905550816000808573ffffffffffffffffffffffffffffffffffffffff1673ffffffffffffffffffffffffffffffffffffffff168152602001908152602001600020600082825401925050819055508273ffffffffffffffffffffffffffffffffffffffff168473ffffffffffffffffffffffffffffffffffffffff167fddf252ad1be2c89b69c2b068fc378daa952ba7f163c4a11628f55a4df523b3ef84604051610aa89190610c9b565b60405180910390a3610abb848484610ac6565b50505050565b505050565b505050565b600081519050919050565b600082825260208201905092915050565b60005b83811015610b05578082015181840152602081019050610aea565b60008484015250505050565b6000601f19601f8301169050919050565b6000610b2d82610acb565b610b378185610ad6565b9350610b47818560208601610ae7565b610b5081610b11565b840191505092915050565b60006020820190508181036000830152610b758184610b22565b905092915050565b600080fd5b600073ffffffffffffffffffffffffffffffffffffffff82169050919050565b6000610bad82610b82565b9050919050565b610bbd81610ba2565b8114610bc857600080fd5b50565b600081359050610bda81610bb4565b92915050565b6000819050919050565b610bf381610be0565b8114610bfe57600080fd5b50565b600081359050610c1081610bea565b92915050565b60008060408385031215610c2d57610c2c610b7d565b5b6000610c3b85828601610bcb565b9250506020610c4c85828601610c01565b9150509250929050565b60008115159050919050565b610c6b81610c56565b82525050565b6000602082019050610c866000830184610c62565b92915050565b610c9581610be0565b82525050565b6000602082019050610cb06000830184610c8c565b92915050565b6000819050919050565b6000610cdb610cd6610cd184610b82565b610cb6565b610b82565b9050919050565b6000610ced82610cc0565b9050919050565b6000610cff82610ce2565b9050919050565b610d0f81610cf4565b82525050565b6000602082019050610d2a6000830184610d06565b92915050565b600080600060608486031215610d4957610d48610b7d565b5b6000610d5786828701610bcb565b9350506020610d6886828701610bcb565b9250506040610d7986828701610c01565b9150509250925092565b600060ff82169050919050565b610d9981610d83565b82525050565b6000602082019050610db46000830184610d90565b92915050565b600060208284031215610dd057610dcf610b7d565b5b6000610dde84828501610bcb565b91505092915050565b60008060408385031215610dfe57610dfd610b7d565b5b6000610e0c85828601610bcb565b9250506020610e1d85828601610bcb565b9150509250929050565b7f4e487b7100000000000000000000000000000000000000000000000000000000600052602260045260246000fd5b60006002820490506001821680610e6e57607f821691505b602082108103610e8157610e80610e27565b5b50919050565b7f4e487b7100000000000000000000000000000000000000000000000000000000600052601160045260246000fd5b6000610ec182610be0565b9150610ecc83610be0565b9250828201905080821115610ee457610ee3610e87565b5b92915050565b7f45524332303a2064656372656173656420616c6c6f77616e63652062656c6f7760008201527f207a65726f000000000000000000000000000000000000000000000000000000602082015250565b6000610f46602583610ad6565b9150610f5182610eea565b604082019050919050565b60006020820190508181036000830152610f7581610f39565b9050919050565b7f45524332303a20617070726f76652066726f6d20746865207a65726f2061646460008201527f7265737300000000000000000000000000000000000000000000000000000000602082015250565b6000610fd8602483610ad6565b9150610fe382610f7c565b604082019050919050565b6000602082019050818103600083015261100781610fcb565b9050919050565b7f45524332303a20617070726f766520746f20746865207a65726f20616464726560008201527f7373000000000000000000000000000000000000000000000000000000000000602082015250565b600061106a602283610ad6565b91506110758261100e565b604082019050919050565b600060208201905081810360008301526110998161105d565b9050919050565b7f45524332303a20696e73756666696369656e7420616c6c6f77616e6365000000600082015250565b60006110d6601d83610ad6565b91506110e1826110a0565b602082019050919050565b60006020820190508181036000830152611105816110c9565b9050919050565b7f45524332303a207472616e736665722066726f6d20746865207a65726f20616460008201527f6472657373000000000000000000000000000000000000000000000000000000602082015250565b6000611168602583610ad6565b91506111738261110c565b604082019050919050565b600060208201905081810360008301526111978161115b565b9050919050565b7f45524332303a207472616e7366657220746f20746865207a65726f206164647260008201527f6573730000000000000000000000000000000000000000000000000000000000602082015250565b60006111fa602383610ad6565b91506112058261119e565b604082019050919050565b60006020820190508181036000830152611229816111ed565b9050919050565b7f45524332303a207472616e7366657220616d6f756e742065786365656473206260008201527f616c616e63650000000000000000000000000000000000000000000000000000602082015250565b600061128c602683610ad6565b915061129782611230565b604082019050919050565b600060208201905081810360008301526112bb8161127f565b905091905056fea264697066735822122029341526e1723ffda294be88b20d363ec15e67ed5877bf5e463b3afcfe2b47e164736f6c63430008110033a2646970667358221220f19e24f9f075f684efc542ef8a6e4ac9c73803f5f4078ee92230c7d7abd6e82264736f6c63430008110033",
  "devdoc": {
    "author": "Bram Mathijssen",
    "details": "Currently under construction",
    "kind": "dev",
    "methods": {},
    "title": "A contract for parents to supply (pocket) money as a stream to their child(ren)",
    "version": 1
  },
  "userdoc": {
    "kind": "user",
    "methods": {
      "nextWeek()": {
        "notice": "testing -> safe to delete"
      },
      "setNextWeek()": {
        "notice": "testing -> safe to delete"
      },
      "test()": {
        "notice": "testing -> safe to delete"
      }
    },
    "notice": "This contract is used by both the parent as the children",
    "version": 1
  },
  "storageLayout": {
    "storage": [
      {
        "astId": 1369,
        "contract": "contracts/ParentContract.sol:ParentContract",
        "label": "owner",
        "offset": 0,
        "slot": "0",
        "type": "t_address"
      },
      {
        "astId": 1372,
        "contract": "contracts/ParentContract.sol:ParentContract",
        "label": "tokenCreator",
        "offset": 0,
        "slot": "1",
        "type": "t_contract(TokenCreator)2201"
      },
      {
        "astId": 1374,
        "contract": "contracts/ParentContract.sol:ParentContract",
        "label": "currentTime",
        "offset": 0,
        "slot": "2",
        "type": "t_uint256"
      },
      {
        "astId": 1376,
        "contract": "contracts/ParentContract.sol:ParentContract",
        "label": "contractDeployedTime",
        "offset": 0,
        "slot": "3",
        "type": "t_uint256"
      },
      {
        "astId": 1378,
        "contract": "contracts/ParentContract.sol:ParentContract",
        "label": "contractAddress",
        "offset": 0,
        "slot": "4",
        "type": "t_address"
      },
      {
        "astId": 1381,
        "contract": "contracts/ParentContract.sol:ParentContract",
        "label": "s_createdTokenAddresses",
        "offset": 0,
        "slot": "5",
        "type": "t_array(t_address)dyn_storage"
      },
      {
        "astId": 1387,
        "contract": "contracts/ParentContract.sol:ParentContract",
        "label": "parentToTokensMapping",
        "offset": 0,
        "slot": "6",
        "type": "t_mapping(t_address,t_array(t_struct(Token)1435_storage)dyn_storage)"
      },
      {
        "astId": 1393,
        "contract": "contracts/ParentContract.sol:ParentContract",
        "label": "parentToChildMapping",
        "offset": 0,
        "slot": "7",
        "type": "t_mapping(t_address,t_array(t_struct(Child)1426_storage)dyn_storage)"
      },
      {
        "astId": 1400,
        "contract": "contracts/ParentContract.sol:ParentContract",
        "label": "parentToChildMappingNested",
        "offset": 0,
        "slot": "8",
        "type": "t_mapping(t_address,t_mapping(t_address,t_struct(Child)1426_storage))"
      },
      {
        "astId": 1404,
        "contract": "contracts/ParentContract.sol:ParentContract",
        "label": "childToParentMapping",
        "offset": 0,
        "slot": "9",
        "type": "t_mapping(t_address,t_address)"
      },
      {
        "astId": 2158,
        "contract": "contracts/ParentContract.sol:ParentContract",
        "label": "nextWeek",
        "offset": 0,
        "slot": "10",
        "type": "t_uint256"
      }
    ],
    "types": {
      "t_address": {
        "encoding": "inplace",
        "label": "address",
        "numberOfBytes": "20"
      },
      "t_array(t_address)dyn_storage": {
        "base": "t_address",
        "encoding": "dynamic_array",
        "label": "address[]",
        "numberOfBytes": "32"
      },
      "t_array(t_struct(Child)1426_storage)dyn_storage": {
        "base": "t_struct(Child)1426_storage",
        "encoding": "dynamic_array",
        "label": "struct ParentContract.Child[]",
        "numberOfBytes": "32"
      },
      "t_array(t_struct(Token)1435_storage)dyn_storage": {
        "base": "t_struct(Token)1435_storage",
        "encoding": "dynamic_array",
        "label": "struct ParentContract.Token[]",
        "numberOfBytes": "32"
      },
      "t_bool": {
        "encoding": "inplace",
        "label": "bool",
        "numberOfBytes": "1"
      },
      "t_contract(TokenCreator)2201": {
        "encoding": "inplace",
        "label": "contract TokenCreator",
        "numberOfBytes": "20"
      },
      "t_enum(ClaimPeriod)1408": {
        "encoding": "inplace",
        "label": "enum ParentContract.ClaimPeriod",
        "numberOfBytes": "1"
      },
      "t_mapping(t_address,t_address)": {
        "encoding": "mapping",
        "key": "t_address",
        "label": "mapping(address => address)",
        "numberOfBytes": "32",
        "value": "t_address"
      },
      "t_mapping(t_address,t_array(t_struct(Child)1426_storage)dyn_storage)": {
        "encoding": "mapping",
        "key": "t_address",
        "label": "mapping(address => struct ParentContract.Child[])",
        "numberOfBytes": "32",
        "value": "t_array(t_struct(Child)1426_storage)dyn_storage"
      },
      "t_mapping(t_address,t_array(t_struct(Token)1435_storage)dyn_storage)": {
        "encoding": "mapping",
        "key": "t_address",
        "label": "mapping(address => struct ParentContract.Token[])",
        "numberOfBytes": "32",
        "value": "t_array(t_struct(Token)1435_storage)dyn_storage"
      },
      "t_mapping(t_address,t_mapping(t_address,t_struct(Child)1426_storage))": {
        "encoding": "mapping",
        "key": "t_address",
        "label": "mapping(address => mapping(address => struct ParentContract.Child))",
        "numberOfBytes": "32",
        "value": "t_mapping(t_address,t_struct(Child)1426_storage)"
      },
      "t_mapping(t_address,t_struct(Child)1426_storage)": {
        "encoding": "mapping",
        "key": "t_address",
        "label": "mapping(address => struct ParentContract.Child)",
        "numberOfBytes": "32",
        "value": "t_struct(Child)1426_storage"
      },
      "t_string_storage": {
        "encoding": "bytes",
        "label": "string",
        "numberOfBytes": "32"
      },
      "t_struct(Child)1426_storage": {
        "encoding": "inplace",
        "label": "struct ParentContract.Child",
        "members": [
          {
            "astId": 1410,
            "contract": "contracts/ParentContract.sol:ParentContract",
            "label": "name",
            "offset": 0,
            "slot": "0",
            "type": "t_string_storage"
          },
          {
            "astId": 1412,
            "contract": "contracts/ParentContract.sol:ParentContract",
            "label": "childAddress",
            "offset": 0,
            "slot": "1",
            "type": "t_address"
          },
          {
            "astId": 1414,
            "contract": "contracts/ParentContract.sol:ParentContract",
            "label": "tokenPreference",
            "offset": 0,
            "slot": "2",
            "type": "t_address"
          },
          {
            "astId": 1416,
            "contract": "contracts/ParentContract.sol:ParentContract",
            "label": "baseAmount",
            "offset": 0,
            "slot": "3",
            "type": "t_uint256"
          },
          {
            "astId": 1418,
            "contract": "contracts/ParentContract.sol:ParentContract",
            "label": "claimableAmount",
            "offset": 0,
            "slot": "4",
            "type": "t_uint256"
          },
          {
            "astId": 1420,
            "contract": "contracts/ParentContract.sol:ParentContract",
            "label": "claimValid",
            "offset": 0,
            "slot": "5",
            "type": "t_bool"
          },
          {
            "astId": 1423,
            "contract": "contracts/ParentContract.sol:ParentContract",
            "label": "claimPeriod",
            "offset": 1,
            "slot": "5",
            "type": "t_enum(ClaimPeriod)1408"
          },
          {
            "astId": 1425,
            "contract": "contracts/ParentContract.sol:ParentContract",
            "label": "nextClaimPeriod",
            "offset": 0,
            "slot": "6",
            "type": "t_uint256"
          }
        ],
        "numberOfBytes": "224"
      },
      "t_struct(Token)1435_storage": {
        "encoding": "inplace",
        "label": "struct ParentContract.Token",
        "members": [
          {
            "astId": 1428,
            "contract": "contracts/ParentContract.sol:ParentContract",
            "label": "supply",
            "offset": 0,
            "slot": "0",
            "type": "t_uint256"
          },
          {
            "astId": 1430,
            "contract": "contracts/ParentContract.sol:ParentContract",
            "label": "tokenAddress",
            "offset": 0,
            "slot": "1",
            "type": "t_address"
          },
          {
            "astId": 1432,
            "contract": "contracts/ParentContract.sol:ParentContract",
            "label": "name",
            "offset": 0,
            "slot": "2",
            "type": "t_string_storage"
          },
          {
            "astId": 1434,
            "contract": "contracts/ParentContract.sol:ParentContract",
            "label": "symbol",
            "offset": 0,
            "slot": "3",
            "type": "t_string_storage"
          }
        ],
        "numberOfBytes": "128"
      },
      "t_uint256": {
        "encoding": "inplace",
        "label": "uint256",
        "numberOfBytes": "32"
      }
    }
  }
}