{
  "address": "0x5FbDB2315678afecb367f032d93F642f64180aa3",
  "abi": [
    {
      "inputs": [],
      "stateMutability": "nonpayable",
      "type": "constructor"
    },
    {
      "inputs": [],
      "name": "NotOwnerOfToken",
      "type": "error"
    },
    {
      "anonymous": false,
      "inputs": [
        {
          "indexed": true,
          "internalType": "address",
          "name": "parentAddress",
          "type": "address"
        },
        {
          "indexed": false,
          "internalType": "address",
          "name": "childAddress",
          "type": "address"
        },
        {
          "components": [
            {
              "internalType": "string",
              "name": "name",
              "type": "string"
            },
            {
              "internalType": "address",
              "name": "childAddress",
              "type": "address"
            },
            {
              "internalType": "address",
              "name": "tokenPreference",
              "type": "address"
            },
            {
              "internalType": "uint256",
              "name": "baseAmount",
              "type": "uint256"
            },
            {
              "internalType": "uint256",
              "name": "claimableAmount",
              "type": "uint256"
            },
            {
              "internalType": "bool",
              "name": "claimValid",
              "type": "bool"
            },
            {
              "internalType": "enum ParentContract.ClaimPeriod",
              "name": "claimPeriod",
              "type": "uint8"
            },
            {
              "internalType": "uint256",
              "name": "nextClaimPeriod",
              "type": "uint256"
            }
          ],
          "indexed": false,
          "internalType": "struct ParentContract.Child",
          "name": "child",
          "type": "tuple"
        },
        {
          "indexed": false,
          "internalType": "address",
          "name": "tokenAddress",
          "type": "address"
        }
      ],
      "name": "AllowanceClaimed",
      "type": "event"
    },
    {
      "anonymous": false,
      "inputs": [
        {
          "indexed": true,
          "internalType": "address",
          "name": "parentAddress",
          "type": "address"
        },
        {
          "indexed": false,
          "internalType": "address",
          "name": "childAddress",
          "type": "address"
        },
        {
          "components": [
            {
              "internalType": "string",
              "name": "name",
              "type": "string"
            },
            {
              "internalType": "address",
              "name": "childAddress",
              "type": "address"
            },
            {
              "internalType": "address",
              "name": "tokenPreference",
              "type": "address"
            },
            {
              "internalType": "uint256",
              "name": "baseAmount",
              "type": "uint256"
            },
            {
              "internalType": "uint256",
              "name": "claimableAmount",
              "type": "uint256"
            },
            {
              "internalType": "bool",
              "name": "claimValid",
              "type": "bool"
            },
            {
              "internalType": "enum ParentContract.ClaimPeriod",
              "name": "claimPeriod",
              "type": "uint8"
            },
            {
              "internalType": "uint256",
              "name": "nextClaimPeriod",
              "type": "uint256"
            }
          ],
          "indexed": false,
          "internalType": "struct ParentContract.Child",
          "name": "child",
          "type": "tuple"
        }
      ],
      "name": "ChildAdded",
      "type": "event"
    },
    {
      "anonymous": false,
      "inputs": [
        {
          "indexed": true,
          "internalType": "address",
          "name": "parentAddress",
          "type": "address"
        },
        {
          "indexed": false,
          "internalType": "address",
          "name": "tokenAddress",
          "type": "address"
        },
        {
          "components": [
            {
              "internalType": "uint256",
              "name": "supply",
              "type": "uint256"
            },
            {
              "internalType": "address",
              "name": "tokenAddress",
              "type": "address"
            },
            {
              "internalType": "string",
              "name": "name",
              "type": "string"
            },
            {
              "internalType": "string",
              "name": "symbol",
              "type": "string"
            }
          ],
          "indexed": false,
          "internalType": "struct ParentContract.Token",
          "name": "token",
          "type": "tuple"
        }
      ],
      "name": "TokenCreated",
      "type": "event"
    },
    {
      "inputs": [
        {
          "internalType": "string",
          "name": "_name",
          "type": "string"
        },
        {
          "internalType": "address",
          "name": "_childAddress",
          "type": "address"
        },
        {
          "internalType": "address",
          "name": "_tokenPreference",
          "type": "address"
        },
        {
          "internalType": "uint256",
          "name": "_baseAmount",
          "type": "uint256"
        }
      ],
      "name": "addChild",
      "outputs": [],
      "stateMutability": "nonpayable",
      "type": "function"
    },
    {
      "inputs": [
        {
          "internalType": "uint256",
          "name": "_baseAmount",
          "type": "uint256"
        },
        {
          "internalType": "enum ParentContract.ClaimPeriod",
          "name": "_claimPeriod",
          "type": "uint8"
        }
      ],
      "name": "calculateClaimableAmount",
      "outputs": [
        {
          "internalType": "uint256",
          "name": "",
          "type": "uint256"
        }
      ],
      "stateMutability": "pure",
      "type": "function"
    },
    {
      "inputs": [
        {
          "internalType": "address",
          "name": "",
          "type": "address"
        }
      ],
      "name": "childToParentMapping",
      "outputs": [
        {
          "internalType": "address",
          "name": "",
          "type": "address"
        }
      ],
      "stateMutability": "view",
      "type": "function"
    },
    {
      "inputs": [
        {
          "internalType": "contract IERC20",
          "name": "token",
          "type": "address"
        },
        {
          "internalType": "address",
          "name": "_tokenToBeClaimed",
          "type": "address"
        }
      ],
      "name": "claim",
      "outputs": [],
      "stateMutability": "nonpayable",
      "type": "function"
    },
    {
      "inputs": [],
      "name": "contractDeployedTime",
      "outputs": [
        {
          "internalType": "uint256",
          "name": "",
          "type": "uint256"
        }
      ],
      "stateMutability": "view",
      "type": "function"
    },
    {
      "inputs": [
        {
          "internalType": "uint256",
          "name": "_supply",
          "type": "uint256"
        },
        {
          "internalType": "string",
          "name": "_contractName",
          "type": "string"
        },
        {
          "internalType": "string",
          "name": "_contractSymbol",
          "type": "string"
        }
      ],
      "name": "createNewToken",
      "outputs": [],
      "stateMutability": "nonpayable",
      "type": "function"
    },
    {
      "inputs": [],
      "name": "currentTime",
      "outputs": [
        {
          "internalType": "uint256",
          "name": "",
          "type": "uint256"
        }
      ],
      "stateMutability": "view",
      "type": "function"
    },
    {
      "inputs": [
        {
          "internalType": "contract IERC20",
          "name": "token",
          "type": "address"
        }
      ],
      "name": "getBalanceTest",
      "outputs": [
        {
          "internalType": "uint256",
          "name": "",
          "type": "uint256"
        }
      ],
      "stateMutability": "view",
      "type": "function"
    },
    {
      "inputs": [],
      "name": "getChildsNextClaimPeriod",
      "outputs": [
        {
          "internalType": "uint256",
          "name": "",
          "type": "uint256"
        },
        {
          "internalType": "enum ParentContract.ClaimPeriod",
          "name": "",
          "type": "uint8"
        }
      ],
      "stateMutability": "view",
      "type": "function"
    },
    {
      "inputs": [],
      "name": "getChildsParent",
      "outputs": [
        {
          "internalType": "address",
          "name": "",
          "type": "address"
        }
      ],
      "stateMutability": "view",
      "type": "function"
    },
    {
      "inputs": [],
      "name": "getCurrentTime",
      "outputs": [
        {
          "internalType": "uint256",
          "name": "",
          "type": "uint256"
        }
      ],
      "stateMutability": "view",
      "type": "function"
    },
    {
      "inputs": [],
      "name": "nextWeek",
      "outputs": [
        {
          "internalType": "uint256",
          "name": "",
          "type": "uint256"
        }
      ],
      "stateMutability": "view",
      "type": "function"
    },
    {
      "inputs": [],
      "name": "owner",
      "outputs": [
        {
          "internalType": "address",
          "name": "",
          "type": "address"
        }
      ],
      "stateMutability": "view",
      "type": "function"
    },
    {
      "inputs": [
        {
          "internalType": "address",
          "name": "",
          "type": "address"
        },
        {
          "internalType": "uint256",
          "name": "",
          "type": "uint256"
        }
      ],
      "name": "parentToChildMapping",
      "outputs": [
        {
          "internalType": "string",
          "name": "name",
          "type": "string"
        },
        {
          "internalType": "address",
          "name": "childAddress",
          "type": "address"
        },
        {
          "internalType": "address",
          "name": "tokenPreference",
          "type": "address"
        },
        {
          "internalType": "uint256",
          "name": "baseAmount",
          "type": "uint256"
        },
        {
          "internalType": "uint256",
          "name": "claimableAmount",
          "type": "uint256"
        },
        {
          "internalType": "bool",
          "name": "claimValid",
          "type": "bool"
        },
        {
          "internalType": "enum ParentContract.ClaimPeriod",
          "name": "claimPeriod",
          "type": "uint8"
        },
        {
          "internalType": "uint256",
          "name": "nextClaimPeriod",
          "type": "uint256"
        }
      ],
      "stateMutability": "view",
      "type": "function"
    },
    {
      "inputs": [
        {
          "internalType": "address",
          "name": "",
          "type": "address"
        },
        {
          "internalType": "address",
          "name": "",
          "type": "address"
        }
      ],
      "name": "parentToChildMappingNested",
      "outputs": [
        {
          "internalType": "string",
          "name": "name",
          "type": "string"
        },
        {
          "internalType": "address",
          "name": "childAddress",
          "type": "address"
        },
        {
          "internalType": "address",
          "name": "tokenPreference",
          "type": "address"
        },
        {
          "internalType": "uint256",
          "name": "baseAmount",
          "type": "uint256"
        },
        {
          "internalType": "uint256",
          "name": "claimableAmount",
          "type": "uint256"
        },
        {
          "internalType": "bool",
          "name": "claimValid",
          "type": "bool"
        },
        {
          "internalType": "enum ParentContract.ClaimPeriod",
          "name": "claimPeriod",
          "type": "uint8"
        },
        {
          "internalType": "uint256",
          "name": "nextClaimPeriod",
          "type": "uint256"
        }
      ],
      "stateMutability": "view",
      "type": "function"
    },
    {
      "inputs": [
        {
          "internalType": "address",
          "name": "",
          "type": "address"
        },
        {
          "internalType": "uint256",
          "name": "",
          "type": "uint256"
        }
      ],
      "name": "parentToTokensMapping",
      "outputs": [
        {
          "internalType": "uint256",
          "name": "supply",
          "type": "uint256"
        },
        {
          "internalType": "address",
          "name": "tokenAddress",
          "type": "address"
        },
        {
          "internalType": "string",
          "name": "name",
          "type": "string"
        },
        {
          "internalType": "string",
          "name": "symbol",
          "type": "string"
        }
      ],
      "stateMutability": "view",
      "type": "function"
    },
    {
      "inputs": [
        {
          "internalType": "uint256",
          "name": "",
          "type": "uint256"
        }
      ],
      "name": "s_createdTokenAddresses",
      "outputs": [
        {
          "internalType": "address",
          "name": "",
          "type": "address"
        }
      ],
      "stateMutability": "view",
      "type": "function"
    },
    {
      "inputs": [],
      "name": "setChildClaimMomentDaily",
      "outputs": [],
      "stateMutability": "nonpayable",
      "type": "function"
    },
    {
      "inputs": [],
      "name": "setChildClaimMomentMonthly",
      "outputs": [],
      "stateMutability": "nonpayable",
      "type": "function"
    },
    {
      "inputs": [],
      "name": "setChildClaimMomentWeekly",
      "outputs": [],
      "stateMutability": "nonpayable",
      "type": "function"
    },
    {
      "inputs": [],
      "name": "setNextWeek",
      "outputs": [],
      "stateMutability": "nonpayable",
      "type": "function"
    },
    {
      "inputs": [],
      "name": "test",
      "outputs": [
        {
          "internalType": "address",
          "name": "",
          "type": "address"
        }
      ],
      "stateMutability": "view",
      "type": "function"
    },
    {
      "inputs": [],
      "name": "tokenCreator",
      "outputs": [
        {
          "internalType": "contract TokenCreator",
          "name": "",
          "type": "address"
        }
      ],
      "stateMutability": "view",
      "type": "function"
    }
  ],
  "transactionHash": "0xa23b1cae8394b691c2dc867f567860247d44518f68aa87eba63475c78712af49",
  "args": [],
  "numDeployments": 1,
  "solcInputHash": "958c80df66dddef84f557b22b5d0b9d6",
  "bytecode": "0x608060405234801561001057600080fd5b50336000806101000a81548173ffffffffffffffffffffffffffffffffffffffff021916908373ffffffffffffffffffffffffffffffffffffffff160217905550615789806100606000396000f3fe60806040523480156200001157600080fd5b50600436106200016c5760003560e01c8063a64cbab611620000d5578063db84252c1162000087578063db84252c14620003ca578063e1727fc614620003ec578063f1f77312146200040e578063f8a8fd6d146200042e578063fbabcdd31462000450578063fd7364b71462000489576200016c565b8063a64cbab61462000315578063b0f7246b1462000321578063ca7b00721462000344578063d0bd42611462000350578063d18e81b31462000386578063da3e24f914620003a8576200016c565b806354ed78f1116200012f57806354ed78f1146200023257806376aa835f146200023e5780637a4e6c7614620002745780638da5cb5b14620002b15780639060def914620002d35780639ca4ec5914620002df576200016c565b80630590b377146200017157806321c0b342146200019157806321f0020814620001b157806327689d8214620001ee57806329cb924d1462000210575b600080fd5b6200018f60048036038101906200018991906200282e565b620004bf565b005b620001af6004803603810190620001a9919062002904565b62000d35565b005b620001cf6004803603810190620001c991906200294b565b62001493565b604051620001e598979695949392919062002ada565b60405180910390f35b620001f8620015e3565b60405162000207919062002b6f565b60405180910390f35b6200021a6200164f565b60405162000229919062002b8c565b60405180910390f35b6200023c62001657565b005b6200025c600480360381019062000256919062002ba9565b62001670565b6040516200026b919062002b8c565b60405180910390f35b6200029260048036038101906200028c919062002bdb565b620016fd565b604051620002a898979695949392919062002ada565b60405180910390f35b620002bb6200183c565b604051620002ca919062002b6f565b60405180910390f35b620002dd62001860565b005b620002fd6004803603810190620002f7919062002c4a565b62001944565b6040516200030c919062002b8c565b60405180910390f35b6200031f62001a7e565b005b6200032b62001b62565b6040516200033b92919062002c91565b60405180910390f35b6200034e62001ddf565b005b6200036e600480360381019062000368919062002cbe565b62001ec3565b6040516200037d919062002b6f565b60405180910390f35b6200039062001ef6565b6040516200039f919062002b8c565b60405180910390f35b620003b262001efc565b604051620003c1919062002b8c565b60405180910390f35b620003d462001f02565b604051620003e3919062002d5b565b60405180910390f35b620003f662001f28565b60405162000405919062002b8c565b60405180910390f35b6200042c600480360381019062000426919062002d78565b62001f2e565b005b6200043862002188565b60405162000447919062002b6f565b60405180910390f35b6200046e60048036038101906200046891906200294b565b62002190565b60405162000480949392919062002e12565b60405180910390f35b620004a76004803603810190620004a1919062002e6d565b6200231e565b604051620004b6919062002b6f565b60405180910390f35b816000600560003373ffffffffffffffffffffffffffffffffffffffff1673ffffffffffffffffffffffffffffffffffffffff168152602001908152602001600020805480602002602001604051908101604052809291908181526020016000905b82821015620006e95783829060005260206000209060040201604051806080016040529081600082015481526020016001820160009054906101000a900473ffffffffffffffffffffffffffffffffffffffff1673ffffffffffffffffffffffffffffffffffffffff1673ffffffffffffffffffffffffffffffffffffffff168152602001600282018054620005b79062002ece565b80601f0160208091040260200160405190810160405280929190818152602001828054620005e59062002ece565b8015620006365780601f106200060a5761010080835404028352916020019162000636565b820191906000526020600020905b8154815290600101906020018083116200061857829003601f168201915b50505050508152602001600382018054620006519062002ece565b80601f01602080910402602001604051908101604052809291908181526020018280546200067f9062002ece565b8015620006d05780601f10620006a457610100808354040283529160200191620006d0565b820191906000526020600020905b815481529060010190602001808311620006b257829003601f168201915b5050505050815250508152602001906001019062000521565b5050505090506000805b825181101562000815576200073e6040518060400160405280600981526020017f6c6f6f70696e673a200000000000000000000000000000000000000000000000815250826200235e565b8373ffffffffffffffffffffffffffffffffffffffff168382815181106200076b576200076a62002f03565b5b60200260200101516020015173ffffffffffffffffffffffffffffffffffffffff1603620007ff57620007f56040518060400160405280601281526020017f746f6b656e207769746820616464726573730000000000000000000000000000815250848381518110620007e357620007e262002f03565b5b602002602001015160200151620023fe565b6001915062000815565b80806200080c9062002f61565b915050620006f3565b50806200088e576200085c6040518060400160405280601281526020017f546f6b656e206e6f7420666f756e64203a2800000000000000000000000000008152506200249e565b6040517f4c084f1400000000000000000000000000000000000000000000000000000000815260040160405180910390fd5b600062093a806200089e6200164f565b620008aa919062002fae565b90506000620008bb86600162001944565b905060006040518061010001604052808b81526020018a73ffffffffffffffffffffffffffffffffffffffff1681526020018973ffffffffffffffffffffffffffffffffffffffff1681526020018881526020018381526020016000151581526020016001600281111562000935576200093462002a5a565b5b8152602001848152509050600660003373ffffffffffffffffffffffffffffffffffffffff1673ffffffffffffffffffffffffffffffffffffffff1681526020019081526020016000208190806001815401808255809150506001900390600052602060002090600702016000909190919091506000820151816000019081620009c09190620031b1565b5060208201518160010160006101000a81548173ffffffffffffffffffffffffffffffffffffffff021916908373ffffffffffffffffffffffffffffffffffffffff16021790555060408201518160020160006101000a81548173ffffffffffffffffffffffffffffffffffffffff021916908373ffffffffffffffffffffffffffffffffffffffff160217905550606082015181600301556080820151816004015560a08201518160050160006101000a81548160ff02191690831515021790555060c08201518160050160016101000a81548160ff0219169083600281111562000ab15762000ab062002a5a565b5b021790555060e08201518160060155505080600760003373ffffffffffffffffffffffffffffffffffffffff1673ffffffffffffffffffffffffffffffffffffffff16815260200190815260200160002060008b73ffffffffffffffffffffffffffffffffffffffff1673ffffffffffffffffffffffffffffffffffffffff168152602001908152602001600020600082015181600001908162000b569190620031b1565b5060208201518160010160006101000a81548173ffffffffffffffffffffffffffffffffffffffff021916908373ffffffffffffffffffffffffffffffffffffffff16021790555060408201518160020160006101000a81548173ffffffffffffffffffffffffffffffffffffffff021916908373ffffffffffffffffffffffffffffffffffffffff160217905550606082015181600301556080820151816004015560a08201518160050160006101000a81548160ff02191690831515021790555060c08201518160050160016101000a81548160ff0219169083600281111562000c475762000c4662002a5a565b5b021790555060e0820151816006015590505033600860008b73ffffffffffffffffffffffffffffffffffffffff1673ffffffffffffffffffffffffffffffffffffffff16815260200190815260200160002060006101000a81548173ffffffffffffffffffffffffffffffffffffffff021916908373ffffffffffffffffffffffffffffffffffffffff1602179055503373ffffffffffffffffffffffffffffffffffffffff167f1d02b79871d7f08ec350cd2c9d6733dee2f61f43e9c8e7a6f7ac1da467b49f278a8360405162000d21929190620033ee565b60405180910390a250505050505050505050565b60008062000d426200164f565b90506000600860003373ffffffffffffffffffffffffffffffffffffffff1673ffffffffffffffffffffffffffffffffffffffff16815260200190815260200160002060009054906101000a900473ffffffffffffffffffffffffffffffffffffffff1690506000600560008373ffffffffffffffffffffffffffffffffffffffff1673ffffffffffffffffffffffffffffffffffffffff168152602001908152602001600020805480602002602001604051908101604052809291908181526020016000905b8282101562000fd15783829060005260206000209060040201604051806080016040529081600082015481526020016001820160009054906101000a900473ffffffffffffffffffffffffffffffffffffffff1673ffffffffffffffffffffffffffffffffffffffff1673ffffffffffffffffffffffffffffffffffffffff16815260200160028201805462000e9f9062002ece565b80601f016020809104026020016040519081016040528092919081815260200182805462000ecd9062002ece565b801562000f1e5780601f1062000ef25761010080835404028352916020019162000f1e565b820191906000526020600020905b81548152906001019060200180831162000f0057829003601f168201915b5050505050815260200160038201805462000f399062002ece565b80601f016020809104026020016040519081016040528092919081815260200182805462000f679062002ece565b801562000fb85780601f1062000f8c5761010080835404028352916020019162000fb8565b820191906000526020600020905b81548152906001019060200180831162000f9a57829003601f168201915b5050505050815250508152602001906001019062000e09565b50505050905060005b815181101562001054578573ffffffffffffffffffffffffffffffffffffffff1682828151811062001011576200101062002f03565b5b60200260200101516020015173ffffffffffffffffffffffffffffffffffffffff16036200103e57600194505b80806200104b9062002f61565b91505062000fda565b5060011515841515146200109f576040517f08c379a0000000000000000000000000000000000000000000000000000000008152600401620010969062003498565b60405180910390fd5b6000600760008473ffffffffffffffffffffffffffffffffffffffff1673ffffffffffffffffffffffffffffffffffffffff16815260200190815260200160002060003373ffffffffffffffffffffffffffffffffffffffff1673ffffffffffffffffffffffffffffffffffffffff16815260200190815260200160002090506200119b6040518060400160405280600d81526020017f63757272656e742074696d653a00000000000000000000000000000000000000815250856040518060400160405280601881526020017f2e204e65787420436c61696d20706572696f642069733a20000000000000000081525084600601546200253b565b806006015484106200120557620011e76040518060400160405280600d81526020017f436c61696d2056616c69642120000000000000000000000000000000000000008152506200249e565b60018160050160006101000a81548160ff0219169083151502179055505b600115158160050160009054906101000a900460ff1615151462001260576040517f08c379a0000000000000000000000000000000000000000000000000000000008152600401620012579062003530565b60405180910390fd5b60008160050160006101000a81548160ff0219169083151502179055506000600281111562001294576200129362002a5a565b5b8160050160019054906101000a900460ff166002811115620012bb57620012ba62002a5a565b5b03620012e457620151808160060154620012d6919062002fae565b8160060181905550620013ae565b60016002811115620012fb57620012fa62002a5a565b5b8160050160019054906101000a900460ff16600281111562001322576200132162002a5a565b5b036200134b5762093a8081600601546200133d919062002fae565b8160060181905550620013ad565b60028081111562001361576200136062002a5a565b5b8160050160019054906101000a900460ff16600281111562001388576200138762002a5a565b5b03620013ac576224ea008160060154620013a3919062002fae565b81600601819055505b5b5b8673ffffffffffffffffffffffffffffffffffffffff1663a9059cbb3383600401546040518363ffffffff1660e01b8152600401620013ef92919062003552565b6020604051808303816000875af11580156200140f573d6000803e3d6000fd5b505050506040513d601f19601f82011682018060405250810190620014359190620035b0565b508273ffffffffffffffffffffffffffffffffffffffff167f50b888ba4b0bc55bba4f96adc25d14617d82805a959de470e1b6c91c2913b05733838960405162001482939291906200385d565b60405180910390a250505050505050565b60066020528160005260406000208181548110620014b057600080fd5b906000526020600020906007020160009150915050806000018054620014d69062002ece565b80601f0160208091040260200160405190810160405280929190818152602001828054620015049062002ece565b8015620015555780601f10620015295761010080835404028352916020019162001555565b820191906000526020600020905b8154815290600101906020018083116200153757829003601f168201915b5050505050908060010160009054906101000a900473ffffffffffffffffffffffffffffffffffffffff16908060020160009054906101000a900473ffffffffffffffffffffffffffffffffffffffff16908060030154908060040154908060050160009054906101000a900460ff16908060050160019054906101000a900460ff16908060060154905088565b600080600860003373ffffffffffffffffffffffffffffffffffffffff1673ffffffffffffffffffffffffffffffffffffffff16815260200190815260200160002060009054906101000a900473ffffffffffffffffffffffffffffffffffffffff1690508091505090565b600042905090565b62093a804262001668919062002fae565b600981905550565b6000808273ffffffffffffffffffffffffffffffffffffffff166370a08231336040518263ffffffff1660e01b8152600401620016ae919062002b6f565b602060405180830381865afa158015620016cc573d6000803e3d6000fd5b505050506040513d601f19601f82011682018060405250810190620016f29190620038b8565b905080915050919050565b6007602052816000526040600020602052806000526040600020600091509150508060000180546200172f9062002ece565b80601f01602080910402602001604051908101604052809291908181526020018280546200175d9062002ece565b8015620017ae5780601f106200178257610100808354040283529160200191620017ae565b820191906000526020600020905b8154815290600101906020018083116200179057829003601f168201915b5050505050908060010160009054906101000a900473ffffffffffffffffffffffffffffffffffffffff16908060020160009054906101000a900473ffffffffffffffffffffffffffffffffffffffff16908060030154908060040154908060050160009054906101000a900460ff16908060050160019054906101000a900460ff16908060060154905088565b60008054906101000a900473ffffffffffffffffffffffffffffffffffffffff1681565b60006200186c620015e3565b90506000600760008373ffffffffffffffffffffffffffffffffffffffff1673ffffffffffffffffffffffffffffffffffffffff16815260200190815260200160002060003373ffffffffffffffffffffffffffffffffffffffff1673ffffffffffffffffffffffffffffffffffffffff168152602001908152602001600020905060018160050160016101000a81548160ff0219169083600281111562001919576200191862002a5a565b5b021790555062093a806200192c6200164f565b62001938919062002fae565b81600601819055505050565b600080600060028111156200195e576200195d62002a5a565b5b83600281111562001974576200197362002a5a565b5b03620019c0576000600a6064866200198d919062003919565b62001999919062003951565b85620019a691906200399c565b9050600781620019b7919062003919565b91505062001a74565b60016002811115620019d757620019d662002a5a565b5b836002811115620019ed57620019ec62002a5a565b5b03620019fc5783905062001a73565b60028081111562001a125762001a1162002a5a565b5b83600281111562001a285762001a2762002a5a565b5b0362001a72576000600a60648662001a41919062003919565b62001a4d919062003951565b8562001a5a919062002fae565b915081905060048162001a6e919062003951565b9150505b5b5b8091505092915050565b600062001a8a620015e3565b90506000600760008373ffffffffffffffffffffffffffffffffffffffff1673ffffffffffffffffffffffffffffffffffffffff16815260200190815260200160002060003373ffffffffffffffffffffffffffffffffffffffff1673ffffffffffffffffffffffffffffffffffffffff168152602001908152602001600020905060028160050160016101000a81548160ff0219169083600281111562001b375762001b3662002a5a565b5b02179055506224ea0062001b4a6200164f565b62001b56919062002fae565b81600601819055505050565b600080600062001b71620015e3565b90506000600760008373ffffffffffffffffffffffffffffffffffffffff1673ffffffffffffffffffffffffffffffffffffffff16815260200190815260200160002060003373ffffffffffffffffffffffffffffffffffffffff1673ffffffffffffffffffffffffffffffffffffffff1681526020019081526020016000206040518061010001604052908160008201805462001c0f9062002ece565b80601f016020809104026020016040519081016040528092919081815260200182805462001c3d9062002ece565b801562001c8e5780601f1062001c625761010080835404028352916020019162001c8e565b820191906000526020600020905b81548152906001019060200180831162001c7057829003601f168201915b505050505081526020016001820160009054906101000a900473ffffffffffffffffffffffffffffffffffffffff1673ffffffffffffffffffffffffffffffffffffffff1673ffffffffffffffffffffffffffffffffffffffff1681526020016002820160009054906101000a900473ffffffffffffffffffffffffffffffffffffffff1673ffffffffffffffffffffffffffffffffffffffff1673ffffffffffffffffffffffffffffffffffffffff16815260200160038201548152602001600482015481526020016005820160009054906101000a900460ff161515151581526020016005820160019054906101000a900460ff16600281111562001d9a5762001d9962002a5a565b5b600281111562001daf5762001dae62002a5a565b5b8152602001600682015481525050905060008160e00151905060008260c001519050818195509550505050509091565b600062001deb620015e3565b90506000600760008373ffffffffffffffffffffffffffffffffffffffff1673ffffffffffffffffffffffffffffffffffffffff16815260200190815260200160002060003373ffffffffffffffffffffffffffffffffffffffff1673ffffffffffffffffffffffffffffffffffffffff168152602001908152602001600020905060008160050160016101000a81548160ff0219169083600281111562001e985762001e9762002a5a565b5b02179055506201518062001eab6200164f565b62001eb7919062002fae565b81600601819055505050565b60086020528060005260406000206000915054906101000a900473ffffffffffffffffffffffffffffffffffffffff1681565b60025481565b60095481565b600160009054906101000a900473ffffffffffffffffffffffffffffffffffffffff1681565b60035481565b600083838360405162001f41906200260a565b62001f4f93929190620039d7565b604051809103906000f08015801562001f6c573d6000803e3d6000fd5b5090506004819080600181540180825580915050600190039060005260206000200160009091909190916101000a81548173ffffffffffffffffffffffffffffffffffffffff021916908373ffffffffffffffffffffffffffffffffffffffff160217905550600060405180608001604052808681526020018373ffffffffffffffffffffffffffffffffffffffff168152602001858152602001848152509050600560003373ffffffffffffffffffffffffffffffffffffffff1673ffffffffffffffffffffffffffffffffffffffff16815260200190815260200160002060405180608001604052808781526020018473ffffffffffffffffffffffffffffffffffffffff1681526020018681526020018581525090806001815401808255809150506001900390600052602060002090600402016000909190919091506000820151816000015560208201518160010160006101000a81548173ffffffffffffffffffffffffffffffffffffffff021916908373ffffffffffffffffffffffffffffffffffffffff1602179055506040820151816002019081620021149190620031b1565b5060608201518160030190816200212c9190620031b1565b5050503373ffffffffffffffffffffffffffffffffffffffff167f8503319bc0664c6e8544b25c2ff39ffb8c04ec72daf3e0619230f33ba87526c583836040516200217992919062003a94565b60405180910390a25050505050565b600033905090565b60056020528160005260406000208181548110620021ad57600080fd5b9060005260206000209060040201600091509150508060000154908060010160009054906101000a900473ffffffffffffffffffffffffffffffffffffffff1690806002018054620021ff9062002ece565b80601f01602080910402602001604051908101604052809291908181526020018280546200222d9062002ece565b80156200227e5780601f1062002252576101008083540402835291602001916200227e565b820191906000526020600020905b8154815290600101906020018083116200226057829003601f168201915b505050505090806003018054620022959062002ece565b80601f0160208091040260200160405190810160405280929190818152602001828054620022c39062002ece565b8015620023145780601f10620022e85761010080835404028352916020019162002314565b820191906000526020600020905b815481529060010190602001808311620022f657829003601f168201915b5050505050905084565b600481815481106200232f57600080fd5b906000526020600020016000915054906101000a900473ffffffffffffffffffffffffffffffffffffffff1681565b620023fa82826040516024016200237792919062003ac8565b6040516020818303038152906040527fb60e72cc000000000000000000000000000000000000000000000000000000007bffffffffffffffffffffffffffffffffffffffffffffffffffffffff19166020820180517bffffffffffffffffffffffffffffffffffffffffffffffffffffffff8381831617835250505050620025e1565b5050565b6200249a82826040516024016200241792919062003afc565b6040516020818303038152906040527f319af333000000000000000000000000000000000000000000000000000000007bffffffffffffffffffffffffffffffffffffffffffffffffffffffff19166020820180517bffffffffffffffffffffffffffffffffffffffffffffffffffffffff8381831617835250505050620025e1565b5050565b6200253881604051602401620024b5919062003b30565b6040516020818303038152906040527f41304fac000000000000000000000000000000000000000000000000000000007bffffffffffffffffffffffffffffffffffffffffffffffffffffffff19166020820180517bffffffffffffffffffffffffffffffffffffffffffffffffffffffff8381831617835250505050620025e1565b50565b620025db8484848460405160240162002558949392919062003b54565b6040516020818303038152906040527fc67ea9d1000000000000000000000000000000000000000000000000000000007bffffffffffffffffffffffffffffffffffffffffffffffffffffffff19166020820180517bffffffffffffffffffffffffffffffffffffffffffffffffffffffff8381831617835250505050620025e1565b50505050565b60008151905060006a636f6e736f6c652e6c6f679050602083016000808483855afa5050505050565b611ba48062003bb083390190565b6000604051905090565b600080fd5b600080fd5b600080fd5b600080fd5b6000601f19601f8301169050919050565b7f4e487b7100000000000000000000000000000000000000000000000000000000600052604160045260246000fd5b620026818262002636565b810181811067ffffffffffffffff82111715620026a357620026a262002647565b5b80604052505050565b6000620026b862002618565b9050620026c6828262002676565b919050565b600067ffffffffffffffff821115620026e957620026e862002647565b5b620026f48262002636565b9050602081019050919050565b82818337600083830152505050565b6000620027276200272184620026cb565b620026ac565b90508281526020810184848401111562002746576200274562002631565b5b6200275384828562002701565b509392505050565b600082601f8301126200277357620027726200262c565b5b81356200278584826020860162002710565b91505092915050565b600073ffffffffffffffffffffffffffffffffffffffff82169050919050565b6000620027bb826200278e565b9050919050565b620027cd81620027ae565b8114620027d957600080fd5b50565b600081359050620027ed81620027c2565b92915050565b6000819050919050565b6200280881620027f3565b81146200281457600080fd5b50565b6000813590506200282881620027fd565b92915050565b600080600080608085870312156200284b576200284a62002622565b5b600085013567ffffffffffffffff8111156200286c576200286b62002627565b5b6200287a878288016200275b565b94505060206200288d87828801620027dc565b9350506040620028a087828801620027dc565b9250506060620028b38782880162002817565b91505092959194509250565b6000620028cc82620027ae565b9050919050565b620028de81620028bf565b8114620028ea57600080fd5b50565b600081359050620028fe81620028d3565b92915050565b600080604083850312156200291e576200291d62002622565b5b60006200292e85828601620028ed565b92505060206200294185828601620027dc565b9150509250929050565b6000806040838503121562002965576200296462002622565b5b60006200297585828601620027dc565b9250506020620029888582860162002817565b9150509250929050565b600081519050919050565b600082825260208201905092915050565b60005b83811015620029ce578082015181840152602081019050620029b1565b60008484015250505050565b6000620029e78262002992565b620029f381856200299d565b935062002a05818560208601620029ae565b62002a108162002636565b840191505092915050565b62002a2681620027ae565b82525050565b62002a3781620027f3565b82525050565b60008115159050919050565b62002a548162002a3d565b82525050565b7f4e487b7100000000000000000000000000000000000000000000000000000000600052602160045260246000fd5b6003811062002a9d5762002a9c62002a5a565b5b50565b600081905062002ab08262002a89565b919050565b600062002ac28262002aa0565b9050919050565b62002ad48162002ab5565b82525050565b600061010082019050818103600083015262002af7818b620029da565b905062002b08602083018a62002a1b565b62002b17604083018962002a1b565b62002b26606083018862002a2c565b62002b35608083018762002a2c565b62002b4460a083018662002a49565b62002b5360c083018562002ac9565b62002b6260e083018462002a2c565b9998505050505050505050565b600060208201905062002b86600083018462002a1b565b92915050565b600060208201905062002ba3600083018462002a2c565b92915050565b60006020828403121562002bc25762002bc162002622565b5b600062002bd284828501620028ed565b91505092915050565b6000806040838503121562002bf55762002bf462002622565b5b600062002c0585828601620027dc565b925050602062002c1885828601620027dc565b9150509250929050565b6003811062002c3057600080fd5b50565b60008135905062002c448162002c22565b92915050565b6000806040838503121562002c645762002c6362002622565b5b600062002c748582860162002817565b925050602062002c878582860162002c33565b9150509250929050565b600060408201905062002ca8600083018562002a2c565b62002cb7602083018462002ac9565b9392505050565b60006020828403121562002cd75762002cd662002622565b5b600062002ce784828501620027dc565b91505092915050565b6000819050919050565b600062002d1b62002d1562002d0f846200278e565b62002cf0565b6200278e565b9050919050565b600062002d2f8262002cfa565b9050919050565b600062002d438262002d22565b9050919050565b62002d558162002d36565b82525050565b600060208201905062002d72600083018462002d4a565b92915050565b60008060006060848603121562002d945762002d9362002622565b5b600062002da48682870162002817565b935050602084013567ffffffffffffffff81111562002dc85762002dc762002627565b5b62002dd6868287016200275b565b925050604084013567ffffffffffffffff81111562002dfa5762002df962002627565b5b62002e08868287016200275b565b9150509250925092565b600060808201905062002e29600083018762002a2c565b62002e38602083018662002a1b565b818103604083015262002e4c8185620029da565b9050818103606083015262002e628184620029da565b905095945050505050565b60006020828403121562002e865762002e8562002622565b5b600062002e968482850162002817565b91505092915050565b7f4e487b7100000000000000000000000000000000000000000000000000000000600052602260045260246000fd5b6000600282049050600182168062002ee757607f821691505b60208210810362002efd5762002efc62002e9f565b5b50919050565b7f4e487b7100000000000000000000000000000000000000000000000000000000600052603260045260246000fd5b7f4e487b7100000000000000000000000000000000000000000000000000000000600052601160045260246000fd5b600062002f6e82620027f3565b91507fffffffffffffffffffffffffffffffffffffffffffffffffffffffffffffffff820362002fa35762002fa262002f32565b5b600182019050919050565b600062002fbb82620027f3565b915062002fc883620027f3565b925082820190508082111562002fe35762002fe262002f32565b5b92915050565b60008190508160005260206000209050919050565b60006020601f8301049050919050565b600082821b905092915050565b6000600883026200304d7fffffffffffffffffffffffffffffffffffffffffffffffffffffffffffffffff826200300e565b6200305986836200300e565b95508019841693508086168417925050509392505050565b6000620030926200308c6200308684620027f3565b62002cf0565b620027f3565b9050919050565b6000819050919050565b620030ae8362003071565b620030c6620030bd8262003099565b8484546200301b565b825550505050565b600090565b620030dd620030ce565b620030ea818484620030a3565b505050565b5b81811015620031125762003106600082620030d3565b600181019050620030f0565b5050565b601f82111562003161576200312b8162002fe9565b620031368462002ffe565b8101602085101562003146578190505b6200315e620031558562002ffe565b830182620030ef565b50505b505050565b600082821c905092915050565b6000620031866000198460080262003166565b1980831691505092915050565b6000620031a1838362003173565b9150826002028217905092915050565b620031bc8262002992565b67ffffffffffffffff811115620031d857620031d762002647565b5b620031e4825462002ece565b620031f182828562003116565b600060209050601f83116001811462003229576000841562003214578287015190505b62003220858262003193565b86555062003290565b601f198416620032398662002fe9565b60005b8281101562003263578489015182556001820191506020850194506020810190506200323c565b868310156200328357848901516200327f601f89168262003173565b8355505b6001600288020188555050505b505050505050565b600082825260208201905092915050565b6000620032b68262002992565b620032c2818562003298565b9350620032d4818560208601620029ae565b620032df8162002636565b840191505092915050565b620032f581620027ae565b82525050565b6200330681620027f3565b82525050565b620033178162002a3d565b82525050565b620033288162002ab5565b82525050565b60006101008301600083015184820360008601526200334e8282620032a9565b9150506020830151620033656020860182620032ea565b5060408301516200337a6040860182620032ea565b5060608301516200338f6060860182620032fb565b506080830151620033a46080860182620032fb565b5060a0830151620033b960a08601826200330c565b5060c0830151620033ce60c08601826200331d565b5060e0830151620033e360e0860182620032fb565b508091505092915050565b600060408201905062003405600083018562002a1b565b81810360208301526200341981846200332e565b90509392505050565b7f546f6b656e206973206e6f74206f776e656420627920796f757220706172656e60008201527f7400000000000000000000000000000000000000000000000000000000000000602082015250565b6000620034806021836200299d565b91506200348d8262003422565b604082019050919050565b60006020820190508181036000830152620034b38162003471565b9050919050565b7f536f72727920796f757220636c61696d20706572696f64206973206e6f74207660008201527f616c696400000000000000000000000000000000000000000000000000000000602082015250565b6000620035186024836200299d565b91506200352582620034ba565b604082019050919050565b600060208201905081810360008301526200354b8162003509565b9050919050565b600060408201905062003569600083018562002a1b565b62003578602083018462002a2c565b9392505050565b6200358a8162002a3d565b81146200359657600080fd5b50565b600081519050620035aa816200357f565b92915050565b600060208284031215620035c957620035c862002622565b5b6000620035d98482850162003599565b91505092915050565b60008154620035f18162002ece565b620035fd818662003298565b945060018216600081146200361b5760018114620036325762003669565b60ff19831686528115156020028601935062003669565b6200363d8562002fe9565b60005b83811015620036615781548189015260018201915060208101905062003640565b808801955050505b50505092915050565b60008160001c9050919050565b600073ffffffffffffffffffffffffffffffffffffffff82169050919050565b6000620036b6620036b08362003672565b6200367f565b9050919050565b6000819050919050565b6000620036de620036d88362003672565b620036bd565b9050919050565b600060ff82169050919050565b600062003709620037038362003672565b620036e5565b9050919050565b60008160081c9050919050565b600060ff82169050919050565b6000620037416200373b8362003710565b6200371d565b9050919050565b6000610100830160008084018583036000870152620037688382620035e2565b925050600184015490506200377d816200369f565b6200378c6020870182620032ea565b50600284015490506200379f816200369f565b620037ae6040870182620032ea565b5060038401549050620037c181620036c7565b620037d06060870182620032fb565b5060048401549050620037e381620036c7565b620037f26080870182620032fb565b50600584015490506200380581620036f2565b6200381460a08701826200330c565b5062003820816200372a565b6200382f60c08701826200331d565b50600684015490506200384281620036c7565b6200385160e0870182620032fb565b50819250505092915050565b600060608201905062003874600083018662002a1b565b818103602083015262003888818562003748565b905062003899604083018462002a1b565b949350505050565b600081519050620038b281620027fd565b92915050565b600060208284031215620038d157620038d062002622565b5b6000620038e184828501620038a1565b91505092915050565b7f4e487b7100000000000000000000000000000000000000000000000000000000600052601260045260246000fd5b60006200392682620027f3565b91506200393383620027f3565b925082620039465762003945620038ea565b5b828204905092915050565b60006200395e82620027f3565b91506200396b83620027f3565b92508282026200397b81620027f3565b9150828204841483151762003995576200399462002f32565b5b5092915050565b6000620039a982620027f3565b9150620039b683620027f3565b9250828203905081811115620039d157620039d062002f32565b5b92915050565b6000606082019050620039ee600083018662002a2c565b818103602083015262003a028185620029da565b9050818103604083015262003a188184620029da565b9050949350505050565b600060808301600083015162003a3c6000860182620032fb565b50602083015162003a516020860182620032ea565b506040830151848203604086015262003a6b8282620032a9565b9150506060830151848203606086015262003a878282620032a9565b9150508091505092915050565b600060408201905062003aab600083018562002a1b565b818103602083015262003abf818462003a22565b90509392505050565b6000604082019050818103600083015262003ae48185620029da565b905062003af5602083018462002a2c565b9392505050565b6000604082019050818103600083015262003b188185620029da565b905062003b29602083018462002a1b565b9392505050565b6000602082019050818103600083015262003b4c8184620029da565b905092915050565b6000608082019050818103600083015262003b708187620029da565b905062003b81602083018662002a2c565b818103604083015262003b958185620029da565b905062003ba6606083018462002a2c565b9594505050505056fe60806040523480156200001157600080fd5b5060405162001ba438038062001ba48339818101604052810190620000379190620003bf565b818181600390816200004a91906200069a565b5080600490816200005c91906200069a565b5050506200007133846200007a60201b60201c565b5050506200089c565b600073ffffffffffffffffffffffffffffffffffffffff168273ffffffffffffffffffffffffffffffffffffffff1603620000ec576040517f08c379a0000000000000000000000000000000000000000000000000000000008152600401620000e390620007e2565b60405180910390fd5b6200010060008383620001e760201b60201c565b806002600082825462000114919062000833565b92505081905550806000808473ffffffffffffffffffffffffffffffffffffffff1673ffffffffffffffffffffffffffffffffffffffff168152602001908152602001600020600082825401925050819055508173ffffffffffffffffffffffffffffffffffffffff16600073ffffffffffffffffffffffffffffffffffffffff167fddf252ad1be2c89b69c2b068fc378daa952ba7f163c4a11628f55a4df523b3ef83604051620001c791906200087f565b60405180910390a3620001e360008383620001ec60201b60201c565b5050565b505050565b505050565b6000604051905090565b600080fd5b600080fd5b6000819050919050565b6200021a8162000205565b81146200022657600080fd5b50565b6000815190506200023a816200020f565b92915050565b600080fd5b600080fd5b6000601f19601f8301169050919050565b7f4e487b7100000000000000000000000000000000000000000000000000000000600052604160045260246000fd5b62000295826200024a565b810181811067ffffffffffffffff82111715620002b757620002b66200025b565b5b80604052505050565b6000620002cc620001f1565b9050620002da82826200028a565b919050565b600067ffffffffffffffff821115620002fd57620002fc6200025b565b5b62000308826200024a565b9050602081019050919050565b60005b838110156200033557808201518184015260208101905062000318565b60008484015250505050565b6000620003586200035284620002df565b620002c0565b90508281526020810184848401111562000377576200037662000245565b5b6200038484828562000315565b509392505050565b600082601f830112620003a457620003a362000240565b5b8151620003b684826020860162000341565b91505092915050565b600080600060608486031215620003db57620003da620001fb565b5b6000620003eb8682870162000229565b935050602084015167ffffffffffffffff8111156200040f576200040e62000200565b5b6200041d868287016200038c565b925050604084015167ffffffffffffffff81111562000441576200044062000200565b5b6200044f868287016200038c565b9150509250925092565b600081519050919050565b7f4e487b7100000000000000000000000000000000000000000000000000000000600052602260045260246000fd5b60006002820490506001821680620004ac57607f821691505b602082108103620004c257620004c162000464565b5b50919050565b60008190508160005260206000209050919050565b60006020601f8301049050919050565b600082821b905092915050565b6000600883026200052c7fffffffffffffffffffffffffffffffffffffffffffffffffffffffffffffffff82620004ed565b620005388683620004ed565b95508019841693508086168417925050509392505050565b6000819050919050565b60006200057b620005756200056f8462000205565b62000550565b62000205565b9050919050565b6000819050919050565b62000597836200055a565b620005af620005a68262000582565b848454620004fa565b825550505050565b600090565b620005c6620005b7565b620005d38184846200058c565b505050565b5b81811015620005fb57620005ef600082620005bc565b600181019050620005d9565b5050565b601f8211156200064a576200061481620004c8565b6200061f84620004dd565b810160208510156200062f578190505b620006476200063e85620004dd565b830182620005d8565b50505b505050565b600082821c905092915050565b60006200066f600019846008026200064f565b1980831691505092915050565b60006200068a83836200065c565b9150826002028217905092915050565b620006a58262000459565b67ffffffffffffffff811115620006c157620006c06200025b565b5b620006cd825462000493565b620006da828285620005ff565b600060209050601f831160018114620007125760008415620006fd578287015190505b6200070985826200067c565b86555062000779565b601f1984166200072286620004c8565b60005b828110156200074c5784890151825560018201915060208501945060208101905062000725565b868310156200076c578489015162000768601f8916826200065c565b8355505b6001600288020188555050505b505050505050565b600082825260208201905092915050565b7f45524332303a206d696e7420746f20746865207a65726f206164647265737300600082015250565b6000620007ca601f8362000781565b9150620007d78262000792565b602082019050919050565b60006020820190508181036000830152620007fd81620007bb565b9050919050565b7f4e487b7100000000000000000000000000000000000000000000000000000000600052601160045260246000fd5b6000620008408262000205565b91506200084d8362000205565b925082820190508082111562000868576200086762000804565b5b92915050565b620008798162000205565b82525050565b60006020820190506200089660008301846200086e565b92915050565b6112f880620008ac6000396000f3fe608060405234801561001057600080fd5b50600436106100b45760003560e01c80633950935111610071578063395093511461019157806370a08231146101c157806395d89b41146101f1578063a457c2d71461020f578063a9059cbb1461023f578063dd62ed3e1461026f576100b4565b806306fdde03146100b9578063095ea7b3146100d757806318160ddd14610107578063230b9da31461012557806323b872dd14610143578063313ce56714610173575b600080fd5b6100c161029f565b6040516100ce9190610b5b565b60405180910390f35b6100f160048036038101906100ec9190610c16565b610331565b6040516100fe9190610c71565b60405180910390f35b61010f610354565b60405161011c9190610c9b565b60405180910390f35b61012d61035e565b60405161013a9190610d15565b60405180910390f35b61015d60048036038101906101589190610d30565b610384565b60405161016a9190610c71565b60405180910390f35b61017b6103b3565b6040516101889190610d9f565b60405180910390f35b6101ab60048036038101906101a69190610c16565b6103bc565b6040516101b89190610c71565b60405180910390f35b6101db60048036038101906101d69190610dba565b6103f3565b6040516101e89190610c9b565b60405180910390f35b6101f961043b565b6040516102069190610b5b565b60405180910390f35b61022960048036038101906102249190610c16565b6104cd565b6040516102369190610c71565b60405180910390f35b61025960048036038101906102549190610c16565b610544565b6040516102669190610c71565b60405180910390f35b61028960048036038101906102849190610de7565b610567565b6040516102969190610c9b565b60405180910390f35b6060600380546102ae90610e56565b80601f01602080910402602001604051908101604052809291908181526020018280546102da90610e56565b80156103275780601f106102fc57610100808354040283529160200191610327565b820191906000526020600020905b81548152906001019060200180831161030a57829003601f168201915b5050505050905090565b60008061033c6105ee565b90506103498185856105f6565b600191505092915050565b6000600254905090565b600560009054906101000a900473ffffffffffffffffffffffffffffffffffffffff1681565b60008061038f6105ee565b905061039c8582856107bf565b6103a785858561084b565b60019150509392505050565b60006012905090565b6000806103c76105ee565b90506103e88185856103d98589610567565b6103e39190610eb6565b6105f6565b600191505092915050565b60008060008373ffffffffffffffffffffffffffffffffffffffff1673ffffffffffffffffffffffffffffffffffffffff168152602001908152602001600020549050919050565b60606004805461044a90610e56565b80601f016020809104026020016040519081016040528092919081815260200182805461047690610e56565b80156104c35780601f10610498576101008083540402835291602001916104c3565b820191906000526020600020905b8154815290600101906020018083116104a657829003601f168201915b5050505050905090565b6000806104d86105ee565b905060006104e68286610567565b90508381101561052b576040517f08c379a000000000000000000000000000000000000000000000000000000000815260040161052290610f5c565b60405180910390fd5b61053882868684036105f6565b60019250505092915050565b60008061054f6105ee565b905061055c81858561084b565b600191505092915050565b6000600160008473ffffffffffffffffffffffffffffffffffffffff1673ffffffffffffffffffffffffffffffffffffffff16815260200190815260200160002060008373ffffffffffffffffffffffffffffffffffffffff1673ffffffffffffffffffffffffffffffffffffffff16815260200190815260200160002054905092915050565b600033905090565b600073ffffffffffffffffffffffffffffffffffffffff168373ffffffffffffffffffffffffffffffffffffffff1603610665576040517f08c379a000000000000000000000000000000000000000000000000000000000815260040161065c90610fee565b60405180910390fd5b600073ffffffffffffffffffffffffffffffffffffffff168273ffffffffffffffffffffffffffffffffffffffff16036106d4576040517f08c379a00000000000000000000000000000000000000000000000000000000081526004016106cb90611080565b60405180910390fd5b80600160008573ffffffffffffffffffffffffffffffffffffffff1673ffffffffffffffffffffffffffffffffffffffff16815260200190815260200160002060008473ffffffffffffffffffffffffffffffffffffffff1673ffffffffffffffffffffffffffffffffffffffff168152602001908152602001600020819055508173ffffffffffffffffffffffffffffffffffffffff168373ffffffffffffffffffffffffffffffffffffffff167f8c5be1e5ebec7d5bd14f71427d1e84f3dd0314c0f7b2291e5b200ac8c7c3b925836040516107b29190610c9b565b60405180910390a3505050565b60006107cb8484610567565b90507fffffffffffffffffffffffffffffffffffffffffffffffffffffffffffffffff81146108455781811015610837576040517f08c379a000000000000000000000000000000000000000000000000000000000815260040161082e906110ec565b60405180910390fd5b61084484848484036105f6565b5b50505050565b600073ffffffffffffffffffffffffffffffffffffffff168373ffffffffffffffffffffffffffffffffffffffff16036108ba576040517f08c379a00000000000000000000000000000000000000000000000000000000081526004016108b19061117e565b60405180910390fd5b600073ffffffffffffffffffffffffffffffffffffffff168273ffffffffffffffffffffffffffffffffffffffff1603610929576040517f08c379a000000000000000000000000000000000000000000000000000000000815260040161092090611210565b60405180910390fd5b610934838383610ac1565b60008060008573ffffffffffffffffffffffffffffffffffffffff1673ffffffffffffffffffffffffffffffffffffffff168152602001908152602001600020549050818110156109ba576040517f08c379a00000000000000000000000000000000000000000000000000000000081526004016109b1906112a2565b60405180910390fd5b8181036000808673ffffffffffffffffffffffffffffffffffffffff1673ffffffffffffffffffffffffffffffffffffffff16815260200190815260200160002081905550816000808573ffffffffffffffffffffffffffffffffffffffff1673ffffffffffffffffffffffffffffffffffffffff168152602001908152602001600020600082825401925050819055508273ffffffffffffffffffffffffffffffffffffffff168473ffffffffffffffffffffffffffffffffffffffff167fddf252ad1be2c89b69c2b068fc378daa952ba7f163c4a11628f55a4df523b3ef84604051610aa89190610c9b565b60405180910390a3610abb848484610ac6565b50505050565b505050565b505050565b600081519050919050565b600082825260208201905092915050565b60005b83811015610b05578082015181840152602081019050610aea565b60008484015250505050565b6000601f19601f8301169050919050565b6000610b2d82610acb565b610b378185610ad6565b9350610b47818560208601610ae7565b610b5081610b11565b840191505092915050565b60006020820190508181036000830152610b758184610b22565b905092915050565b600080fd5b600073ffffffffffffffffffffffffffffffffffffffff82169050919050565b6000610bad82610b82565b9050919050565b610bbd81610ba2565b8114610bc857600080fd5b50565b600081359050610bda81610bb4565b92915050565b6000819050919050565b610bf381610be0565b8114610bfe57600080fd5b50565b600081359050610c1081610bea565b92915050565b60008060408385031215610c2d57610c2c610b7d565b5b6000610c3b85828601610bcb565b9250506020610c4c85828601610c01565b9150509250929050565b60008115159050919050565b610c6b81610c56565b82525050565b6000602082019050610c866000830184610c62565b92915050565b610c9581610be0565b82525050565b6000602082019050610cb06000830184610c8c565b92915050565b6000819050919050565b6000610cdb610cd6610cd184610b82565b610cb6565b610b82565b9050919050565b6000610ced82610cc0565b9050919050565b6000610cff82610ce2565b9050919050565b610d0f81610cf4565b82525050565b6000602082019050610d2a6000830184610d06565b92915050565b600080600060608486031215610d4957610d48610b7d565b5b6000610d5786828701610bcb565b9350506020610d6886828701610bcb565b9250506040610d7986828701610c01565b9150509250925092565b600060ff82169050919050565b610d9981610d83565b82525050565b6000602082019050610db46000830184610d90565b92915050565b600060208284031215610dd057610dcf610b7d565b5b6000610dde84828501610bcb565b91505092915050565b60008060408385031215610dfe57610dfd610b7d565b5b6000610e0c85828601610bcb565b9250506020610e1d85828601610bcb565b9150509250929050565b7f4e487b7100000000000000000000000000000000000000000000000000000000600052602260045260246000fd5b60006002820490506001821680610e6e57607f821691505b602082108103610e8157610e80610e27565b5b50919050565b7f4e487b7100000000000000000000000000000000000000000000000000000000600052601160045260246000fd5b6000610ec182610be0565b9150610ecc83610be0565b9250828201905080821115610ee457610ee3610e87565b5b92915050565b7f45524332303a2064656372656173656420616c6c6f77616e63652062656c6f7760008201527f207a65726f000000000000000000000000000000000000000000000000000000602082015250565b6000610f46602583610ad6565b9150610f5182610eea565b604082019050919050565b60006020820190508181036000830152610f7581610f39565b9050919050565b7f45524332303a20617070726f76652066726f6d20746865207a65726f2061646460008201527f7265737300000000000000000000000000000000000000000000000000000000602082015250565b6000610fd8602483610ad6565b9150610fe382610f7c565b604082019050919050565b6000602082019050818103600083015261100781610fcb565b9050919050565b7f45524332303a20617070726f766520746f20746865207a65726f20616464726560008201527f7373000000000000000000000000000000000000000000000000000000000000602082015250565b600061106a602283610ad6565b91506110758261100e565b604082019050919050565b600060208201905081810360008301526110998161105d565b9050919050565b7f45524332303a20696e73756666696369656e7420616c6c6f77616e6365000000600082015250565b60006110d6601d83610ad6565b91506110e1826110a0565b602082019050919050565b60006020820190508181036000830152611105816110c9565b9050919050565b7f45524332303a207472616e736665722066726f6d20746865207a65726f20616460008201527f6472657373000000000000000000000000000000000000000000000000000000602082015250565b6000611168602583610ad6565b91506111738261110c565b604082019050919050565b600060208201905081810360008301526111978161115b565b9050919050565b7f45524332303a207472616e7366657220746f20746865207a65726f206164647260008201527f6573730000000000000000000000000000000000000000000000000000000000602082015250565b60006111fa602383610ad6565b91506112058261119e565b604082019050919050565b60006020820190508181036000830152611229816111ed565b9050919050565b7f45524332303a207472616e7366657220616d6f756e742065786365656473206260008201527f616c616e63650000000000000000000000000000000000000000000000000000602082015250565b600061128c602683610ad6565b915061129782611230565b604082019050919050565b600060208201905081810360008301526112bb8161127f565b905091905056fea2646970667358221220771a06f5e96b82e1694ebb46fe9dd28239038dc56e73a64e3e312e60efb40eb464736f6c63430008110033a2646970667358221220e08e2555338dade5dfe403cfbe7317716febb23b70cd637b741c1e08b3cc003664736f6c63430008110033",
  "devdoc": {
    "author": "Bram Mathijssen",
    "details": "Currently under construction",
    "kind": "dev",
    "methods": {},
    "title": "A contract for parents to supply (pocket) money as a stream to their child(ren)",
    "version": 1
  },
  "userdoc": {
    "kind": "user",
    "methods": {
      "nextWeek()": {
        "notice": "testing -> safe to delete"
      },
      "setNextWeek()": {
        "notice": "testing -> safe to delete"
      },
      "test()": {
        "notice": "testing -> safe to delete"
      }
    },
    "notice": "This contract is used by both the parent as the children",
    "version": 1
  },
  "storageLayout": {
    "storage": [
      {
        "astId": 1369,
        "contract": "contracts/ParentContract.sol:ParentContract",
        "label": "owner",
        "offset": 0,
        "slot": "0",
        "type": "t_address"
      },
      {
        "astId": 1372,
        "contract": "contracts/ParentContract.sol:ParentContract",
        "label": "tokenCreator",
        "offset": 0,
        "slot": "1",
        "type": "t_contract(TokenCreator)2188"
      },
      {
        "astId": 1374,
        "contract": "contracts/ParentContract.sol:ParentContract",
        "label": "currentTime",
        "offset": 0,
        "slot": "2",
        "type": "t_uint256"
      },
      {
        "astId": 1376,
        "contract": "contracts/ParentContract.sol:ParentContract",
        "label": "contractDeployedTime",
        "offset": 0,
        "slot": "3",
        "type": "t_uint256"
      },
      {
        "astId": 1379,
        "contract": "contracts/ParentContract.sol:ParentContract",
        "label": "s_createdTokenAddresses",
        "offset": 0,
        "slot": "4",
        "type": "t_array(t_address)dyn_storage"
      },
      {
        "astId": 1385,
        "contract": "contracts/ParentContract.sol:ParentContract",
        "label": "parentToTokensMapping",
        "offset": 0,
        "slot": "5",
        "type": "t_mapping(t_address,t_array(t_struct(Token)1433_storage)dyn_storage)"
      },
      {
        "astId": 1391,
        "contract": "contracts/ParentContract.sol:ParentContract",
        "label": "parentToChildMapping",
        "offset": 0,
        "slot": "6",
        "type": "t_mapping(t_address,t_array(t_struct(Child)1424_storage)dyn_storage)"
      },
      {
        "astId": 1398,
        "contract": "contracts/ParentContract.sol:ParentContract",
        "label": "parentToChildMappingNested",
        "offset": 0,
        "slot": "7",
        "type": "t_mapping(t_address,t_mapping(t_address,t_struct(Child)1424_storage))"
      },
      {
        "astId": 1402,
        "contract": "contracts/ParentContract.sol:ParentContract",
        "label": "childToParentMapping",
        "offset": 0,
        "slot": "8",
        "type": "t_mapping(t_address,t_address)"
      },
      {
        "astId": 2145,
        "contract": "contracts/ParentContract.sol:ParentContract",
        "label": "nextWeek",
        "offset": 0,
        "slot": "9",
        "type": "t_uint256"
      }
    ],
    "types": {
      "t_address": {
        "encoding": "inplace",
        "label": "address",
        "numberOfBytes": "20"
      },
      "t_array(t_address)dyn_storage": {
        "base": "t_address",
        "encoding": "dynamic_array",
        "label": "address[]",
        "numberOfBytes": "32"
      },
      "t_array(t_struct(Child)1424_storage)dyn_storage": {
        "base": "t_struct(Child)1424_storage",
        "encoding": "dynamic_array",
        "label": "struct ParentContract.Child[]",
        "numberOfBytes": "32"
      },
      "t_array(t_struct(Token)1433_storage)dyn_storage": {
        "base": "t_struct(Token)1433_storage",
        "encoding": "dynamic_array",
        "label": "struct ParentContract.Token[]",
        "numberOfBytes": "32"
      },
      "t_bool": {
        "encoding": "inplace",
        "label": "bool",
        "numberOfBytes": "1"
      },
      "t_contract(TokenCreator)2188": {
        "encoding": "inplace",
        "label": "contract TokenCreator",
        "numberOfBytes": "20"
      },
      "t_enum(ClaimPeriod)1406": {
        "encoding": "inplace",
        "label": "enum ParentContract.ClaimPeriod",
        "numberOfBytes": "1"
      },
      "t_mapping(t_address,t_address)": {
        "encoding": "mapping",
        "key": "t_address",
        "label": "mapping(address => address)",
        "numberOfBytes": "32",
        "value": "t_address"
      },
      "t_mapping(t_address,t_array(t_struct(Child)1424_storage)dyn_storage)": {
        "encoding": "mapping",
        "key": "t_address",
        "label": "mapping(address => struct ParentContract.Child[])",
        "numberOfBytes": "32",
        "value": "t_array(t_struct(Child)1424_storage)dyn_storage"
      },
      "t_mapping(t_address,t_array(t_struct(Token)1433_storage)dyn_storage)": {
        "encoding": "mapping",
        "key": "t_address",
        "label": "mapping(address => struct ParentContract.Token[])",
        "numberOfBytes": "32",
        "value": "t_array(t_struct(Token)1433_storage)dyn_storage"
      },
      "t_mapping(t_address,t_mapping(t_address,t_struct(Child)1424_storage))": {
        "encoding": "mapping",
        "key": "t_address",
        "label": "mapping(address => mapping(address => struct ParentContract.Child))",
        "numberOfBytes": "32",
        "value": "t_mapping(t_address,t_struct(Child)1424_storage)"
      },
      "t_mapping(t_address,t_struct(Child)1424_storage)": {
        "encoding": "mapping",
        "key": "t_address",
        "label": "mapping(address => struct ParentContract.Child)",
        "numberOfBytes": "32",
        "value": "t_struct(Child)1424_storage"
      },
      "t_string_storage": {
        "encoding": "bytes",
        "label": "string",
        "numberOfBytes": "32"
      },
      "t_struct(Child)1424_storage": {
        "encoding": "inplace",
        "label": "struct ParentContract.Child",
        "members": [
          {
            "astId": 1408,
            "contract": "contracts/ParentContract.sol:ParentContract",
            "label": "name",
            "offset": 0,
            "slot": "0",
            "type": "t_string_storage"
          },
          {
            "astId": 1410,
            "contract": "contracts/ParentContract.sol:ParentContract",
            "label": "childAddress",
            "offset": 0,
            "slot": "1",
            "type": "t_address"
          },
          {
            "astId": 1412,
            "contract": "contracts/ParentContract.sol:ParentContract",
            "label": "tokenPreference",
            "offset": 0,
            "slot": "2",
            "type": "t_address"
          },
          {
            "astId": 1414,
            "contract": "contracts/ParentContract.sol:ParentContract",
            "label": "baseAmount",
            "offset": 0,
            "slot": "3",
            "type": "t_uint256"
          },
          {
            "astId": 1416,
            "contract": "contracts/ParentContract.sol:ParentContract",
            "label": "claimableAmount",
            "offset": 0,
            "slot": "4",
            "type": "t_uint256"
          },
          {
            "astId": 1418,
            "contract": "contracts/ParentContract.sol:ParentContract",
            "label": "claimValid",
            "offset": 0,
            "slot": "5",
            "type": "t_bool"
          },
          {
            "astId": 1421,
            "contract": "contracts/ParentContract.sol:ParentContract",
            "label": "claimPeriod",
            "offset": 1,
            "slot": "5",
            "type": "t_enum(ClaimPeriod)1406"
          },
          {
            "astId": 1423,
            "contract": "contracts/ParentContract.sol:ParentContract",
            "label": "nextClaimPeriod",
            "offset": 0,
            "slot": "6",
            "type": "t_uint256"
          }
        ],
        "numberOfBytes": "224"
      },
      "t_struct(Token)1433_storage": {
        "encoding": "inplace",
        "label": "struct ParentContract.Token",
        "members": [
          {
            "astId": 1426,
            "contract": "contracts/ParentContract.sol:ParentContract",
            "label": "supply",
            "offset": 0,
            "slot": "0",
            "type": "t_uint256"
          },
          {
            "astId": 1428,
            "contract": "contracts/ParentContract.sol:ParentContract",
            "label": "tokenAddress",
            "offset": 0,
            "slot": "1",
            "type": "t_address"
          },
          {
            "astId": 1430,
            "contract": "contracts/ParentContract.sol:ParentContract",
            "label": "name",
            "offset": 0,
            "slot": "2",
            "type": "t_string_storage"
          },
          {
            "astId": 1432,
            "contract": "contracts/ParentContract.sol:ParentContract",
            "label": "symbol",
            "offset": 0,
            "slot": "3",
            "type": "t_string_storage"
          }
        ],
        "numberOfBytes": "128"
      },
      "t_uint256": {
        "encoding": "inplace",
        "label": "uint256",
        "numberOfBytes": "32"
      }
    }
  }
}