{
  "address": "0x0F4f5ea1331D018483Bd1D8870a5d99A9D211378",
  "abi": [
    {
      "inputs": [],
      "stateMutability": "nonpayable",
      "type": "constructor"
    },
    {
      "inputs": [],
      "name": "NotOwnerOfToken",
      "type": "error"
    },
    {
      "anonymous": false,
      "inputs": [
        {
          "components": [
            {
              "internalType": "string",
              "name": "name",
              "type": "string"
            },
            {
              "internalType": "address",
              "name": "childAddress",
              "type": "address"
            },
            {
              "internalType": "address",
              "name": "tokenPreference",
              "type": "address"
            },
            {
              "internalType": "uint256",
              "name": "baseAmount",
              "type": "uint256"
            },
            {
              "internalType": "uint256",
              "name": "claimableAmount",
              "type": "uint256"
            },
            {
              "internalType": "bool",
              "name": "claimValid",
              "type": "bool"
            },
            {
              "internalType": "enum ParentContract.ClaimPeriod",
              "name": "claimPeriod",
              "type": "uint8"
            },
            {
              "internalType": "uint256",
              "name": "nextClaimPeriod",
              "type": "uint256"
            }
          ],
          "indexed": false,
          "internalType": "struct ParentContract.Child",
          "name": "child",
          "type": "tuple"
        },
        {
          "indexed": false,
          "internalType": "address",
          "name": "childAddress",
          "type": "address"
        },
        {
          "indexed": false,
          "internalType": "address",
          "name": "parentAddress",
          "type": "address"
        }
      ],
      "name": "ChildAdded",
      "type": "event"
    },
    {
      "anonymous": false,
      "inputs": [
        {
          "indexed": false,
          "internalType": "address",
          "name": "parentAddress",
          "type": "address"
        },
        {
          "indexed": false,
          "internalType": "address",
          "name": "tokenAddress",
          "type": "address"
        }
      ],
      "name": "TokenCreated",
      "type": "event"
    },
    {
      "inputs": [
        {
          "internalType": "string",
          "name": "_name",
          "type": "string"
        },
        {
          "internalType": "address",
          "name": "_childAddress",
          "type": "address"
        },
        {
          "internalType": "address",
          "name": "_tokenPreference",
          "type": "address"
        },
        {
          "internalType": "uint256",
          "name": "_baseAmount",
          "type": "uint256"
        }
      ],
      "name": "addChild",
      "outputs": [],
      "stateMutability": "nonpayable",
      "type": "function"
    },
    {
      "inputs": [
        {
          "internalType": "uint256",
          "name": "_baseAmount",
          "type": "uint256"
        },
        {
          "internalType": "enum ParentContract.ClaimPeriod",
          "name": "_claimPeriod",
          "type": "uint8"
        }
      ],
      "name": "calculateClaimableAmount",
      "outputs": [
        {
          "internalType": "uint256",
          "name": "",
          "type": "uint256"
        }
      ],
      "stateMutability": "pure",
      "type": "function"
    },
    {
      "inputs": [
        {
          "internalType": "address",
          "name": "",
          "type": "address"
        }
      ],
      "name": "childToParentMapping",
      "outputs": [
        {
          "internalType": "address",
          "name": "",
          "type": "address"
        }
      ],
      "stateMutability": "view",
      "type": "function"
    },
    {
      "inputs": [
        {
          "internalType": "contract IERC20",
          "name": "token",
          "type": "address"
        },
        {
          "internalType": "address",
          "name": "_tokenToBeClaimed",
          "type": "address"
        }
      ],
      "name": "claim",
      "outputs": [],
      "stateMutability": "nonpayable",
      "type": "function"
    },
    {
      "inputs": [],
      "name": "contractDeployedTime",
      "outputs": [
        {
          "internalType": "uint256",
          "name": "",
          "type": "uint256"
        }
      ],
      "stateMutability": "view",
      "type": "function"
    },
    {
      "inputs": [
        {
          "internalType": "uint256",
          "name": "_supply",
          "type": "uint256"
        },
        {
          "internalType": "string",
          "name": "_contractName",
          "type": "string"
        },
        {
          "internalType": "string",
          "name": "_contractSymbol",
          "type": "string"
        }
      ],
      "name": "createNewToken",
      "outputs": [],
      "stateMutability": "nonpayable",
      "type": "function"
    },
    {
      "inputs": [],
      "name": "currentTime",
      "outputs": [
        {
          "internalType": "uint256",
          "name": "",
          "type": "uint256"
        }
      ],
      "stateMutability": "view",
      "type": "function"
    },
    {
      "inputs": [
        {
          "internalType": "contract IERC20",
          "name": "token",
          "type": "address"
        }
      ],
      "name": "getBalanceTest",
      "outputs": [
        {
          "internalType": "uint256",
          "name": "",
          "type": "uint256"
        }
      ],
      "stateMutability": "view",
      "type": "function"
    },
    {
      "inputs": [],
      "name": "getChildsNextClaimPeriod",
      "outputs": [
        {
          "internalType": "uint256",
          "name": "",
          "type": "uint256"
        },
        {
          "internalType": "enum ParentContract.ClaimPeriod",
          "name": "",
          "type": "uint8"
        }
      ],
      "stateMutability": "view",
      "type": "function"
    },
    {
      "inputs": [],
      "name": "getChildsParent",
      "outputs": [
        {
          "internalType": "address",
          "name": "",
          "type": "address"
        }
      ],
      "stateMutability": "view",
      "type": "function"
    },
    {
      "inputs": [],
      "name": "getCurrentTime",
      "outputs": [
        {
          "internalType": "uint256",
          "name": "",
          "type": "uint256"
        }
      ],
      "stateMutability": "view",
      "type": "function"
    },
    {
      "inputs": [],
      "name": "nextWeek",
      "outputs": [
        {
          "internalType": "uint256",
          "name": "",
          "type": "uint256"
        }
      ],
      "stateMutability": "view",
      "type": "function"
    },
    {
      "inputs": [],
      "name": "owner",
      "outputs": [
        {
          "internalType": "address",
          "name": "",
          "type": "address"
        }
      ],
      "stateMutability": "view",
      "type": "function"
    },
    {
      "inputs": [
        {
          "internalType": "address",
          "name": "",
          "type": "address"
        },
        {
          "internalType": "uint256",
          "name": "",
          "type": "uint256"
        }
      ],
      "name": "parentToChildMapping",
      "outputs": [
        {
          "internalType": "string",
          "name": "name",
          "type": "string"
        },
        {
          "internalType": "address",
          "name": "childAddress",
          "type": "address"
        },
        {
          "internalType": "address",
          "name": "tokenPreference",
          "type": "address"
        },
        {
          "internalType": "uint256",
          "name": "baseAmount",
          "type": "uint256"
        },
        {
          "internalType": "uint256",
          "name": "claimableAmount",
          "type": "uint256"
        },
        {
          "internalType": "bool",
          "name": "claimValid",
          "type": "bool"
        },
        {
          "internalType": "enum ParentContract.ClaimPeriod",
          "name": "claimPeriod",
          "type": "uint8"
        },
        {
          "internalType": "uint256",
          "name": "nextClaimPeriod",
          "type": "uint256"
        }
      ],
      "stateMutability": "view",
      "type": "function"
    },
    {
      "inputs": [
        {
          "internalType": "address",
          "name": "",
          "type": "address"
        },
        {
          "internalType": "address",
          "name": "",
          "type": "address"
        }
      ],
      "name": "parentToChildMappingNested",
      "outputs": [
        {
          "internalType": "string",
          "name": "name",
          "type": "string"
        },
        {
          "internalType": "address",
          "name": "childAddress",
          "type": "address"
        },
        {
          "internalType": "address",
          "name": "tokenPreference",
          "type": "address"
        },
        {
          "internalType": "uint256",
          "name": "baseAmount",
          "type": "uint256"
        },
        {
          "internalType": "uint256",
          "name": "claimableAmount",
          "type": "uint256"
        },
        {
          "internalType": "bool",
          "name": "claimValid",
          "type": "bool"
        },
        {
          "internalType": "enum ParentContract.ClaimPeriod",
          "name": "claimPeriod",
          "type": "uint8"
        },
        {
          "internalType": "uint256",
          "name": "nextClaimPeriod",
          "type": "uint256"
        }
      ],
      "stateMutability": "view",
      "type": "function"
    },
    {
      "inputs": [
        {
          "internalType": "address",
          "name": "",
          "type": "address"
        },
        {
          "internalType": "uint256",
          "name": "",
          "type": "uint256"
        }
      ],
      "name": "parentToTokensMapping",
      "outputs": [
        {
          "internalType": "uint256",
          "name": "supply",
          "type": "uint256"
        },
        {
          "internalType": "address",
          "name": "tokenAddress",
          "type": "address"
        },
        {
          "internalType": "string",
          "name": "name",
          "type": "string"
        },
        {
          "internalType": "string",
          "name": "symbol",
          "type": "string"
        }
      ],
      "stateMutability": "view",
      "type": "function"
    },
    {
      "inputs": [
        {
          "internalType": "uint256",
          "name": "",
          "type": "uint256"
        }
      ],
      "name": "s_createdTokenAddresses",
      "outputs": [
        {
          "internalType": "address",
          "name": "",
          "type": "address"
        }
      ],
      "stateMutability": "view",
      "type": "function"
    },
    {
      "inputs": [],
      "name": "setChildClaimMomentDaily",
      "outputs": [],
      "stateMutability": "nonpayable",
      "type": "function"
    },
    {
      "inputs": [],
      "name": "setChildClaimMomentMonthly",
      "outputs": [],
      "stateMutability": "nonpayable",
      "type": "function"
    },
    {
      "inputs": [],
      "name": "setChildClaimMomentWeekly",
      "outputs": [],
      "stateMutability": "nonpayable",
      "type": "function"
    },
    {
      "inputs": [],
      "name": "setNextWeek",
      "outputs": [],
      "stateMutability": "nonpayable",
      "type": "function"
    },
    {
      "inputs": [],
      "name": "test",
      "outputs": [
        {
          "internalType": "address",
          "name": "",
          "type": "address"
        }
      ],
      "stateMutability": "view",
      "type": "function"
    },
    {
      "inputs": [],
      "name": "tokenCreator",
      "outputs": [
        {
          "internalType": "contract TokenCreator",
          "name": "",
          "type": "address"
        }
      ],
      "stateMutability": "view",
      "type": "function"
    }
  ],
  "transactionHash": "0x95723139926ee08902207296aee75bad28da9eddf8d44dcf728a0c3fab6d4c47",
  "args": [],
  "numDeployments": 2,
  "solcInputHash": "fbc80becd88ee10e0115c7663ba33d5a",
  "bytecode": "0x608060405234801561001057600080fd5b50336000806101000a81548173ffffffffffffffffffffffffffffffffffffffff021916908373ffffffffffffffffffffffffffffffffffffffff1602179055506153a5806100606000396000f3fe60806040523480156200001157600080fd5b50600436106200016c5760003560e01c8063a64cbab611620000d5578063db84252c1162000087578063db84252c14620003ca578063e1727fc614620003ec578063f1f77312146200040e578063f8a8fd6d146200042e578063fbabcdd31462000450578063fd7364b71462000489576200016c565b8063a64cbab61462000315578063b0f7246b1462000321578063ca7b00721462000344578063d0bd42611462000350578063d18e81b31462000386578063da3e24f914620003a8576200016c565b806354ed78f1116200012f57806354ed78f1146200023257806376aa835f146200023e5780637a4e6c7614620002745780638da5cb5b14620002b15780639060def914620002d35780639ca4ec5914620002df576200016c565b80630590b377146200017157806321c0b342146200019157806321f0020814620001b157806327689d8214620001ee57806329cb924d1462000210575b600080fd5b6200018f600480360381019062000189919062002772565b620004bf565b005b620001af6004803603810190620001a9919062002848565b62000d20565b005b620001cf6004803603810190620001c991906200288f565b6200142a565b604051620001e598979695949392919062002a1e565b60405180910390f35b620001f86200157a565b60405162000207919062002ab3565b60405180910390f35b6200021a620015e6565b60405162000229919062002ad0565b60405180910390f35b6200023c620015ee565b005b6200025c600480360381019062000256919062002aed565b62001607565b6040516200026b919062002ad0565b60405180910390f35b6200029260048036038101906200028c919062002b1f565b62001694565b604051620002a898979695949392919062002a1e565b60405180910390f35b620002bb620017d3565b604051620002ca919062002ab3565b60405180910390f35b620002dd620017f7565b005b620002fd6004803603810190620002f7919062002b8e565b620018db565b6040516200030c919062002ad0565b60405180910390f35b6200031f62001a15565b005b6200032b62001af9565b6040516200033b92919062002bd5565b60405180910390f35b6200034e62001d76565b005b6200036e600480360381019062000368919062002c02565b62001e5a565b6040516200037d919062002ab3565b60405180910390f35b6200039062001e8d565b6040516200039f919062002ad0565b60405180910390f35b620003b262001e93565b604051620003c1919062002ad0565b60405180910390f35b620003d462001e99565b604051620003e3919062002c9f565b60405180910390f35b620003f662001ebf565b60405162000405919062002ad0565b60405180910390f35b6200042c600480360381019062000426919062002cbc565b62001ec5565b005b62000438620020cc565b60405162000447919062002ab3565b60405180910390f35b6200046e60048036038101906200046891906200288f565b620020d4565b60405162000480949392919062002d56565b60405180910390f35b620004a76004803603810190620004a1919062002db1565b62002262565b604051620004b6919062002ab3565b60405180910390f35b816000600560003373ffffffffffffffffffffffffffffffffffffffff1673ffffffffffffffffffffffffffffffffffffffff168152602001908152602001600020805480602002602001604051908101604052809291908181526020016000905b82821015620006e95783829060005260206000209060040201604051806080016040529081600082015481526020016001820160009054906101000a900473ffffffffffffffffffffffffffffffffffffffff1673ffffffffffffffffffffffffffffffffffffffff1673ffffffffffffffffffffffffffffffffffffffff168152602001600282018054620005b79062002e12565b80601f0160208091040260200160405190810160405280929190818152602001828054620005e59062002e12565b8015620006365780601f106200060a5761010080835404028352916020019162000636565b820191906000526020600020905b8154815290600101906020018083116200061857829003601f168201915b50505050508152602001600382018054620006519062002e12565b80601f01602080910402602001604051908101604052809291908181526020018280546200067f9062002e12565b8015620006d05780601f10620006a457610100808354040283529160200191620006d0565b820191906000526020600020905b815481529060010190602001808311620006b257829003601f168201915b5050505050815250508152602001906001019062000521565b5050505090506000805b825181101562000815576200073e6040518060400160405280600981526020017f6c6f6f70696e673a20000000000000000000000000000000000000000000000081525082620022a2565b8373ffffffffffffffffffffffffffffffffffffffff168382815181106200076b576200076a62002e47565b5b60200260200101516020015173ffffffffffffffffffffffffffffffffffffffff1603620007ff57620007f56040518060400160405280601281526020017f746f6b656e207769746820616464726573730000000000000000000000000000815250848381518110620007e357620007e262002e47565b5b60200260200101516020015162002342565b6001915062000815565b80806200080c9062002ea5565b915050620006f3565b50806200088e576200085c6040518060400160405280601281526020017f546f6b656e206e6f7420666f756e64203a280000000000000000000000000000815250620023e2565b6040517f4c084f1400000000000000000000000000000000000000000000000000000000815260040160405180910390fd5b600062093a806200089e620015e6565b620008aa919062002ef2565b90506000620008bb866001620018db565b905060006040518061010001604052808b81526020018a73ffffffffffffffffffffffffffffffffffffffff1681526020018973ffffffffffffffffffffffffffffffffffffffff168152602001888152602001838152602001600015158152602001600160028111156200093557620009346200299e565b5b8152602001848152509050600660003373ffffffffffffffffffffffffffffffffffffffff1673ffffffffffffffffffffffffffffffffffffffff1681526020019081526020016000208190806001815401808255809150506001900390600052602060002090600702016000909190919091506000820151816000019081620009c09190620030f5565b5060208201518160010160006101000a81548173ffffffffffffffffffffffffffffffffffffffff021916908373ffffffffffffffffffffffffffffffffffffffff16021790555060408201518160020160006101000a81548173ffffffffffffffffffffffffffffffffffffffff021916908373ffffffffffffffffffffffffffffffffffffffff160217905550606082015181600301556080820151816004015560a08201518160050160006101000a81548160ff02191690831515021790555060c08201518160050160016101000a81548160ff0219169083600281111562000ab15762000ab06200299e565b5b021790555060e08201518160060155505080600760003373ffffffffffffffffffffffffffffffffffffffff1673ffffffffffffffffffffffffffffffffffffffff16815260200190815260200160002060008b73ffffffffffffffffffffffffffffffffffffffff1673ffffffffffffffffffffffffffffffffffffffff168152602001908152602001600020600082015181600001908162000b569190620030f5565b5060208201518160010160006101000a81548173ffffffffffffffffffffffffffffffffffffffff021916908373ffffffffffffffffffffffffffffffffffffffff16021790555060408201518160020160006101000a81548173ffffffffffffffffffffffffffffffffffffffff021916908373ffffffffffffffffffffffffffffffffffffffff160217905550606082015181600301556080820151816004015560a08201518160050160006101000a81548160ff02191690831515021790555060c08201518160050160016101000a81548160ff0219169083600281111562000c475762000c466200299e565b5b021790555060e0820151816006015590505033600860008b73ffffffffffffffffffffffffffffffffffffffff1673ffffffffffffffffffffffffffffffffffffffff16815260200190815260200160002060006101000a81548173ffffffffffffffffffffffffffffffffffffffff021916908373ffffffffffffffffffffffffffffffffffffffff1602179055507fdc0de91c45d3766587b6a0063b615730dd282d60d4b4819feadb7ec5e48da87e818a3360405162000d0c9392919062003332565b60405180910390a150505050505050505050565b60008062000d2d620015e6565b90506000600860003373ffffffffffffffffffffffffffffffffffffffff1673ffffffffffffffffffffffffffffffffffffffff16815260200190815260200160002060009054906101000a900473ffffffffffffffffffffffffffffffffffffffff1690506000600560008373ffffffffffffffffffffffffffffffffffffffff1673ffffffffffffffffffffffffffffffffffffffff168152602001908152602001600020805480602002602001604051908101604052809291908181526020016000905b8282101562000fbc5783829060005260206000209060040201604051806080016040529081600082015481526020016001820160009054906101000a900473ffffffffffffffffffffffffffffffffffffffff1673ffffffffffffffffffffffffffffffffffffffff1673ffffffffffffffffffffffffffffffffffffffff16815260200160028201805462000e8a9062002e12565b80601f016020809104026020016040519081016040528092919081815260200182805462000eb89062002e12565b801562000f095780601f1062000edd5761010080835404028352916020019162000f09565b820191906000526020600020905b81548152906001019060200180831162000eeb57829003601f168201915b5050505050815260200160038201805462000f249062002e12565b80601f016020809104026020016040519081016040528092919081815260200182805462000f529062002e12565b801562000fa35780601f1062000f775761010080835404028352916020019162000fa3565b820191906000526020600020905b81548152906001019060200180831162000f8557829003601f168201915b5050505050815250508152602001906001019062000df4565b50505050905060005b81518110156200103f578573ffffffffffffffffffffffffffffffffffffffff1682828151811062000ffc5762000ffb62002e47565b5b60200260200101516020015173ffffffffffffffffffffffffffffffffffffffff16036200102957600194505b8080620010369062002ea5565b91505062000fc5565b5060011515841515146200108a576040517f08c379a00000000000000000000000000000000000000000000000000000000081526004016200108190620033ec565b60405180910390fd5b6000600760008473ffffffffffffffffffffffffffffffffffffffff1673ffffffffffffffffffffffffffffffffffffffff16815260200190815260200160002060003373ffffffffffffffffffffffffffffffffffffffff1673ffffffffffffffffffffffffffffffffffffffff1681526020019081526020016000209050620011866040518060400160405280600d81526020017f63757272656e742074696d653a00000000000000000000000000000000000000815250856040518060400160405280601881526020017f2e204e65787420436c61696d20706572696f642069733a20000000000000000081525084600601546200247f565b80600601548410620011f057620011d26040518060400160405280600d81526020017f436c61696d2056616c6964212000000000000000000000000000000000000000815250620023e2565b60018160050160006101000a81548160ff0219169083151502179055505b600115158160050160009054906101000a900460ff161515146200124b576040517f08c379a0000000000000000000000000000000000000000000000000000000008152600401620012429062003484565b60405180910390fd5b60008160050160006101000a81548160ff021916908315150217905550600060028111156200127f576200127e6200299e565b5b8160050160019054906101000a900460ff166002811115620012a657620012a56200299e565b5b03620012cf57620151808160060154620012c1919062002ef2565b816006018190555062001399565b60016002811115620012e657620012e56200299e565b5b8160050160019054906101000a900460ff1660028111156200130d576200130c6200299e565b5b03620013365762093a80816006015462001328919062002ef2565b816006018190555062001398565b6002808111156200134c576200134b6200299e565b5b8160050160019054906101000a900460ff1660028111156200137357620013726200299e565b5b0362001397576224ea0081600601546200138e919062002ef2565b81600601819055505b5b5b8673ffffffffffffffffffffffffffffffffffffffff1663a9059cbb3383600401546040518363ffffffff1660e01b8152600401620013da929190620034a6565b6020604051808303816000875af1158015620013fa573d6000803e3d6000fd5b505050506040513d601f19601f8201168201806040525081019062001420919062003504565b5050505050505050565b600660205281600052604060002081815481106200144757600080fd5b9060005260206000209060070201600091509150508060000180546200146d9062002e12565b80601f01602080910402602001604051908101604052809291908181526020018280546200149b9062002e12565b8015620014ec5780601f10620014c057610100808354040283529160200191620014ec565b820191906000526020600020905b815481529060010190602001808311620014ce57829003601f168201915b5050505050908060010160009054906101000a900473ffffffffffffffffffffffffffffffffffffffff16908060020160009054906101000a900473ffffffffffffffffffffffffffffffffffffffff16908060030154908060040154908060050160009054906101000a900460ff16908060050160019054906101000a900460ff16908060060154905088565b600080600860003373ffffffffffffffffffffffffffffffffffffffff1673ffffffffffffffffffffffffffffffffffffffff16815260200190815260200160002060009054906101000a900473ffffffffffffffffffffffffffffffffffffffff1690508091505090565b600042905090565b62093a8042620015ff919062002ef2565b600981905550565b6000808273ffffffffffffffffffffffffffffffffffffffff166370a08231336040518263ffffffff1660e01b815260040162001645919062002ab3565b602060405180830381865afa15801562001663573d6000803e3d6000fd5b505050506040513d601f19601f820116820180604052508101906200168991906200354d565b905080915050919050565b600760205281600052604060002060205280600052604060002060009150915050806000018054620016c69062002e12565b80601f0160208091040260200160405190810160405280929190818152602001828054620016f49062002e12565b8015620017455780601f10620017195761010080835404028352916020019162001745565b820191906000526020600020905b8154815290600101906020018083116200172757829003601f168201915b5050505050908060010160009054906101000a900473ffffffffffffffffffffffffffffffffffffffff16908060020160009054906101000a900473ffffffffffffffffffffffffffffffffffffffff16908060030154908060040154908060050160009054906101000a900460ff16908060050160019054906101000a900460ff16908060060154905088565b60008054906101000a900473ffffffffffffffffffffffffffffffffffffffff1681565b6000620018036200157a565b90506000600760008373ffffffffffffffffffffffffffffffffffffffff1673ffffffffffffffffffffffffffffffffffffffff16815260200190815260200160002060003373ffffffffffffffffffffffffffffffffffffffff1673ffffffffffffffffffffffffffffffffffffffff168152602001908152602001600020905060018160050160016101000a81548160ff02191690836002811115620018b057620018af6200299e565b5b021790555062093a80620018c3620015e6565b620018cf919062002ef2565b81600601819055505050565b60008060006002811115620018f557620018f46200299e565b5b8360028111156200190b576200190a6200299e565b5b0362001957576000600a606486620019249190620035ae565b620019309190620035e6565b856200193d919062003631565b90506007816200194e9190620035ae565b91505062001a0b565b600160028111156200196e576200196d6200299e565b5b8360028111156200198457620019836200299e565b5b03620019935783905062001a0a565b600280811115620019a957620019a86200299e565b5b836002811115620019bf57620019be6200299e565b5b0362001a09576000600a606486620019d89190620035ae565b620019e49190620035e6565b85620019f1919062002ef2565b915081905060048162001a059190620035e6565b9150505b5b5b8091505092915050565b600062001a216200157a565b90506000600760008373ffffffffffffffffffffffffffffffffffffffff1673ffffffffffffffffffffffffffffffffffffffff16815260200190815260200160002060003373ffffffffffffffffffffffffffffffffffffffff1673ffffffffffffffffffffffffffffffffffffffff168152602001908152602001600020905060028160050160016101000a81548160ff0219169083600281111562001ace5762001acd6200299e565b5b02179055506224ea0062001ae1620015e6565b62001aed919062002ef2565b81600601819055505050565b600080600062001b086200157a565b90506000600760008373ffffffffffffffffffffffffffffffffffffffff1673ffffffffffffffffffffffffffffffffffffffff16815260200190815260200160002060003373ffffffffffffffffffffffffffffffffffffffff1673ffffffffffffffffffffffffffffffffffffffff1681526020019081526020016000206040518061010001604052908160008201805462001ba69062002e12565b80601f016020809104026020016040519081016040528092919081815260200182805462001bd49062002e12565b801562001c255780601f1062001bf95761010080835404028352916020019162001c25565b820191906000526020600020905b81548152906001019060200180831162001c0757829003601f168201915b505050505081526020016001820160009054906101000a900473ffffffffffffffffffffffffffffffffffffffff1673ffffffffffffffffffffffffffffffffffffffff1673ffffffffffffffffffffffffffffffffffffffff1681526020016002820160009054906101000a900473ffffffffffffffffffffffffffffffffffffffff1673ffffffffffffffffffffffffffffffffffffffff1673ffffffffffffffffffffffffffffffffffffffff16815260200160038201548152602001600482015481526020016005820160009054906101000a900460ff161515151581526020016005820160019054906101000a900460ff16600281111562001d315762001d306200299e565b5b600281111562001d465762001d456200299e565b5b8152602001600682015481525050905060008160e00151905060008260c001519050818195509550505050509091565b600062001d826200157a565b90506000600760008373ffffffffffffffffffffffffffffffffffffffff1673ffffffffffffffffffffffffffffffffffffffff16815260200190815260200160002060003373ffffffffffffffffffffffffffffffffffffffff1673ffffffffffffffffffffffffffffffffffffffff168152602001908152602001600020905060008160050160016101000a81548160ff0219169083600281111562001e2f5762001e2e6200299e565b5b02179055506201518062001e42620015e6565b62001e4e919062002ef2565b81600601819055505050565b60086020528060005260406000206000915054906101000a900473ffffffffffffffffffffffffffffffffffffffff1681565b60025481565b60095481565b600160009054906101000a900473ffffffffffffffffffffffffffffffffffffffff1681565b60035481565b600083838360405162001ed8906200254e565b62001ee6939291906200366c565b604051809103906000f08015801562001f03573d6000803e3d6000fd5b5090506004819080600181540180825580915050600190039060005260206000200160009091909190916101000a81548173ffffffffffffffffffffffffffffffffffffffff021916908373ffffffffffffffffffffffffffffffffffffffff160217905550600560003373ffffffffffffffffffffffffffffffffffffffff1673ffffffffffffffffffffffffffffffffffffffff16815260200190815260200160002060405180608001604052808681526020018373ffffffffffffffffffffffffffffffffffffffff1681526020018581526020018481525090806001815401808255809150506001900390600052602060002090600402016000909190919091506000820151816000015560208201518160010160006101000a81548173ffffffffffffffffffffffffffffffffffffffff021916908373ffffffffffffffffffffffffffffffffffffffff1602179055506040820151816002019081620020709190620030f5565b506060820151816003019081620020889190620030f5565b5050507fd5f9bdf12adf29dab0248c349842c3822d53ae2bb4f36352f301630d018c81393382604051620020be929190620036b7565b60405180910390a150505050565b600033905090565b60056020528160005260406000208181548110620020f157600080fd5b9060005260206000209060040201600091509150508060000154908060010160009054906101000a900473ffffffffffffffffffffffffffffffffffffffff1690806002018054620021439062002e12565b80601f0160208091040260200160405190810160405280929190818152602001828054620021719062002e12565b8015620021c25780601f106200219657610100808354040283529160200191620021c2565b820191906000526020600020905b815481529060010190602001808311620021a457829003601f168201915b505050505090806003018054620021d99062002e12565b80601f0160208091040260200160405190810160405280929190818152602001828054620022079062002e12565b8015620022585780601f106200222c5761010080835404028352916020019162002258565b820191906000526020600020905b8154815290600101906020018083116200223a57829003601f168201915b5050505050905084565b600481815481106200227357600080fd5b906000526020600020016000915054906101000a900473ffffffffffffffffffffffffffffffffffffffff1681565b6200233e8282604051602401620022bb929190620036e4565b6040516020818303038152906040527fb60e72cc000000000000000000000000000000000000000000000000000000007bffffffffffffffffffffffffffffffffffffffffffffffffffffffff19166020820180517bffffffffffffffffffffffffffffffffffffffffffffffffffffffff838183161783525050505062002525565b5050565b620023de82826040516024016200235b92919062003718565b6040516020818303038152906040527f319af333000000000000000000000000000000000000000000000000000000007bffffffffffffffffffffffffffffffffffffffffffffffffffffffff19166020820180517bffffffffffffffffffffffffffffffffffffffffffffffffffffffff838183161783525050505062002525565b5050565b6200247c81604051602401620023f991906200374c565b6040516020818303038152906040527f41304fac000000000000000000000000000000000000000000000000000000007bffffffffffffffffffffffffffffffffffffffffffffffffffffffff19166020820180517bffffffffffffffffffffffffffffffffffffffffffffffffffffffff838183161783525050505062002525565b50565b6200251f848484846040516024016200249c949392919062003770565b6040516020818303038152906040527fc67ea9d1000000000000000000000000000000000000000000000000000000007bffffffffffffffffffffffffffffffffffffffffffffffffffffffff19166020820180517bffffffffffffffffffffffffffffffffffffffffffffffffffffffff838183161783525050505062002525565b50505050565b60008151905060006a636f6e736f6c652e6c6f679050602083016000808483855afa5050505050565b611ba480620037cc83390190565b6000604051905090565b600080fd5b600080fd5b600080fd5b600080fd5b6000601f19601f8301169050919050565b7f4e487b7100000000000000000000000000000000000000000000000000000000600052604160045260246000fd5b620025c5826200257a565b810181811067ffffffffffffffff82111715620025e757620025e66200258b565b5b80604052505050565b6000620025fc6200255c565b90506200260a8282620025ba565b919050565b600067ffffffffffffffff8211156200262d576200262c6200258b565b5b62002638826200257a565b9050602081019050919050565b82818337600083830152505050565b60006200266b62002665846200260f565b620025f0565b9050828152602081018484840111156200268a576200268962002575565b5b6200269784828562002645565b509392505050565b600082601f830112620026b757620026b662002570565b5b8135620026c984826020860162002654565b91505092915050565b600073ffffffffffffffffffffffffffffffffffffffff82169050919050565b6000620026ff82620026d2565b9050919050565b6200271181620026f2565b81146200271d57600080fd5b50565b600081359050620027318162002706565b92915050565b6000819050919050565b6200274c8162002737565b81146200275857600080fd5b50565b6000813590506200276c8162002741565b92915050565b600080600080608085870312156200278f576200278e62002566565b5b600085013567ffffffffffffffff811115620027b057620027af6200256b565b5b620027be878288016200269f565b9450506020620027d18782880162002720565b9350506040620027e48782880162002720565b9250506060620027f7878288016200275b565b91505092959194509250565b60006200281082620026f2565b9050919050565b620028228162002803565b81146200282e57600080fd5b50565b600081359050620028428162002817565b92915050565b6000806040838503121562002862576200286162002566565b5b6000620028728582860162002831565b9250506020620028858582860162002720565b9150509250929050565b60008060408385031215620028a957620028a862002566565b5b6000620028b98582860162002720565b9250506020620028cc858286016200275b565b9150509250929050565b600081519050919050565b600082825260208201905092915050565b60005b8381101562002912578082015181840152602081019050620028f5565b60008484015250505050565b60006200292b82620028d6565b620029378185620028e1565b935062002949818560208601620028f2565b62002954816200257a565b840191505092915050565b6200296a81620026f2565b82525050565b6200297b8162002737565b82525050565b60008115159050919050565b620029988162002981565b82525050565b7f4e487b7100000000000000000000000000000000000000000000000000000000600052602160045260246000fd5b60038110620029e157620029e06200299e565b5b50565b6000819050620029f482620029cd565b919050565b600062002a0682620029e4565b9050919050565b62002a1881620029f9565b82525050565b600061010082019050818103600083015262002a3b818b6200291e565b905062002a4c602083018a6200295f565b62002a5b60408301896200295f565b62002a6a606083018862002970565b62002a79608083018762002970565b62002a8860a08301866200298d565b62002a9760c083018562002a0d565b62002aa660e083018462002970565b9998505050505050505050565b600060208201905062002aca60008301846200295f565b92915050565b600060208201905062002ae7600083018462002970565b92915050565b60006020828403121562002b065762002b0562002566565b5b600062002b168482850162002831565b91505092915050565b6000806040838503121562002b395762002b3862002566565b5b600062002b498582860162002720565b925050602062002b5c8582860162002720565b9150509250929050565b6003811062002b7457600080fd5b50565b60008135905062002b888162002b66565b92915050565b6000806040838503121562002ba85762002ba762002566565b5b600062002bb8858286016200275b565b925050602062002bcb8582860162002b77565b9150509250929050565b600060408201905062002bec600083018562002970565b62002bfb602083018462002a0d565b9392505050565b60006020828403121562002c1b5762002c1a62002566565b5b600062002c2b8482850162002720565b91505092915050565b6000819050919050565b600062002c5f62002c5962002c5384620026d2565b62002c34565b620026d2565b9050919050565b600062002c738262002c3e565b9050919050565b600062002c878262002c66565b9050919050565b62002c998162002c7a565b82525050565b600060208201905062002cb6600083018462002c8e565b92915050565b60008060006060848603121562002cd85762002cd762002566565b5b600062002ce8868287016200275b565b935050602084013567ffffffffffffffff81111562002d0c5762002d0b6200256b565b5b62002d1a868287016200269f565b925050604084013567ffffffffffffffff81111562002d3e5762002d3d6200256b565b5b62002d4c868287016200269f565b9150509250925092565b600060808201905062002d6d600083018762002970565b62002d7c60208301866200295f565b818103604083015262002d9081856200291e565b9050818103606083015262002da681846200291e565b905095945050505050565b60006020828403121562002dca5762002dc962002566565b5b600062002dda848285016200275b565b91505092915050565b7f4e487b7100000000000000000000000000000000000000000000000000000000600052602260045260246000fd5b6000600282049050600182168062002e2b57607f821691505b60208210810362002e415762002e4062002de3565b5b50919050565b7f4e487b7100000000000000000000000000000000000000000000000000000000600052603260045260246000fd5b7f4e487b7100000000000000000000000000000000000000000000000000000000600052601160045260246000fd5b600062002eb28262002737565b91507fffffffffffffffffffffffffffffffffffffffffffffffffffffffffffffffff820362002ee75762002ee662002e76565b5b600182019050919050565b600062002eff8262002737565b915062002f0c8362002737565b925082820190508082111562002f275762002f2662002e76565b5b92915050565b60008190508160005260206000209050919050565b60006020601f8301049050919050565b600082821b905092915050565b60006008830262002f917fffffffffffffffffffffffffffffffffffffffffffffffffffffffffffffffff8262002f52565b62002f9d868362002f52565b95508019841693508086168417925050509392505050565b600062002fd662002fd062002fca8462002737565b62002c34565b62002737565b9050919050565b6000819050919050565b62002ff28362002fb5565b6200300a620030018262002fdd565b84845462002f5f565b825550505050565b600090565b6200302162003012565b6200302e81848462002fe7565b505050565b5b8181101562003056576200304a60008262003017565b60018101905062003034565b5050565b601f821115620030a5576200306f8162002f2d565b6200307a8462002f42565b810160208510156200308a578190505b620030a2620030998562002f42565b83018262003033565b50505b505050565b600082821c905092915050565b6000620030ca60001984600802620030aa565b1980831691505092915050565b6000620030e58383620030b7565b9150826002028217905092915050565b6200310082620028d6565b67ffffffffffffffff8111156200311c576200311b6200258b565b5b62003128825462002e12565b620031358282856200305a565b600060209050601f8311600181146200316d576000841562003158578287015190505b620031648582620030d7565b865550620031d4565b601f1984166200317d8662002f2d565b60005b82811015620031a75784890151825560018201915060208501945060208101905062003180565b86831015620031c75784890151620031c3601f891682620030b7565b8355505b6001600288020188555050505b505050505050565b600082825260208201905092915050565b6000620031fa82620028d6565b620032068185620031dc565b935062003218818560208601620028f2565b62003223816200257a565b840191505092915050565b6200323981620026f2565b82525050565b6200324a8162002737565b82525050565b6200325b8162002981565b82525050565b6200326c81620029f9565b82525050565b6000610100830160008301518482036000860152620032928282620031ed565b9150506020830151620032a960208601826200322e565b506040830151620032be60408601826200322e565b506060830151620032d360608601826200323f565b506080830151620032e860808601826200323f565b5060a0830151620032fd60a086018262003250565b5060c08301516200331260c086018262003261565b5060e08301516200332760e08601826200323f565b508091505092915050565b600060608201905081810360008301526200334e818662003272565b90506200335f60208301856200295f565b6200336e60408301846200295f565b949350505050565b7f546f6b656e206973206e6f74206f776e656420627920796f757220706172656e60008201527f7400000000000000000000000000000000000000000000000000000000000000602082015250565b6000620033d4602183620028e1565b9150620033e18262003376565b604082019050919050565b600060208201905081810360008301526200340781620033c5565b9050919050565b7f536f72727920796f757220636c61696d20706572696f64206973206e6f74207660008201527f616c696400000000000000000000000000000000000000000000000000000000602082015250565b60006200346c602483620028e1565b915062003479826200340e565b604082019050919050565b600060208201905081810360008301526200349f816200345d565b9050919050565b6000604082019050620034bd60008301856200295f565b620034cc602083018462002970565b9392505050565b620034de8162002981565b8114620034ea57600080fd5b50565b600081519050620034fe81620034d3565b92915050565b6000602082840312156200351d576200351c62002566565b5b60006200352d84828501620034ed565b91505092915050565b600081519050620035478162002741565b92915050565b60006020828403121562003566576200356562002566565b5b6000620035768482850162003536565b91505092915050565b7f4e487b7100000000000000000000000000000000000000000000000000000000600052601260045260246000fd5b6000620035bb8262002737565b9150620035c88362002737565b925082620035db57620035da6200357f565b5b828204905092915050565b6000620035f38262002737565b9150620036008362002737565b9250828202620036108162002737565b915082820484148315176200362a576200362962002e76565b5b5092915050565b60006200363e8262002737565b91506200364b8362002737565b925082820390508181111562003666576200366562002e76565b5b92915050565b600060608201905062003683600083018662002970565b81810360208301526200369781856200291e565b90508181036040830152620036ad81846200291e565b9050949350505050565b6000604082019050620036ce60008301856200295f565b620036dd60208301846200295f565b9392505050565b600060408201905081810360008301526200370081856200291e565b905062003711602083018462002970565b9392505050565b600060408201905081810360008301526200373481856200291e565b90506200374560208301846200295f565b9392505050565b600060208201905081810360008301526200376881846200291e565b905092915050565b600060808201905081810360008301526200378c81876200291e565b90506200379d602083018662002970565b8181036040830152620037b181856200291e565b9050620037c2606083018462002970565b9594505050505056fe60806040523480156200001157600080fd5b5060405162001ba438038062001ba48339818101604052810190620000379190620003bf565b818181600390816200004a91906200069a565b5080600490816200005c91906200069a565b5050506200007133846200007a60201b60201c565b5050506200089c565b600073ffffffffffffffffffffffffffffffffffffffff168273ffffffffffffffffffffffffffffffffffffffff1603620000ec576040517f08c379a0000000000000000000000000000000000000000000000000000000008152600401620000e390620007e2565b60405180910390fd5b6200010060008383620001e760201b60201c565b806002600082825462000114919062000833565b92505081905550806000808473ffffffffffffffffffffffffffffffffffffffff1673ffffffffffffffffffffffffffffffffffffffff168152602001908152602001600020600082825401925050819055508173ffffffffffffffffffffffffffffffffffffffff16600073ffffffffffffffffffffffffffffffffffffffff167fddf252ad1be2c89b69c2b068fc378daa952ba7f163c4a11628f55a4df523b3ef83604051620001c791906200087f565b60405180910390a3620001e360008383620001ec60201b60201c565b5050565b505050565b505050565b6000604051905090565b600080fd5b600080fd5b6000819050919050565b6200021a8162000205565b81146200022657600080fd5b50565b6000815190506200023a816200020f565b92915050565b600080fd5b600080fd5b6000601f19601f8301169050919050565b7f4e487b7100000000000000000000000000000000000000000000000000000000600052604160045260246000fd5b62000295826200024a565b810181811067ffffffffffffffff82111715620002b757620002b66200025b565b5b80604052505050565b6000620002cc620001f1565b9050620002da82826200028a565b919050565b600067ffffffffffffffff821115620002fd57620002fc6200025b565b5b62000308826200024a565b9050602081019050919050565b60005b838110156200033557808201518184015260208101905062000318565b60008484015250505050565b6000620003586200035284620002df565b620002c0565b90508281526020810184848401111562000377576200037662000245565b5b6200038484828562000315565b509392505050565b600082601f830112620003a457620003a362000240565b5b8151620003b684826020860162000341565b91505092915050565b600080600060608486031215620003db57620003da620001fb565b5b6000620003eb8682870162000229565b935050602084015167ffffffffffffffff8111156200040f576200040e62000200565b5b6200041d868287016200038c565b925050604084015167ffffffffffffffff81111562000441576200044062000200565b5b6200044f868287016200038c565b9150509250925092565b600081519050919050565b7f4e487b7100000000000000000000000000000000000000000000000000000000600052602260045260246000fd5b60006002820490506001821680620004ac57607f821691505b602082108103620004c257620004c162000464565b5b50919050565b60008190508160005260206000209050919050565b60006020601f8301049050919050565b600082821b905092915050565b6000600883026200052c7fffffffffffffffffffffffffffffffffffffffffffffffffffffffffffffffff82620004ed565b620005388683620004ed565b95508019841693508086168417925050509392505050565b6000819050919050565b60006200057b620005756200056f8462000205565b62000550565b62000205565b9050919050565b6000819050919050565b62000597836200055a565b620005af620005a68262000582565b848454620004fa565b825550505050565b600090565b620005c6620005b7565b620005d38184846200058c565b505050565b5b81811015620005fb57620005ef600082620005bc565b600181019050620005d9565b5050565b601f8211156200064a576200061481620004c8565b6200061f84620004dd565b810160208510156200062f578190505b620006476200063e85620004dd565b830182620005d8565b50505b505050565b600082821c905092915050565b60006200066f600019846008026200064f565b1980831691505092915050565b60006200068a83836200065c565b9150826002028217905092915050565b620006a58262000459565b67ffffffffffffffff811115620006c157620006c06200025b565b5b620006cd825462000493565b620006da828285620005ff565b600060209050601f831160018114620007125760008415620006fd578287015190505b6200070985826200067c565b86555062000779565b601f1984166200072286620004c8565b60005b828110156200074c5784890151825560018201915060208501945060208101905062000725565b868310156200076c578489015162000768601f8916826200065c565b8355505b6001600288020188555050505b505050505050565b600082825260208201905092915050565b7f45524332303a206d696e7420746f20746865207a65726f206164647265737300600082015250565b6000620007ca601f8362000781565b9150620007d78262000792565b602082019050919050565b60006020820190508181036000830152620007fd81620007bb565b9050919050565b7f4e487b7100000000000000000000000000000000000000000000000000000000600052601160045260246000fd5b6000620008408262000205565b91506200084d8362000205565b925082820190508082111562000868576200086762000804565b5b92915050565b620008798162000205565b82525050565b60006020820190506200089660008301846200086e565b92915050565b6112f880620008ac6000396000f3fe608060405234801561001057600080fd5b50600436106100b45760003560e01c80633950935111610071578063395093511461019157806370a08231146101c157806395d89b41146101f1578063a457c2d71461020f578063a9059cbb1461023f578063dd62ed3e1461026f576100b4565b806306fdde03146100b9578063095ea7b3146100d757806318160ddd14610107578063230b9da31461012557806323b872dd14610143578063313ce56714610173575b600080fd5b6100c161029f565b6040516100ce9190610b5b565b60405180910390f35b6100f160048036038101906100ec9190610c16565b610331565b6040516100fe9190610c71565b60405180910390f35b61010f610354565b60405161011c9190610c9b565b60405180910390f35b61012d61035e565b60405161013a9190610d15565b60405180910390f35b61015d60048036038101906101589190610d30565b610384565b60405161016a9190610c71565b60405180910390f35b61017b6103b3565b6040516101889190610d9f565b60405180910390f35b6101ab60048036038101906101a69190610c16565b6103bc565b6040516101b89190610c71565b60405180910390f35b6101db60048036038101906101d69190610dba565b6103f3565b6040516101e89190610c9b565b60405180910390f35b6101f961043b565b6040516102069190610b5b565b60405180910390f35b61022960048036038101906102249190610c16565b6104cd565b6040516102369190610c71565b60405180910390f35b61025960048036038101906102549190610c16565b610544565b6040516102669190610c71565b60405180910390f35b61028960048036038101906102849190610de7565b610567565b6040516102969190610c9b565b60405180910390f35b6060600380546102ae90610e56565b80601f01602080910402602001604051908101604052809291908181526020018280546102da90610e56565b80156103275780601f106102fc57610100808354040283529160200191610327565b820191906000526020600020905b81548152906001019060200180831161030a57829003601f168201915b5050505050905090565b60008061033c6105ee565b90506103498185856105f6565b600191505092915050565b6000600254905090565b600560009054906101000a900473ffffffffffffffffffffffffffffffffffffffff1681565b60008061038f6105ee565b905061039c8582856107bf565b6103a785858561084b565b60019150509392505050565b60006012905090565b6000806103c76105ee565b90506103e88185856103d98589610567565b6103e39190610eb6565b6105f6565b600191505092915050565b60008060008373ffffffffffffffffffffffffffffffffffffffff1673ffffffffffffffffffffffffffffffffffffffff168152602001908152602001600020549050919050565b60606004805461044a90610e56565b80601f016020809104026020016040519081016040528092919081815260200182805461047690610e56565b80156104c35780601f10610498576101008083540402835291602001916104c3565b820191906000526020600020905b8154815290600101906020018083116104a657829003601f168201915b5050505050905090565b6000806104d86105ee565b905060006104e68286610567565b90508381101561052b576040517f08c379a000000000000000000000000000000000000000000000000000000000815260040161052290610f5c565b60405180910390fd5b61053882868684036105f6565b60019250505092915050565b60008061054f6105ee565b905061055c81858561084b565b600191505092915050565b6000600160008473ffffffffffffffffffffffffffffffffffffffff1673ffffffffffffffffffffffffffffffffffffffff16815260200190815260200160002060008373ffffffffffffffffffffffffffffffffffffffff1673ffffffffffffffffffffffffffffffffffffffff16815260200190815260200160002054905092915050565b600033905090565b600073ffffffffffffffffffffffffffffffffffffffff168373ffffffffffffffffffffffffffffffffffffffff1603610665576040517f08c379a000000000000000000000000000000000000000000000000000000000815260040161065c90610fee565b60405180910390fd5b600073ffffffffffffffffffffffffffffffffffffffff168273ffffffffffffffffffffffffffffffffffffffff16036106d4576040517f08c379a00000000000000000000000000000000000000000000000000000000081526004016106cb90611080565b60405180910390fd5b80600160008573ffffffffffffffffffffffffffffffffffffffff1673ffffffffffffffffffffffffffffffffffffffff16815260200190815260200160002060008473ffffffffffffffffffffffffffffffffffffffff1673ffffffffffffffffffffffffffffffffffffffff168152602001908152602001600020819055508173ffffffffffffffffffffffffffffffffffffffff168373ffffffffffffffffffffffffffffffffffffffff167f8c5be1e5ebec7d5bd14f71427d1e84f3dd0314c0f7b2291e5b200ac8c7c3b925836040516107b29190610c9b565b60405180910390a3505050565b60006107cb8484610567565b90507fffffffffffffffffffffffffffffffffffffffffffffffffffffffffffffffff81146108455781811015610837576040517f08c379a000000000000000000000000000000000000000000000000000000000815260040161082e906110ec565b60405180910390fd5b61084484848484036105f6565b5b50505050565b600073ffffffffffffffffffffffffffffffffffffffff168373ffffffffffffffffffffffffffffffffffffffff16036108ba576040517f08c379a00000000000000000000000000000000000000000000000000000000081526004016108b19061117e565b60405180910390fd5b600073ffffffffffffffffffffffffffffffffffffffff168273ffffffffffffffffffffffffffffffffffffffff1603610929576040517f08c379a000000000000000000000000000000000000000000000000000000000815260040161092090611210565b60405180910390fd5b610934838383610ac1565b60008060008573ffffffffffffffffffffffffffffffffffffffff1673ffffffffffffffffffffffffffffffffffffffff168152602001908152602001600020549050818110156109ba576040517f08c379a00000000000000000000000000000000000000000000000000000000081526004016109b1906112a2565b60405180910390fd5b8181036000808673ffffffffffffffffffffffffffffffffffffffff1673ffffffffffffffffffffffffffffffffffffffff16815260200190815260200160002081905550816000808573ffffffffffffffffffffffffffffffffffffffff1673ffffffffffffffffffffffffffffffffffffffff168152602001908152602001600020600082825401925050819055508273ffffffffffffffffffffffffffffffffffffffff168473ffffffffffffffffffffffffffffffffffffffff167fddf252ad1be2c89b69c2b068fc378daa952ba7f163c4a11628f55a4df523b3ef84604051610aa89190610c9b565b60405180910390a3610abb848484610ac6565b50505050565b505050565b505050565b600081519050919050565b600082825260208201905092915050565b60005b83811015610b05578082015181840152602081019050610aea565b60008484015250505050565b6000601f19601f8301169050919050565b6000610b2d82610acb565b610b378185610ad6565b9350610b47818560208601610ae7565b610b5081610b11565b840191505092915050565b60006020820190508181036000830152610b758184610b22565b905092915050565b600080fd5b600073ffffffffffffffffffffffffffffffffffffffff82169050919050565b6000610bad82610b82565b9050919050565b610bbd81610ba2565b8114610bc857600080fd5b50565b600081359050610bda81610bb4565b92915050565b6000819050919050565b610bf381610be0565b8114610bfe57600080fd5b50565b600081359050610c1081610bea565b92915050565b60008060408385031215610c2d57610c2c610b7d565b5b6000610c3b85828601610bcb565b9250506020610c4c85828601610c01565b9150509250929050565b60008115159050919050565b610c6b81610c56565b82525050565b6000602082019050610c866000830184610c62565b92915050565b610c9581610be0565b82525050565b6000602082019050610cb06000830184610c8c565b92915050565b6000819050919050565b6000610cdb610cd6610cd184610b82565b610cb6565b610b82565b9050919050565b6000610ced82610cc0565b9050919050565b6000610cff82610ce2565b9050919050565b610d0f81610cf4565b82525050565b6000602082019050610d2a6000830184610d06565b92915050565b600080600060608486031215610d4957610d48610b7d565b5b6000610d5786828701610bcb565b9350506020610d6886828701610bcb565b9250506040610d7986828701610c01565b9150509250925092565b600060ff82169050919050565b610d9981610d83565b82525050565b6000602082019050610db46000830184610d90565b92915050565b600060208284031215610dd057610dcf610b7d565b5b6000610dde84828501610bcb565b91505092915050565b60008060408385031215610dfe57610dfd610b7d565b5b6000610e0c85828601610bcb565b9250506020610e1d85828601610bcb565b9150509250929050565b7f4e487b7100000000000000000000000000000000000000000000000000000000600052602260045260246000fd5b60006002820490506001821680610e6e57607f821691505b602082108103610e8157610e80610e27565b5b50919050565b7f4e487b7100000000000000000000000000000000000000000000000000000000600052601160045260246000fd5b6000610ec182610be0565b9150610ecc83610be0565b9250828201905080821115610ee457610ee3610e87565b5b92915050565b7f45524332303a2064656372656173656420616c6c6f77616e63652062656c6f7760008201527f207a65726f000000000000000000000000000000000000000000000000000000602082015250565b6000610f46602583610ad6565b9150610f5182610eea565b604082019050919050565b60006020820190508181036000830152610f7581610f39565b9050919050565b7f45524332303a20617070726f76652066726f6d20746865207a65726f2061646460008201527f7265737300000000000000000000000000000000000000000000000000000000602082015250565b6000610fd8602483610ad6565b9150610fe382610f7c565b604082019050919050565b6000602082019050818103600083015261100781610fcb565b9050919050565b7f45524332303a20617070726f766520746f20746865207a65726f20616464726560008201527f7373000000000000000000000000000000000000000000000000000000000000602082015250565b600061106a602283610ad6565b91506110758261100e565b604082019050919050565b600060208201905081810360008301526110998161105d565b9050919050565b7f45524332303a20696e73756666696369656e7420616c6c6f77616e6365000000600082015250565b60006110d6601d83610ad6565b91506110e1826110a0565b602082019050919050565b60006020820190508181036000830152611105816110c9565b9050919050565b7f45524332303a207472616e736665722066726f6d20746865207a65726f20616460008201527f6472657373000000000000000000000000000000000000000000000000000000602082015250565b6000611168602583610ad6565b91506111738261110c565b604082019050919050565b600060208201905081810360008301526111978161115b565b9050919050565b7f45524332303a207472616e7366657220746f20746865207a65726f206164647260008201527f6573730000000000000000000000000000000000000000000000000000000000602082015250565b60006111fa602383610ad6565b91506112058261119e565b604082019050919050565b60006020820190508181036000830152611229816111ed565b9050919050565b7f45524332303a207472616e7366657220616d6f756e742065786365656473206260008201527f616c616e63650000000000000000000000000000000000000000000000000000602082015250565b600061128c602683610ad6565b915061129782611230565b604082019050919050565b600060208201905081810360008301526112bb8161127f565b905091905056fea26469706673582212204e4a866083893c17366df268beca17db6de026490a463ad9161789ebd15dd10e64736f6c63430008110033a2646970667358221220e6f5341ba096a6223051842ba053db51d841471df3723b2d92dd9f36d3d9bc6d64736f6c63430008110033",
  "devdoc": {
    "author": "Bram Mathijssen",
    "details": "Currently under construction",
    "kind": "dev",
    "methods": {},
    "title": "A contract for parents to supply (pocket) money as a stream to their child(ren)",
    "version": 1
  },
  "userdoc": {
    "kind": "user",
    "methods": {
      "nextWeek()": {
        "notice": "testing -> safe to delete"
      },
      "setNextWeek()": {
        "notice": "testing -> safe to delete"
      },
      "test()": {
        "notice": "testing -> safe to delete"
      }
    },
    "notice": "This contract is used by both the parent as the children",
    "version": 1
  },
  "storageLayout": {
    "storage": [
      {
        "astId": 1369,
        "contract": "contracts/ParentContract.sol:ParentContract",
        "label": "owner",
        "offset": 0,
        "slot": "0",
        "type": "t_address"
      },
      {
        "astId": 1372,
        "contract": "contracts/ParentContract.sol:ParentContract",
        "label": "tokenCreator",
        "offset": 0,
        "slot": "1",
        "type": "t_contract(TokenCreator)2155"
      },
      {
        "astId": 1374,
        "contract": "contracts/ParentContract.sol:ParentContract",
        "label": "currentTime",
        "offset": 0,
        "slot": "2",
        "type": "t_uint256"
      },
      {
        "astId": 1376,
        "contract": "contracts/ParentContract.sol:ParentContract",
        "label": "contractDeployedTime",
        "offset": 0,
        "slot": "3",
        "type": "t_uint256"
      },
      {
        "astId": 1379,
        "contract": "contracts/ParentContract.sol:ParentContract",
        "label": "s_createdTokenAddresses",
        "offset": 0,
        "slot": "4",
        "type": "t_array(t_address)dyn_storage"
      },
      {
        "astId": 1385,
        "contract": "contracts/ParentContract.sol:ParentContract",
        "label": "parentToTokensMapping",
        "offset": 0,
        "slot": "5",
        "type": "t_mapping(t_address,t_array(t_struct(Token)1433_storage)dyn_storage)"
      },
      {
        "astId": 1391,
        "contract": "contracts/ParentContract.sol:ParentContract",
        "label": "parentToChildMapping",
        "offset": 0,
        "slot": "6",
        "type": "t_mapping(t_address,t_array(t_struct(Child)1424_storage)dyn_storage)"
      },
      {
        "astId": 1398,
        "contract": "contracts/ParentContract.sol:ParentContract",
        "label": "parentToChildMappingNested",
        "offset": 0,
        "slot": "7",
        "type": "t_mapping(t_address,t_mapping(t_address,t_struct(Child)1424_storage))"
      },
      {
        "astId": 1402,
        "contract": "contracts/ParentContract.sol:ParentContract",
        "label": "childToParentMapping",
        "offset": 0,
        "slot": "8",
        "type": "t_mapping(t_address,t_address)"
      },
      {
        "astId": 2112,
        "contract": "contracts/ParentContract.sol:ParentContract",
        "label": "nextWeek",
        "offset": 0,
        "slot": "9",
        "type": "t_uint256"
      }
    ],
    "types": {
      "t_address": {
        "encoding": "inplace",
        "label": "address",
        "numberOfBytes": "20"
      },
      "t_array(t_address)dyn_storage": {
        "base": "t_address",
        "encoding": "dynamic_array",
        "label": "address[]",
        "numberOfBytes": "32"
      },
      "t_array(t_struct(Child)1424_storage)dyn_storage": {
        "base": "t_struct(Child)1424_storage",
        "encoding": "dynamic_array",
        "label": "struct ParentContract.Child[]",
        "numberOfBytes": "32"
      },
      "t_array(t_struct(Token)1433_storage)dyn_storage": {
        "base": "t_struct(Token)1433_storage",
        "encoding": "dynamic_array",
        "label": "struct ParentContract.Token[]",
        "numberOfBytes": "32"
      },
      "t_bool": {
        "encoding": "inplace",
        "label": "bool",
        "numberOfBytes": "1"
      },
      "t_contract(TokenCreator)2155": {
        "encoding": "inplace",
        "label": "contract TokenCreator",
        "numberOfBytes": "20"
      },
      "t_enum(ClaimPeriod)1406": {
        "encoding": "inplace",
        "label": "enum ParentContract.ClaimPeriod",
        "numberOfBytes": "1"
      },
      "t_mapping(t_address,t_address)": {
        "encoding": "mapping",
        "key": "t_address",
        "label": "mapping(address => address)",
        "numberOfBytes": "32",
        "value": "t_address"
      },
      "t_mapping(t_address,t_array(t_struct(Child)1424_storage)dyn_storage)": {
        "encoding": "mapping",
        "key": "t_address",
        "label": "mapping(address => struct ParentContract.Child[])",
        "numberOfBytes": "32",
        "value": "t_array(t_struct(Child)1424_storage)dyn_storage"
      },
      "t_mapping(t_address,t_array(t_struct(Token)1433_storage)dyn_storage)": {
        "encoding": "mapping",
        "key": "t_address",
        "label": "mapping(address => struct ParentContract.Token[])",
        "numberOfBytes": "32",
        "value": "t_array(t_struct(Token)1433_storage)dyn_storage"
      },
      "t_mapping(t_address,t_mapping(t_address,t_struct(Child)1424_storage))": {
        "encoding": "mapping",
        "key": "t_address",
        "label": "mapping(address => mapping(address => struct ParentContract.Child))",
        "numberOfBytes": "32",
        "value": "t_mapping(t_address,t_struct(Child)1424_storage)"
      },
      "t_mapping(t_address,t_struct(Child)1424_storage)": {
        "encoding": "mapping",
        "key": "t_address",
        "label": "mapping(address => struct ParentContract.Child)",
        "numberOfBytes": "32",
        "value": "t_struct(Child)1424_storage"
      },
      "t_string_storage": {
        "encoding": "bytes",
        "label": "string",
        "numberOfBytes": "32"
      },
      "t_struct(Child)1424_storage": {
        "encoding": "inplace",
        "label": "struct ParentContract.Child",
        "members": [
          {
            "astId": 1408,
            "contract": "contracts/ParentContract.sol:ParentContract",
            "label": "name",
            "offset": 0,
            "slot": "0",
            "type": "t_string_storage"
          },
          {
            "astId": 1410,
            "contract": "contracts/ParentContract.sol:ParentContract",
            "label": "childAddress",
            "offset": 0,
            "slot": "1",
            "type": "t_address"
          },
          {
            "astId": 1412,
            "contract": "contracts/ParentContract.sol:ParentContract",
            "label": "tokenPreference",
            "offset": 0,
            "slot": "2",
            "type": "t_address"
          },
          {
            "astId": 1414,
            "contract": "contracts/ParentContract.sol:ParentContract",
            "label": "baseAmount",
            "offset": 0,
            "slot": "3",
            "type": "t_uint256"
          },
          {
            "astId": 1416,
            "contract": "contracts/ParentContract.sol:ParentContract",
            "label": "claimableAmount",
            "offset": 0,
            "slot": "4",
            "type": "t_uint256"
          },
          {
            "astId": 1418,
            "contract": "contracts/ParentContract.sol:ParentContract",
            "label": "claimValid",
            "offset": 0,
            "slot": "5",
            "type": "t_bool"
          },
          {
            "astId": 1421,
            "contract": "contracts/ParentContract.sol:ParentContract",
            "label": "claimPeriod",
            "offset": 1,
            "slot": "5",
            "type": "t_enum(ClaimPeriod)1406"
          },
          {
            "astId": 1423,
            "contract": "contracts/ParentContract.sol:ParentContract",
            "label": "nextClaimPeriod",
            "offset": 0,
            "slot": "6",
            "type": "t_uint256"
          }
        ],
        "numberOfBytes": "224"
      },
      "t_struct(Token)1433_storage": {
        "encoding": "inplace",
        "label": "struct ParentContract.Token",
        "members": [
          {
            "astId": 1426,
            "contract": "contracts/ParentContract.sol:ParentContract",
            "label": "supply",
            "offset": 0,
            "slot": "0",
            "type": "t_uint256"
          },
          {
            "astId": 1428,
            "contract": "contracts/ParentContract.sol:ParentContract",
            "label": "tokenAddress",
            "offset": 0,
            "slot": "1",
            "type": "t_address"
          },
          {
            "astId": 1430,
            "contract": "contracts/ParentContract.sol:ParentContract",
            "label": "name",
            "offset": 0,
            "slot": "2",
            "type": "t_string_storage"
          },
          {
            "astId": 1432,
            "contract": "contracts/ParentContract.sol:ParentContract",
            "label": "symbol",
            "offset": 0,
            "slot": "3",
            "type": "t_string_storage"
          }
        ],
        "numberOfBytes": "128"
      },
      "t_uint256": {
        "encoding": "inplace",
        "label": "uint256",
        "numberOfBytes": "32"
      }
    }
  }
}