{
  "address": "0x5fb768652Ab215D4b3ff1f80cc35E09DAC7E0caA",
  "abi": [
    {
      "inputs": [],
      "name": "ParentContract__ChildHasAlreadyBeenAddedByAParent",
      "type": "error"
    },
    {
      "inputs": [],
      "name": "ParentContract__ClaimMomentIsNotValid",
      "type": "error"
    },
    {
      "inputs": [],
      "name": "ParentContract__ClaimedTokenIsNotEqualToPreferedToken",
      "type": "error"
    },
    {
      "inputs": [],
      "name": "ParentContract__NotOwnerOfToken",
      "type": "error"
    },
    {
      "inputs": [],
      "name": "ParentContract__TokenNotOwnedByParent",
      "type": "error"
    },
    {
      "anonymous": false,
      "inputs": [
        {
          "indexed": true,
          "internalType": "address",
          "name": "parentAddress",
          "type": "address"
        },
        {
          "indexed": true,
          "internalType": "address",
          "name": "childAddress",
          "type": "address"
        },
        {
          "components": [
            {
              "internalType": "string",
              "name": "name",
              "type": "string"
            },
            {
              "internalType": "address",
              "name": "childAddress",
              "type": "address"
            },
            {
              "internalType": "address",
              "name": "tokenPreference",
              "type": "address"
            },
            {
              "internalType": "uint256",
              "name": "baseAmount",
              "type": "uint256"
            },
            {
              "internalType": "uint256",
              "name": "claimableAmount",
              "type": "uint256"
            },
            {
              "internalType": "bool",
              "name": "claimValid",
              "type": "bool"
            },
            {
              "internalType": "enum ParentContract.ClaimPeriod",
              "name": "claimPeriod",
              "type": "uint8"
            },
            {
              "internalType": "uint256",
              "name": "nextClaimPeriod",
              "type": "uint256"
            }
          ],
          "indexed": false,
          "internalType": "struct ParentContract.Child",
          "name": "child",
          "type": "tuple"
        },
        {
          "indexed": false,
          "internalType": "address",
          "name": "tokenAddress",
          "type": "address"
        },
        {
          "indexed": false,
          "internalType": "uint256",
          "name": "timestamp",
          "type": "uint256"
        }
      ],
      "name": "AllowanceClaimed",
      "type": "event"
    },
    {
      "anonymous": false,
      "inputs": [
        {
          "indexed": true,
          "internalType": "address",
          "name": "parentAddress",
          "type": "address"
        },
        {
          "indexed": false,
          "internalType": "address",
          "name": "childAddress",
          "type": "address"
        },
        {
          "components": [
            {
              "internalType": "string",
              "name": "name",
              "type": "string"
            },
            {
              "internalType": "address",
              "name": "childAddress",
              "type": "address"
            },
            {
              "internalType": "address",
              "name": "tokenPreference",
              "type": "address"
            },
            {
              "internalType": "uint256",
              "name": "baseAmount",
              "type": "uint256"
            },
            {
              "internalType": "uint256",
              "name": "claimableAmount",
              "type": "uint256"
            },
            {
              "internalType": "bool",
              "name": "claimValid",
              "type": "bool"
            },
            {
              "internalType": "enum ParentContract.ClaimPeriod",
              "name": "claimPeriod",
              "type": "uint8"
            },
            {
              "internalType": "uint256",
              "name": "nextClaimPeriod",
              "type": "uint256"
            }
          ],
          "indexed": false,
          "internalType": "struct ParentContract.Child",
          "name": "child",
          "type": "tuple"
        }
      ],
      "name": "ChildAdded",
      "type": "event"
    },
    {
      "anonymous": false,
      "inputs": [
        {
          "indexed": true,
          "internalType": "address",
          "name": "parentAddress",
          "type": "address"
        },
        {
          "indexed": false,
          "internalType": "address",
          "name": "tokenAddress",
          "type": "address"
        },
        {
          "components": [
            {
              "internalType": "uint256",
              "name": "supply",
              "type": "uint256"
            },
            {
              "internalType": "address",
              "name": "tokenAddress",
              "type": "address"
            },
            {
              "internalType": "string",
              "name": "name",
              "type": "string"
            },
            {
              "internalType": "string",
              "name": "symbol",
              "type": "string"
            }
          ],
          "indexed": false,
          "internalType": "struct ParentContract.Token",
          "name": "token",
          "type": "tuple"
        }
      ],
      "name": "TokenCreated",
      "type": "event"
    },
    {
      "inputs": [
        {
          "internalType": "string",
          "name": "_name",
          "type": "string"
        },
        {
          "internalType": "address",
          "name": "_childAddress",
          "type": "address"
        },
        {
          "internalType": "address",
          "name": "_tokenPreference",
          "type": "address"
        },
        {
          "internalType": "uint256",
          "name": "_baseAmount",
          "type": "uint256"
        }
      ],
      "name": "addChild",
      "outputs": [],
      "stateMutability": "nonpayable",
      "type": "function"
    },
    {
      "inputs": [
        {
          "internalType": "uint256",
          "name": "_baseAmount",
          "type": "uint256"
        },
        {
          "internalType": "enum ParentContract.ClaimPeriod",
          "name": "_claimPeriod",
          "type": "uint8"
        }
      ],
      "name": "calculateClaimableAmount",
      "outputs": [
        {
          "internalType": "uint256",
          "name": "claimableAmount_",
          "type": "uint256"
        }
      ],
      "stateMutability": "pure",
      "type": "function"
    },
    {
      "inputs": [
        {
          "internalType": "address",
          "name": "",
          "type": "address"
        }
      ],
      "name": "childToParentMapping",
      "outputs": [
        {
          "internalType": "address",
          "name": "",
          "type": "address"
        }
      ],
      "stateMutability": "view",
      "type": "function"
    },
    {
      "inputs": [
        {
          "internalType": "address",
          "name": "_tokenToBeClaimed",
          "type": "address"
        }
      ],
      "name": "claim",
      "outputs": [],
      "stateMutability": "nonpayable",
      "type": "function"
    },
    {
      "inputs": [
        {
          "internalType": "uint256",
          "name": "_supply",
          "type": "uint256"
        },
        {
          "internalType": "string",
          "name": "_contractName",
          "type": "string"
        },
        {
          "internalType": "string",
          "name": "_contractSymbol",
          "type": "string"
        }
      ],
      "name": "createNewToken",
      "outputs": [],
      "stateMutability": "nonpayable",
      "type": "function"
    },
    {
      "inputs": [],
      "name": "getChildsNextClaimPeriod",
      "outputs": [
        {
          "internalType": "uint256",
          "name": "",
          "type": "uint256"
        },
        {
          "internalType": "enum ParentContract.ClaimPeriod",
          "name": "",
          "type": "uint8"
        }
      ],
      "stateMutability": "view",
      "type": "function"
    },
    {
      "inputs": [],
      "name": "getChildsParent",
      "outputs": [
        {
          "internalType": "address",
          "name": "",
          "type": "address"
        }
      ],
      "stateMutability": "view",
      "type": "function"
    },
    {
      "inputs": [],
      "name": "getCurrentTime",
      "outputs": [
        {
          "internalType": "uint256",
          "name": "",
          "type": "uint256"
        }
      ],
      "stateMutability": "view",
      "type": "function"
    },
    {
      "inputs": [
        {
          "internalType": "contract IERC20",
          "name": "token",
          "type": "address"
        }
      ],
      "name": "getERC20Balance",
      "outputs": [
        {
          "internalType": "uint256",
          "name": "",
          "type": "uint256"
        }
      ],
      "stateMutability": "view",
      "type": "function"
    },
    {
      "inputs": [
        {
          "internalType": "address",
          "name": "",
          "type": "address"
        },
        {
          "internalType": "address",
          "name": "",
          "type": "address"
        }
      ],
      "name": "parentToChildMappingNested",
      "outputs": [
        {
          "internalType": "string",
          "name": "name",
          "type": "string"
        },
        {
          "internalType": "address",
          "name": "childAddress",
          "type": "address"
        },
        {
          "internalType": "address",
          "name": "tokenPreference",
          "type": "address"
        },
        {
          "internalType": "uint256",
          "name": "baseAmount",
          "type": "uint256"
        },
        {
          "internalType": "uint256",
          "name": "claimableAmount",
          "type": "uint256"
        },
        {
          "internalType": "bool",
          "name": "claimValid",
          "type": "bool"
        },
        {
          "internalType": "enum ParentContract.ClaimPeriod",
          "name": "claimPeriod",
          "type": "uint8"
        },
        {
          "internalType": "uint256",
          "name": "nextClaimPeriod",
          "type": "uint256"
        }
      ],
      "stateMutability": "view",
      "type": "function"
    },
    {
      "inputs": [
        {
          "internalType": "address",
          "name": "",
          "type": "address"
        },
        {
          "internalType": "uint256",
          "name": "",
          "type": "uint256"
        }
      ],
      "name": "parentToTokensMapping",
      "outputs": [
        {
          "internalType": "uint256",
          "name": "supply",
          "type": "uint256"
        },
        {
          "internalType": "address",
          "name": "tokenAddress",
          "type": "address"
        },
        {
          "internalType": "string",
          "name": "name",
          "type": "string"
        },
        {
          "internalType": "string",
          "name": "symbol",
          "type": "string"
        }
      ],
      "stateMutability": "view",
      "type": "function"
    },
    {
      "inputs": [],
      "name": "setChildClaimMomentDaily",
      "outputs": [],
      "stateMutability": "nonpayable",
      "type": "function"
    },
    {
      "inputs": [],
      "name": "setChildClaimMomentMonthly",
      "outputs": [],
      "stateMutability": "nonpayable",
      "type": "function"
    },
    {
      "inputs": [],
      "name": "setChildClaimMomentWeekly",
      "outputs": [],
      "stateMutability": "nonpayable",
      "type": "function"
    },
    {
      "inputs": [
        {
          "internalType": "address",
          "name": "_tokenAddress",
          "type": "address"
        }
      ],
      "name": "setChildTokenPreference",
      "outputs": [],
      "stateMutability": "nonpayable",
      "type": "function"
    }
  ],
  "transactionHash": "0x18d3513a8b8a8a8aa650413b8befc88bfca1e50f0f635d9e9b2e2af931146793",
  "args": [],
  "numDeployments": 1,
  "solcInputHash": "8a3c72d11c55861b50026ae4f18ddf8c",
  "bytecode": "0x608060405234801561001057600080fd5b5061512c806100206000396000f3fe60806040523480156200001157600080fd5b50600436106200010c5760003560e01c8063a64cbab611620000a5578063ca7b0072116200006f578063ca7b00721462000299578063d0bd426114620002a5578063f1f7731214620002db578063fbabcdd314620002fb576200010c565b8063a64cbab61462000214578063a6df3af51462000220578063b0f7246b1462000240578063b588d2251462000263576200010c565b806329cb924d11620000e757806329cb924d14620001735780637a4e6c7614620001955780639060def914620001d25780639ca4ec5914620001de576200010c565b80630590b37714620001115780631e83409a146200013157806327689d821462000151575b600080fd5b6200012f6004803603810190620001299190620024df565b62000334565b005b6200014f600480360381019062000149919062002570565b62000b11565b005b6200015b62001246565b6040516200016a9190620025b3565b60405180910390f35b6200017d620012b2565b6040516200018c9190620025e1565b60405180910390f35b620001b36004803603810190620001ad9190620025fe565b620012ba565b604051620001c99897969594939291906200276b565b60405180910390f35b620001dc620013f9565b005b620001fc6004803603810190620001f6919062002828565b620014fc565b6040516200020b9190620025e1565b60405180910390f35b6200021e62001630565b005b6200023e600480360381019062000238919062002570565b62001733565b005b6200024a62001af6565b6040516200025a9291906200286f565b60405180910390f35b6200028160048036038101906200027b9190620028e1565b62001d73565b604051620002909190620025e1565b60405180910390f35b620002a362001e00565b005b620002c36004803603810190620002bd919062002570565b62001f03565b604051620002d29190620025b3565b60405180910390f35b620002f96004803603810190620002f3919062002913565b62001f36565b005b620003196004803603810190620003139190620029ad565b6200212d565b6040516200032b9493929190620029f4565b60405180910390f35b816000600160003373ffffffffffffffffffffffffffffffffffffffff1673ffffffffffffffffffffffffffffffffffffffff168152602001908152602001600020805480602002602001604051908101604052809291908181526020016000905b828210156200055e5783829060005260206000209060040201604051806080016040529081600082015481526020016001820160009054906101000a900473ffffffffffffffffffffffffffffffffffffffff1673ffffffffffffffffffffffffffffffffffffffff1673ffffffffffffffffffffffffffffffffffffffff1681526020016002820180546200042c9062002a7e565b80601f01602080910402602001604051908101604052809291908181526020018280546200045a9062002a7e565b8015620004ab5780601f106200047f57610100808354040283529160200191620004ab565b820191906000526020600020905b8154815290600101906020018083116200048d57829003601f168201915b50505050508152602001600382018054620004c69062002a7e565b80601f0160208091040260200160405190810160405280929190818152602001828054620004f49062002a7e565b8015620005455780601f10620005195761010080835404028352916020019162000545565b820191906000526020600020905b8154815290600101906020018083116200052757829003601f168201915b5050505050815250508152602001906001019062000396565b5050505090506000805b8251811015620005e7578373ffffffffffffffffffffffffffffffffffffffff168382815181106200059f576200059e62002ab3565b5b60200260200101516020015173ffffffffffffffffffffffffffffffffffffffff1603620005d15760019150620005e7565b8080620005de9062002b11565b91505062000568565b508062000620576040517fb08e0c1f00000000000000000000000000000000000000000000000000000000815260040160405180910390fd5b600073ffffffffffffffffffffffffffffffffffffffff16600360008873ffffffffffffffffffffffffffffffffffffffff1673ffffffffffffffffffffffffffffffffffffffff16815260200190815260200160002060009054906101000a900473ffffffffffffffffffffffffffffffffffffffff1673ffffffffffffffffffffffffffffffffffffffff1614620006e6576040517f899ebe9200000000000000000000000000000000000000000000000000000000815260040160405180910390fd5b600073ffffffffffffffffffffffffffffffffffffffff16600260003373ffffffffffffffffffffffffffffffffffffffff1673ffffffffffffffffffffffffffffffffffffffff16815260200190815260200160002060008873ffffffffffffffffffffffffffffffffffffffff1673ffffffffffffffffffffffffffffffffffffffff16815260200190815260200160002060010160009054906101000a900473ffffffffffffffffffffffffffffffffffffffff1673ffffffffffffffffffffffffffffffffffffffff1614620007ec576040517f899ebe9200000000000000000000000000000000000000000000000000000000815260040160405180910390fd5b600062093a80620007fc620012b2565b62000808919062002b5e565b9050600062000819866001620014fc565b905060006040518061010001604052808b81526020018a73ffffffffffffffffffffffffffffffffffffffff1681526020018973ffffffffffffffffffffffffffffffffffffffff16815260200188815260200183815260200160001515815260200160016002811115620008935762000892620026eb565b5b815260200184815250905080600260003373ffffffffffffffffffffffffffffffffffffffff1673ffffffffffffffffffffffffffffffffffffffff16815260200190815260200160002060008b73ffffffffffffffffffffffffffffffffffffffff1673ffffffffffffffffffffffffffffffffffffffff168152602001908152602001600020600082015181600001908162000932919062002d6b565b5060208201518160010160006101000a81548173ffffffffffffffffffffffffffffffffffffffff021916908373ffffffffffffffffffffffffffffffffffffffff16021790555060408201518160020160006101000a81548173ffffffffffffffffffffffffffffffffffffffff021916908373ffffffffffffffffffffffffffffffffffffffff160217905550606082015181600301556080820151816004015560a08201518160050160006101000a81548160ff02191690831515021790555060c08201518160050160016101000a81548160ff0219169083600281111562000a235762000a22620026eb565b5b021790555060e0820151816006015590505033600360008b73ffffffffffffffffffffffffffffffffffffffff1673ffffffffffffffffffffffffffffffffffffffff16815260200190815260200160002060006101000a81548173ffffffffffffffffffffffffffffffffffffffff021916908373ffffffffffffffffffffffffffffffffffffffff1602179055503373ffffffffffffffffffffffffffffffffffffffff167f1d02b79871d7f08ec350cd2c9d6733dee2f61f43e9c8e7a6f7ac1da467b49f278a8360405162000afd92919062002fa8565b60405180910390a250505050505050505050565b60008062000b1e620012b2565b90506000600360003373ffffffffffffffffffffffffffffffffffffffff1673ffffffffffffffffffffffffffffffffffffffff16815260200190815260200160002060009054906101000a900473ffffffffffffffffffffffffffffffffffffffff1690506000600160008373ffffffffffffffffffffffffffffffffffffffff1673ffffffffffffffffffffffffffffffffffffffff168152602001908152602001600020805480602002602001604051908101604052809291908181526020016000905b8282101562000dad5783829060005260206000209060040201604051806080016040529081600082015481526020016001820160009054906101000a900473ffffffffffffffffffffffffffffffffffffffff1673ffffffffffffffffffffffffffffffffffffffff1673ffffffffffffffffffffffffffffffffffffffff16815260200160028201805462000c7b9062002a7e565b80601f016020809104026020016040519081016040528092919081815260200182805462000ca99062002a7e565b801562000cfa5780601f1062000cce5761010080835404028352916020019162000cfa565b820191906000526020600020905b81548152906001019060200180831162000cdc57829003601f168201915b5050505050815260200160038201805462000d159062002a7e565b80601f016020809104026020016040519081016040528092919081815260200182805462000d439062002a7e565b801562000d945780601f1062000d685761010080835404028352916020019162000d94565b820191906000526020600020905b81548152906001019060200180831162000d7657829003601f168201915b5050505050815250508152602001906001019062000be5565b50505050905060005b815181101562000e30578573ffffffffffffffffffffffffffffffffffffffff1682828151811062000ded5762000dec62002ab3565b5b60200260200101516020015173ffffffffffffffffffffffffffffffffffffffff160362000e1a57600194505b808062000e279062002b11565b91505062000db6565b50600115158415151462000e70576040517f4f26812e00000000000000000000000000000000000000000000000000000000815260040160405180910390fd5b6000600260008473ffffffffffffffffffffffffffffffffffffffff1673ffffffffffffffffffffffffffffffffffffffff16815260200190815260200160002060003373ffffffffffffffffffffffffffffffffffffffff1673ffffffffffffffffffffffffffffffffffffffff16815260200190815260200160002090508573ffffffffffffffffffffffffffffffffffffffff168160020160009054906101000a900473ffffffffffffffffffffffffffffffffffffffff1673ffffffffffffffffffffffffffffffffffffffff161462000f7a576040517fc263b74400000000000000000000000000000000000000000000000000000000815260040160405180910390fd5b8060060154841062000fa45760018160050160006101000a81548160ff0219169083151502179055505b600115158160050160009054906101000a900460ff1615151462000ff4576040517f170ba9d200000000000000000000000000000000000000000000000000000000815260040160405180910390fd5b60008160050160006101000a81548160ff02191690831515021790555060006002811115620010285762001027620026eb565b5b8160050160019054906101000a900460ff1660028111156200104f576200104e620026eb565b5b0362001078576201518081600601546200106a919062002b5e565b816006018190555062001142565b600160028111156200108f576200108e620026eb565b5b8160050160019054906101000a900460ff166002811115620010b657620010b5620026eb565b5b03620010df5762093a808160060154620010d1919062002b5e565b816006018190555062001141565b600280811115620010f557620010f4620026eb565b5b8160050160019054906101000a900460ff1660028111156200111c576200111b620026eb565b5b0362001140576224ea00816006015462001137919062002b5e565b81600601819055505b5b5b8573ffffffffffffffffffffffffffffffffffffffff1663a9059cbb3383600401546040518363ffffffff1660e01b81526004016200118392919062002fdc565b6020604051808303816000875af1158015620011a3573d6000803e3d6000fd5b505050506040513d601f19601f82011682018060405250810190620011c991906200303a565b503373ffffffffffffffffffffffffffffffffffffffff168373ffffffffffffffffffffffffffffffffffffffff167f9a68c88a4f4b9aad13731b234f789ffa1a94ea30a1b6ee3efad0d2913ac3155c838962001225620012b2565b6040516200123693929190620032e7565b60405180910390a3505050505050565b600080600360003373ffffffffffffffffffffffffffffffffffffffff1673ffffffffffffffffffffffffffffffffffffffff16815260200190815260200160002060009054906101000a900473ffffffffffffffffffffffffffffffffffffffff1690508091505090565b600042905090565b600260205281600052604060002060205280600052604060002060009150915050806000018054620012ec9062002a7e565b80601f01602080910402602001604051908101604052809291908181526020018280546200131a9062002a7e565b80156200136b5780601f106200133f576101008083540402835291602001916200136b565b820191906000526020600020905b8154815290600101906020018083116200134d57829003601f168201915b5050505050908060010160009054906101000a900473ffffffffffffffffffffffffffffffffffffffff16908060020160009054906101000a900473ffffffffffffffffffffffffffffffffffffffff16908060030154908060040154908060050160009054906101000a900460ff16908060050160019054906101000a900460ff16908060060154905088565b60006200140562001246565b90506000600260008373ffffffffffffffffffffffffffffffffffffffff1673ffffffffffffffffffffffffffffffffffffffff16815260200190815260200160002060003373ffffffffffffffffffffffffffffffffffffffff1673ffffffffffffffffffffffffffffffffffffffff168152602001908152602001600020905060018160050160016101000a81548160ff02191690836002811115620014b257620014b1620026eb565b5b021790555062093a80620014c5620012b2565b620014d1919062002b5e565b81600601819055506000620014ec82600301546001620014fc565b9050808260040181905550505050565b6000806002811115620015145762001513620026eb565b5b8260028111156200152a5762001529620026eb565b5b0362001576576000600a6064856200154391906200335a565b6200154f919062003392565b846200155c9190620033dd565b90506007816200156d91906200335a565b9150506200162a565b600160028111156200158d576200158c620026eb565b5b826002811115620015a357620015a2620026eb565b5b03620015b25782905062001629565b600280811115620015c857620015c7620026eb565b5b826002811115620015de57620015dd620026eb565b5b0362001628576000600a606485620015f791906200335a565b62001603919062003392565b8462001610919062002b5e565b915081905060048162001624919062003392565b9150505b5b5b92915050565b60006200163c62001246565b90506000600260008373ffffffffffffffffffffffffffffffffffffffff1673ffffffffffffffffffffffffffffffffffffffff16815260200190815260200160002060003373ffffffffffffffffffffffffffffffffffffffff1673ffffffffffffffffffffffffffffffffffffffff168152602001908152602001600020905060028160050160016101000a81548160ff02191690836002811115620016e957620016e8620026eb565b5b02179055506224ea00620016fc620012b2565b62001708919062002b5e565b816006018190555060006200172382600301546002620014fc565b9050808260040181905550505050565b6000806200174062001246565b90506000600160008373ffffffffffffffffffffffffffffffffffffffff1673ffffffffffffffffffffffffffffffffffffffff168152602001908152602001600020805480602002602001604051908101604052809291908181526020016000905b828210156200196b5783829060005260206000209060040201604051806080016040529081600082015481526020016001820160009054906101000a900473ffffffffffffffffffffffffffffffffffffffff1673ffffffffffffffffffffffffffffffffffffffff1673ffffffffffffffffffffffffffffffffffffffff168152602001600282018054620018399062002a7e565b80601f0160208091040260200160405190810160405280929190818152602001828054620018679062002a7e565b8015620018b85780601f106200188c57610100808354040283529160200191620018b8565b820191906000526020600020905b8154815290600101906020018083116200189a57829003601f168201915b50505050508152602001600382018054620018d39062002a7e565b80601f0160208091040260200160405190810160405280929190818152602001828054620019019062002a7e565b8015620019525780601f10620019265761010080835404028352916020019162001952565b820191906000526020600020905b8154815290600101906020018083116200193457829003601f168201915b50505050508152505081526020019060010190620017a3565b50505050905060005b8151811015620019f3578473ffffffffffffffffffffffffffffffffffffffff16828281518110620019ab57620019aa62002ab3565b5b60200260200101516020015173ffffffffffffffffffffffffffffffffffffffff1603620019dd5760019350620019f3565b8080620019ea9062002b11565b91505062001974565b508262001a2c576040517f4f26812e00000000000000000000000000000000000000000000000000000000815260040160405180910390fd5b6000600260008473ffffffffffffffffffffffffffffffffffffffff1673ffffffffffffffffffffffffffffffffffffffff16815260200190815260200160002060003373ffffffffffffffffffffffffffffffffffffffff1673ffffffffffffffffffffffffffffffffffffffff1681526020019081526020016000209050848160020160006101000a81548173ffffffffffffffffffffffffffffffffffffffff021916908373ffffffffffffffffffffffffffffffffffffffff1602179055505050505050565b600080600062001b0562001246565b90506000600260008373ffffffffffffffffffffffffffffffffffffffff1673ffffffffffffffffffffffffffffffffffffffff16815260200190815260200160002060003373ffffffffffffffffffffffffffffffffffffffff1673ffffffffffffffffffffffffffffffffffffffff1681526020019081526020016000206040518061010001604052908160008201805462001ba39062002a7e565b80601f016020809104026020016040519081016040528092919081815260200182805462001bd19062002a7e565b801562001c225780601f1062001bf65761010080835404028352916020019162001c22565b820191906000526020600020905b81548152906001019060200180831162001c0457829003601f168201915b505050505081526020016001820160009054906101000a900473ffffffffffffffffffffffffffffffffffffffff1673ffffffffffffffffffffffffffffffffffffffff1673ffffffffffffffffffffffffffffffffffffffff1681526020016002820160009054906101000a900473ffffffffffffffffffffffffffffffffffffffff1673ffffffffffffffffffffffffffffffffffffffff1673ffffffffffffffffffffffffffffffffffffffff16815260200160038201548152602001600482015481526020016005820160009054906101000a900460ff161515151581526020016005820160019054906101000a900460ff16600281111562001d2e5762001d2d620026eb565b5b600281111562001d435762001d42620026eb565b5b8152602001600682015481525050905060008160e00151905060008260c001519050818195509550505050509091565b6000808273ffffffffffffffffffffffffffffffffffffffff166370a08231336040518263ffffffff1660e01b815260040162001db19190620025b3565b602060405180830381865afa15801562001dcf573d6000803e3d6000fd5b505050506040513d601f19601f8201168201806040525081019062001df591906200342f565b905080915050919050565b600062001e0c62001246565b90506000600260008373ffffffffffffffffffffffffffffffffffffffff1673ffffffffffffffffffffffffffffffffffffffff16815260200190815260200160002060003373ffffffffffffffffffffffffffffffffffffffff1673ffffffffffffffffffffffffffffffffffffffff168152602001908152602001600020905060008160050160016101000a81548160ff0219169083600281111562001eb95762001eb8620026eb565b5b02179055506201518062001ecc620012b2565b62001ed8919062002b5e565b8160060181905550600062001ef382600301546000620014fc565b9050808260040181905550505050565b60036020528060005260406000206000915054906101000a900473ffffffffffffffffffffffffffffffffffffffff1681565b600083838360405162001f4990620022bb565b62001f579392919062003461565b604051809103906000f08015801562001f74573d6000803e3d6000fd5b509050600060405180608001604052808681526020018373ffffffffffffffffffffffffffffffffffffffff168152602001858152602001848152509050600160003373ffffffffffffffffffffffffffffffffffffffff1673ffffffffffffffffffffffffffffffffffffffff16815260200190815260200160002060405180608001604052808781526020018473ffffffffffffffffffffffffffffffffffffffff1681526020018681526020018581525090806001815401808255809150506001900390600052602060002090600402016000909190919091506000820151816000015560208201518160010160006101000a81548173ffffffffffffffffffffffffffffffffffffffff021916908373ffffffffffffffffffffffffffffffffffffffff1602179055506040820151816002019081620020b9919062002d6b565b506060820151816003019081620020d1919062002d6b565b5050503373ffffffffffffffffffffffffffffffffffffffff167f8503319bc0664c6e8544b25c2ff39ffb8c04ec72daf3e0619230f33ba87526c583836040516200211e9291906200351e565b60405180910390a25050505050565b600160205281600052604060002081815481106200214a57600080fd5b9060005260206000209060040201600091509150508060000154908060010160009054906101000a900473ffffffffffffffffffffffffffffffffffffffff16908060020180546200219c9062002a7e565b80601f0160208091040260200160405190810160405280929190818152602001828054620021ca9062002a7e565b80156200221b5780601f10620021ef576101008083540402835291602001916200221b565b820191906000526020600020905b815481529060010190602001808311620021fd57829003601f168201915b505050505090806003018054620022329062002a7e565b80601f0160208091040260200160405190810160405280929190818152602001828054620022609062002a7e565b8015620022b15780601f106200228557610100808354040283529160200191620022b1565b820191906000526020600020905b8154815290600101906020018083116200229357829003601f168201915b5050505050905084565b611ba4806200355383390190565b6000604051905090565b600080fd5b600080fd5b600080fd5b600080fd5b6000601f19601f8301169050919050565b7f4e487b7100000000000000000000000000000000000000000000000000000000600052604160045260246000fd5b6200233282620022e7565b810181811067ffffffffffffffff82111715620023545762002353620022f8565b5b80604052505050565b600062002369620022c9565b905062002377828262002327565b919050565b600067ffffffffffffffff8211156200239a5762002399620022f8565b5b620023a582620022e7565b9050602081019050919050565b82818337600083830152505050565b6000620023d8620023d2846200237c565b6200235d565b905082815260208101848484011115620023f757620023f6620022e2565b5b62002404848285620023b2565b509392505050565b600082601f830112620024245762002423620022dd565b5b813562002436848260208601620023c1565b91505092915050565b600073ffffffffffffffffffffffffffffffffffffffff82169050919050565b60006200246c826200243f565b9050919050565b6200247e816200245f565b81146200248a57600080fd5b50565b6000813590506200249e8162002473565b92915050565b6000819050919050565b620024b981620024a4565b8114620024c557600080fd5b50565b600081359050620024d981620024ae565b92915050565b60008060008060808587031215620024fc57620024fb620022d3565b5b600085013567ffffffffffffffff8111156200251d576200251c620022d8565b5b6200252b878288016200240c565b94505060206200253e878288016200248d565b935050604062002551878288016200248d565b92505060606200256487828801620024c8565b91505092959194509250565b600060208284031215620025895762002588620022d3565b5b600062002599848285016200248d565b91505092915050565b620025ad816200245f565b82525050565b6000602082019050620025ca6000830184620025a2565b92915050565b620025db81620024a4565b82525050565b6000602082019050620025f86000830184620025d0565b92915050565b60008060408385031215620026185762002617620022d3565b5b600062002628858286016200248d565b92505060206200263b858286016200248d565b9150509250929050565b600081519050919050565b600082825260208201905092915050565b60005b838110156200268157808201518184015260208101905062002664565b60008484015250505050565b60006200269a8262002645565b620026a6818562002650565b9350620026b881856020860162002661565b620026c381620022e7565b840191505092915050565b60008115159050919050565b620026e581620026ce565b82525050565b7f4e487b7100000000000000000000000000000000000000000000000000000000600052602160045260246000fd5b600381106200272e576200272d620026eb565b5b50565b600081905062002741826200271a565b919050565b6000620027538262002731565b9050919050565b620027658162002746565b82525050565b600061010082019050818103600083015262002788818b6200268d565b905062002799602083018a620025a2565b620027a86040830189620025a2565b620027b76060830188620025d0565b620027c66080830187620025d0565b620027d560a0830186620026da565b620027e460c08301856200275a565b620027f360e0830184620025d0565b9998505050505050505050565b600381106200280e57600080fd5b50565b600081359050620028228162002800565b92915050565b60008060408385031215620028425762002841620022d3565b5b60006200285285828601620024c8565b9250506020620028658582860162002811565b9150509250929050565b6000604082019050620028866000830185620025d0565b6200289560208301846200275a565b9392505050565b6000620028a9826200245f565b9050919050565b620028bb816200289c565b8114620028c757600080fd5b50565b600081359050620028db81620028b0565b92915050565b600060208284031215620028fa57620028f9620022d3565b5b60006200290a84828501620028ca565b91505092915050565b6000806000606084860312156200292f576200292e620022d3565b5b60006200293f86828701620024c8565b935050602084013567ffffffffffffffff811115620029635762002962620022d8565b5b62002971868287016200240c565b925050604084013567ffffffffffffffff811115620029955762002994620022d8565b5b620029a3868287016200240c565b9150509250925092565b60008060408385031215620029c757620029c6620022d3565b5b6000620029d7858286016200248d565b9250506020620029ea85828601620024c8565b9150509250929050565b600060808201905062002a0b6000830187620025d0565b62002a1a6020830186620025a2565b818103604083015262002a2e81856200268d565b9050818103606083015262002a4481846200268d565b905095945050505050565b7f4e487b7100000000000000000000000000000000000000000000000000000000600052602260045260246000fd5b6000600282049050600182168062002a9757607f821691505b60208210810362002aad5762002aac62002a4f565b5b50919050565b7f4e487b7100000000000000000000000000000000000000000000000000000000600052603260045260246000fd5b7f4e487b7100000000000000000000000000000000000000000000000000000000600052601160045260246000fd5b600062002b1e82620024a4565b91507fffffffffffffffffffffffffffffffffffffffffffffffffffffffffffffffff820362002b535762002b5262002ae2565b5b600182019050919050565b600062002b6b82620024a4565b915062002b7883620024a4565b925082820190508082111562002b935762002b9262002ae2565b5b92915050565b60008190508160005260206000209050919050565b60006020601f8301049050919050565b600082821b905092915050565b60006008830262002bfd7fffffffffffffffffffffffffffffffffffffffffffffffffffffffffffffffff8262002bbe565b62002c09868362002bbe565b95508019841693508086168417925050509392505050565b6000819050919050565b600062002c4c62002c4662002c4084620024a4565b62002c21565b620024a4565b9050919050565b6000819050919050565b62002c688362002c2b565b62002c8062002c778262002c53565b84845462002bcb565b825550505050565b600090565b62002c9762002c88565b62002ca481848462002c5d565b505050565b5b8181101562002ccc5762002cc060008262002c8d565b60018101905062002caa565b5050565b601f82111562002d1b5762002ce58162002b99565b62002cf08462002bae565b8101602085101562002d00578190505b62002d1862002d0f8562002bae565b83018262002ca9565b50505b505050565b600082821c905092915050565b600062002d406000198460080262002d20565b1980831691505092915050565b600062002d5b838362002d2d565b9150826002028217905092915050565b62002d768262002645565b67ffffffffffffffff81111562002d925762002d91620022f8565b5b62002d9e825462002a7e565b62002dab82828562002cd0565b600060209050601f83116001811462002de3576000841562002dce578287015190505b62002dda858262002d4d565b86555062002e4a565b601f19841662002df38662002b99565b60005b8281101562002e1d5784890151825560018201915060208501945060208101905062002df6565b8683101562002e3d578489015162002e39601f89168262002d2d565b8355505b6001600288020188555050505b505050505050565b600082825260208201905092915050565b600062002e708262002645565b62002e7c818562002e52565b935062002e8e81856020860162002661565b62002e9981620022e7565b840191505092915050565b62002eaf816200245f565b82525050565b62002ec081620024a4565b82525050565b62002ed181620026ce565b82525050565b62002ee28162002746565b82525050565b600061010083016000830151848203600086015262002f08828262002e63565b915050602083015162002f1f602086018262002ea4565b50604083015162002f34604086018262002ea4565b50606083015162002f49606086018262002eb5565b50608083015162002f5e608086018262002eb5565b5060a083015162002f7360a086018262002ec6565b5060c083015162002f8860c086018262002ed7565b5060e083015162002f9d60e086018262002eb5565b508091505092915050565b600060408201905062002fbf6000830185620025a2565b818103602083015262002fd3818462002ee8565b90509392505050565b600060408201905062002ff36000830185620025a2565b620030026020830184620025d0565b9392505050565b6200301481620026ce565b81146200302057600080fd5b50565b600081519050620030348162003009565b92915050565b600060208284031215620030535762003052620022d3565b5b6000620030638482850162003023565b91505092915050565b600081546200307b8162002a7e565b62003087818662002e52565b94506001821660008114620030a55760018114620030bc57620030f3565b60ff198316865281151560200286019350620030f3565b620030c78562002b99565b60005b83811015620030eb57815481890152600182019150602081019050620030ca565b808801955050505b50505092915050565b60008160001c9050919050565b600073ffffffffffffffffffffffffffffffffffffffff82169050919050565b6000620031406200313a83620030fc565b62003109565b9050919050565b6000819050919050565b6000620031686200316283620030fc565b62003147565b9050919050565b600060ff82169050919050565b6000620031936200318d83620030fc565b6200316f565b9050919050565b60008160081c9050919050565b600060ff82169050919050565b6000620031cb620031c5836200319a565b620031a7565b9050919050565b6000610100830160008084018583036000870152620031f283826200306c565b92505060018401549050620032078162003129565b62003216602087018262002ea4565b5060028401549050620032298162003129565b62003238604087018262002ea4565b50600384015490506200324b8162003151565b6200325a606087018262002eb5565b50600484015490506200326d8162003151565b6200327c608087018262002eb5565b50600584015490506200328f816200317c565b6200329e60a087018262002ec6565b50620032aa81620031b4565b620032b960c087018262002ed7565b5060068401549050620032cc8162003151565b620032db60e087018262002eb5565b50819250505092915050565b60006060820190508181036000830152620033038186620031d2565b9050620033146020830185620025a2565b620033236040830184620025d0565b949350505050565b7f4e487b7100000000000000000000000000000000000000000000000000000000600052601260045260246000fd5b60006200336782620024a4565b91506200337483620024a4565b9250826200338757620033866200332b565b5b828204905092915050565b60006200339f82620024a4565b9150620033ac83620024a4565b9250828202620033bc81620024a4565b91508282048414831517620033d657620033d562002ae2565b5b5092915050565b6000620033ea82620024a4565b9150620033f783620024a4565b925082820390508181111562003412576200341162002ae2565b5b92915050565b6000815190506200342981620024ae565b92915050565b600060208284031215620034485762003447620022d3565b5b6000620034588482850162003418565b91505092915050565b6000606082019050620034786000830186620025d0565b81810360208301526200348c81856200268d565b90508181036040830152620034a281846200268d565b9050949350505050565b6000608083016000830151620034c6600086018262002eb5565b506020830151620034db602086018262002ea4565b5060408301518482036040860152620034f5828262002e63565b9150506060830151848203606086015262003511828262002e63565b9150508091505092915050565b6000604082019050620035356000830185620025a2565b8181036020830152620035498184620034ac565b9050939250505056fe60806040523480156200001157600080fd5b5060405162001ba438038062001ba48339818101604052810190620000379190620003bf565b818181600390816200004a91906200069a565b5080600490816200005c91906200069a565b5050506200007133846200007a60201b60201c565b5050506200089c565b600073ffffffffffffffffffffffffffffffffffffffff168273ffffffffffffffffffffffffffffffffffffffff1603620000ec576040517f08c379a0000000000000000000000000000000000000000000000000000000008152600401620000e390620007e2565b60405180910390fd5b6200010060008383620001e760201b60201c565b806002600082825462000114919062000833565b92505081905550806000808473ffffffffffffffffffffffffffffffffffffffff1673ffffffffffffffffffffffffffffffffffffffff168152602001908152602001600020600082825401925050819055508173ffffffffffffffffffffffffffffffffffffffff16600073ffffffffffffffffffffffffffffffffffffffff167fddf252ad1be2c89b69c2b068fc378daa952ba7f163c4a11628f55a4df523b3ef83604051620001c791906200087f565b60405180910390a3620001e360008383620001ec60201b60201c565b5050565b505050565b505050565b6000604051905090565b600080fd5b600080fd5b6000819050919050565b6200021a8162000205565b81146200022657600080fd5b50565b6000815190506200023a816200020f565b92915050565b600080fd5b600080fd5b6000601f19601f8301169050919050565b7f4e487b7100000000000000000000000000000000000000000000000000000000600052604160045260246000fd5b62000295826200024a565b810181811067ffffffffffffffff82111715620002b757620002b66200025b565b5b80604052505050565b6000620002cc620001f1565b9050620002da82826200028a565b919050565b600067ffffffffffffffff821115620002fd57620002fc6200025b565b5b62000308826200024a565b9050602081019050919050565b60005b838110156200033557808201518184015260208101905062000318565b60008484015250505050565b6000620003586200035284620002df565b620002c0565b90508281526020810184848401111562000377576200037662000245565b5b6200038484828562000315565b509392505050565b600082601f830112620003a457620003a362000240565b5b8151620003b684826020860162000341565b91505092915050565b600080600060608486031215620003db57620003da620001fb565b5b6000620003eb8682870162000229565b935050602084015167ffffffffffffffff8111156200040f576200040e62000200565b5b6200041d868287016200038c565b925050604084015167ffffffffffffffff81111562000441576200044062000200565b5b6200044f868287016200038c565b9150509250925092565b600081519050919050565b7f4e487b7100000000000000000000000000000000000000000000000000000000600052602260045260246000fd5b60006002820490506001821680620004ac57607f821691505b602082108103620004c257620004c162000464565b5b50919050565b60008190508160005260206000209050919050565b60006020601f8301049050919050565b600082821b905092915050565b6000600883026200052c7fffffffffffffffffffffffffffffffffffffffffffffffffffffffffffffffff82620004ed565b620005388683620004ed565b95508019841693508086168417925050509392505050565b6000819050919050565b60006200057b620005756200056f8462000205565b62000550565b62000205565b9050919050565b6000819050919050565b62000597836200055a565b620005af620005a68262000582565b848454620004fa565b825550505050565b600090565b620005c6620005b7565b620005d38184846200058c565b505050565b5b81811015620005fb57620005ef600082620005bc565b600181019050620005d9565b5050565b601f8211156200064a576200061481620004c8565b6200061f84620004dd565b810160208510156200062f578190505b620006476200063e85620004dd565b830182620005d8565b50505b505050565b600082821c905092915050565b60006200066f600019846008026200064f565b1980831691505092915050565b60006200068a83836200065c565b9150826002028217905092915050565b620006a58262000459565b67ffffffffffffffff811115620006c157620006c06200025b565b5b620006cd825462000493565b620006da828285620005ff565b600060209050601f831160018114620007125760008415620006fd578287015190505b6200070985826200067c565b86555062000779565b601f1984166200072286620004c8565b60005b828110156200074c5784890151825560018201915060208501945060208101905062000725565b868310156200076c578489015162000768601f8916826200065c565b8355505b6001600288020188555050505b505050505050565b600082825260208201905092915050565b7f45524332303a206d696e7420746f20746865207a65726f206164647265737300600082015250565b6000620007ca601f8362000781565b9150620007d78262000792565b602082019050919050565b60006020820190508181036000830152620007fd81620007bb565b9050919050565b7f4e487b7100000000000000000000000000000000000000000000000000000000600052601160045260246000fd5b6000620008408262000205565b91506200084d8362000205565b925082820190508082111562000868576200086762000804565b5b92915050565b620008798162000205565b82525050565b60006020820190506200089660008301846200086e565b92915050565b6112f880620008ac6000396000f3fe608060405234801561001057600080fd5b50600436106100b45760003560e01c80633950935111610071578063395093511461019157806370a08231146101c157806395d89b41146101f1578063a457c2d71461020f578063a9059cbb1461023f578063dd62ed3e1461026f576100b4565b806306fdde03146100b9578063095ea7b3146100d757806318160ddd14610107578063230b9da31461012557806323b872dd14610143578063313ce56714610173575b600080fd5b6100c161029f565b6040516100ce9190610b5b565b60405180910390f35b6100f160048036038101906100ec9190610c16565b610331565b6040516100fe9190610c71565b60405180910390f35b61010f610354565b60405161011c9190610c9b565b60405180910390f35b61012d61035e565b60405161013a9190610d15565b60405180910390f35b61015d60048036038101906101589190610d30565b610384565b60405161016a9190610c71565b60405180910390f35b61017b6103b3565b6040516101889190610d9f565b60405180910390f35b6101ab60048036038101906101a69190610c16565b6103bc565b6040516101b89190610c71565b60405180910390f35b6101db60048036038101906101d69190610dba565b6103f3565b6040516101e89190610c9b565b60405180910390f35b6101f961043b565b6040516102069190610b5b565b60405180910390f35b61022960048036038101906102249190610c16565b6104cd565b6040516102369190610c71565b60405180910390f35b61025960048036038101906102549190610c16565b610544565b6040516102669190610c71565b60405180910390f35b61028960048036038101906102849190610de7565b610567565b6040516102969190610c9b565b60405180910390f35b6060600380546102ae90610e56565b80601f01602080910402602001604051908101604052809291908181526020018280546102da90610e56565b80156103275780601f106102fc57610100808354040283529160200191610327565b820191906000526020600020905b81548152906001019060200180831161030a57829003601f168201915b5050505050905090565b60008061033c6105ee565b90506103498185856105f6565b600191505092915050565b6000600254905090565b600560009054906101000a900473ffffffffffffffffffffffffffffffffffffffff1681565b60008061038f6105ee565b905061039c8582856107bf565b6103a785858561084b565b60019150509392505050565b60006012905090565b6000806103c76105ee565b90506103e88185856103d98589610567565b6103e39190610eb6565b6105f6565b600191505092915050565b60008060008373ffffffffffffffffffffffffffffffffffffffff1673ffffffffffffffffffffffffffffffffffffffff168152602001908152602001600020549050919050565b60606004805461044a90610e56565b80601f016020809104026020016040519081016040528092919081815260200182805461047690610e56565b80156104c35780601f10610498576101008083540402835291602001916104c3565b820191906000526020600020905b8154815290600101906020018083116104a657829003601f168201915b5050505050905090565b6000806104d86105ee565b905060006104e68286610567565b90508381101561052b576040517f08c379a000000000000000000000000000000000000000000000000000000000815260040161052290610f5c565b60405180910390fd5b61053882868684036105f6565b60019250505092915050565b60008061054f6105ee565b905061055c81858561084b565b600191505092915050565b6000600160008473ffffffffffffffffffffffffffffffffffffffff1673ffffffffffffffffffffffffffffffffffffffff16815260200190815260200160002060008373ffffffffffffffffffffffffffffffffffffffff1673ffffffffffffffffffffffffffffffffffffffff16815260200190815260200160002054905092915050565b600033905090565b600073ffffffffffffffffffffffffffffffffffffffff168373ffffffffffffffffffffffffffffffffffffffff1603610665576040517f08c379a000000000000000000000000000000000000000000000000000000000815260040161065c90610fee565b60405180910390fd5b600073ffffffffffffffffffffffffffffffffffffffff168273ffffffffffffffffffffffffffffffffffffffff16036106d4576040517f08c379a00000000000000000000000000000000000000000000000000000000081526004016106cb90611080565b60405180910390fd5b80600160008573ffffffffffffffffffffffffffffffffffffffff1673ffffffffffffffffffffffffffffffffffffffff16815260200190815260200160002060008473ffffffffffffffffffffffffffffffffffffffff1673ffffffffffffffffffffffffffffffffffffffff168152602001908152602001600020819055508173ffffffffffffffffffffffffffffffffffffffff168373ffffffffffffffffffffffffffffffffffffffff167f8c5be1e5ebec7d5bd14f71427d1e84f3dd0314c0f7b2291e5b200ac8c7c3b925836040516107b29190610c9b565b60405180910390a3505050565b60006107cb8484610567565b90507fffffffffffffffffffffffffffffffffffffffffffffffffffffffffffffffff81146108455781811015610837576040517f08c379a000000000000000000000000000000000000000000000000000000000815260040161082e906110ec565b60405180910390fd5b61084484848484036105f6565b5b50505050565b600073ffffffffffffffffffffffffffffffffffffffff168373ffffffffffffffffffffffffffffffffffffffff16036108ba576040517f08c379a00000000000000000000000000000000000000000000000000000000081526004016108b19061117e565b60405180910390fd5b600073ffffffffffffffffffffffffffffffffffffffff168273ffffffffffffffffffffffffffffffffffffffff1603610929576040517f08c379a000000000000000000000000000000000000000000000000000000000815260040161092090611210565b60405180910390fd5b610934838383610ac1565b60008060008573ffffffffffffffffffffffffffffffffffffffff1673ffffffffffffffffffffffffffffffffffffffff168152602001908152602001600020549050818110156109ba576040517f08c379a00000000000000000000000000000000000000000000000000000000081526004016109b1906112a2565b60405180910390fd5b8181036000808673ffffffffffffffffffffffffffffffffffffffff1673ffffffffffffffffffffffffffffffffffffffff16815260200190815260200160002081905550816000808573ffffffffffffffffffffffffffffffffffffffff1673ffffffffffffffffffffffffffffffffffffffff168152602001908152602001600020600082825401925050819055508273ffffffffffffffffffffffffffffffffffffffff168473ffffffffffffffffffffffffffffffffffffffff167fddf252ad1be2c89b69c2b068fc378daa952ba7f163c4a11628f55a4df523b3ef84604051610aa89190610c9b565b60405180910390a3610abb848484610ac6565b50505050565b505050565b505050565b600081519050919050565b600082825260208201905092915050565b60005b83811015610b05578082015181840152602081019050610aea565b60008484015250505050565b6000601f19601f8301169050919050565b6000610b2d82610acb565b610b378185610ad6565b9350610b47818560208601610ae7565b610b5081610b11565b840191505092915050565b60006020820190508181036000830152610b758184610b22565b905092915050565b600080fd5b600073ffffffffffffffffffffffffffffffffffffffff82169050919050565b6000610bad82610b82565b9050919050565b610bbd81610ba2565b8114610bc857600080fd5b50565b600081359050610bda81610bb4565b92915050565b6000819050919050565b610bf381610be0565b8114610bfe57600080fd5b50565b600081359050610c1081610bea565b92915050565b60008060408385031215610c2d57610c2c610b7d565b5b6000610c3b85828601610bcb565b9250506020610c4c85828601610c01565b9150509250929050565b60008115159050919050565b610c6b81610c56565b82525050565b6000602082019050610c866000830184610c62565b92915050565b610c9581610be0565b82525050565b6000602082019050610cb06000830184610c8c565b92915050565b6000819050919050565b6000610cdb610cd6610cd184610b82565b610cb6565b610b82565b9050919050565b6000610ced82610cc0565b9050919050565b6000610cff82610ce2565b9050919050565b610d0f81610cf4565b82525050565b6000602082019050610d2a6000830184610d06565b92915050565b600080600060608486031215610d4957610d48610b7d565b5b6000610d5786828701610bcb565b9350506020610d6886828701610bcb565b9250506040610d7986828701610c01565b9150509250925092565b600060ff82169050919050565b610d9981610d83565b82525050565b6000602082019050610db46000830184610d90565b92915050565b600060208284031215610dd057610dcf610b7d565b5b6000610dde84828501610bcb565b91505092915050565b60008060408385031215610dfe57610dfd610b7d565b5b6000610e0c85828601610bcb565b9250506020610e1d85828601610bcb565b9150509250929050565b7f4e487b7100000000000000000000000000000000000000000000000000000000600052602260045260246000fd5b60006002820490506001821680610e6e57607f821691505b602082108103610e8157610e80610e27565b5b50919050565b7f4e487b7100000000000000000000000000000000000000000000000000000000600052601160045260246000fd5b6000610ec182610be0565b9150610ecc83610be0565b9250828201905080821115610ee457610ee3610e87565b5b92915050565b7f45524332303a2064656372656173656420616c6c6f77616e63652062656c6f7760008201527f207a65726f000000000000000000000000000000000000000000000000000000602082015250565b6000610f46602583610ad6565b9150610f5182610eea565b604082019050919050565b60006020820190508181036000830152610f7581610f39565b9050919050565b7f45524332303a20617070726f76652066726f6d20746865207a65726f2061646460008201527f7265737300000000000000000000000000000000000000000000000000000000602082015250565b6000610fd8602483610ad6565b9150610fe382610f7c565b604082019050919050565b6000602082019050818103600083015261100781610fcb565b9050919050565b7f45524332303a20617070726f766520746f20746865207a65726f20616464726560008201527f7373000000000000000000000000000000000000000000000000000000000000602082015250565b600061106a602283610ad6565b91506110758261100e565b604082019050919050565b600060208201905081810360008301526110998161105d565b9050919050565b7f45524332303a20696e73756666696369656e7420616c6c6f77616e6365000000600082015250565b60006110d6601d83610ad6565b91506110e1826110a0565b602082019050919050565b60006020820190508181036000830152611105816110c9565b9050919050565b7f45524332303a207472616e736665722066726f6d20746865207a65726f20616460008201527f6472657373000000000000000000000000000000000000000000000000000000602082015250565b6000611168602583610ad6565b91506111738261110c565b604082019050919050565b600060208201905081810360008301526111978161115b565b9050919050565b7f45524332303a207472616e7366657220746f20746865207a65726f206164647260008201527f6573730000000000000000000000000000000000000000000000000000000000602082015250565b60006111fa602383610ad6565b91506112058261119e565b604082019050919050565b60006020820190508181036000830152611229816111ed565b9050919050565b7f45524332303a207472616e7366657220616d6f756e742065786365656473206260008201527f616c616e63650000000000000000000000000000000000000000000000000000602082015250565b600061128c602683610ad6565b915061129782611230565b604082019050919050565b600060208201905081810360008301526112bb8161127f565b905091905056fea2646970667358221220e0d51b8d36bd0b911fe4ef9f5930db41b368f1e58c20bf2f477c3b2288e5a99764736f6c63430008110033a2646970667358221220719303fcdb85439beda249827389216c2f207a0f4cdc846198498e51e8205bce64736f6c63430008110033",
  "devdoc": {
    "author": "Bram Mathijssen.",
    "kind": "dev",
    "methods": {
      "addChild(string,address,address,uint256)": {
        "details": "Child is added to parentToChildMapping and the parent is added to the childToParentMapping as bidirectional relationship.",
        "params": {
          "_baseAmount": "Base amount of allowance (claimableAmount will be determined based on this).",
          "_childAddress": "Child's address.",
          "_name": "Name of the child.",
          "_tokenPreference": "Address of the child's prefered token."
        }
      },
      "calculateClaimableAmount(uint256,uint8)": {
        "details": "Calculates the child's claimable amount based on their baseAmount: daily = -10%, weekly = base, monthly = +10%.",
        "params": {
          "_baseAmount": "The child's baseAmount allowance.",
          "_claimPeriod": "The child's claimPeriod: daily,weekly,monhtly."
        },
        "returns": {
          "claimableAmount_": "The child's claimable allowance."
        }
      },
      "claim(address)": {
        "details": "If the child's claim moment has ben reached it's able to claim, the next claim moment will be set based on the child's claimPeriod.",
        "params": {
          "_tokenToBeClaimed": "Address of the token which will be claimed (should be the child's prefered token)."
        }
      },
      "createNewToken(uint256,string,string)": {
        "details": "Mints new tokens with the TokenCreator contract and stores them in current contract, maps the token to the msg.sender.",
        "params": {
          "_contractName": "Name of the minted token.",
          "_contractSymbol": "Symbol of the minted token.",
          "_supply": "Total supply of the minted token."
        }
      },
      "getChildsNextClaimPeriod()": {
        "returns": {
          "_0": "nextClaimPeriod the child's next available claim time.",
          "_1": "claimPeriod The child's selected claimPeriod (daily, weekly, monthly)."
        }
      },
      "setChildTokenPreference(address)": {
        "params": {
          "_tokenAddress": "The address of the token which the child would like to receive for allowance."
        }
      }
    },
    "stateVariables": {
      "childToParentMapping": {
        "details": "Used as a bidirectional datastructure together with parentToChildMapping."
      }
    },
    "title": "Crypto Piggybank.",
    "version": 1
  },
  "userdoc": {
    "kind": "user",
    "methods": {
      "addChild(string,address,address,uint256)": {
        "notice": "Parent function: Function for parent to add a new child."
      },
      "childToParentMapping(address)": {
        "notice": "Mapping of a child address to a parent address."
      },
      "claim(address)": {
        "notice": "Child Function: Function for child to claim their allowance."
      },
      "getChildsNextClaimPeriod()": {
        "notice": "Gets the next claim moment and claim period of the child who called this function."
      },
      "getChildsParent()": {
        "notice": "Child Function: Gets the parent address of the msg.sender."
      },
      "getCurrentTime()": {
        "notice": "Gets the current UNIX time from chain."
      },
      "getERC20Balance(address)": {
        "notice": "Helper function used to get the balance of an ERC20 token."
      },
      "parentToChildMappingNested(address,address)": {
        "notice": "Nested mapping of a parent address mapped to a mapping of a child address to a child struct."
      },
      "parentToTokensMapping(address,uint256)": {
        "notice": "Mapping of parent addresses to the tokens they have minted with the TokenCreator contract."
      },
      "setChildClaimMomentDaily()": {
        "notice": "Child Function: Sets the child's claimPeriod to daily, by calling this function the nextClaimPeriod and claimableAmount will be set according to the claimPeriod."
      },
      "setChildClaimMomentMonthly()": {
        "notice": "Child Function: Sets the child's claimPeriod to Monthly, by calling this function the nextClaimPeriod and claimableAmount will be set according to the claimPeriod."
      },
      "setChildClaimMomentWeekly()": {
        "notice": "Child Function: Sets the child's claimPeriod to weekly, by calling this function the nextClaimPeriod and claimableAmount will be set according to the claimPeriod."
      },
      "setChildTokenPreference(address)": {
        "notice": "Child Function: Sets the child's prefered token for allowance."
      }
    },
    "notice": "A decentralized platform for parents to teach their children about cryptocurrencies.",
    "version": 1
  },
  "storageLayout": {
    "storage": [
      {
        "astId": 1381,
        "contract": "contracts/ParentContract.sol:ParentContract",
        "label": "i_tokenCreator",
        "offset": 0,
        "slot": "0",
        "type": "t_contract(TokenCreator)2263"
      },
      {
        "astId": 1388,
        "contract": "contracts/ParentContract.sol:ParentContract",
        "label": "parentToTokensMapping",
        "offset": 0,
        "slot": "1",
        "type": "t_mapping(t_address,t_array(t_struct(Token)1428_storage)dyn_storage)"
      },
      {
        "astId": 1396,
        "contract": "contracts/ParentContract.sol:ParentContract",
        "label": "parentToChildMappingNested",
        "offset": 0,
        "slot": "2",
        "type": "t_mapping(t_address,t_mapping(t_address,t_struct(Child)1419_storage))"
      },
      {
        "astId": 1401,
        "contract": "contracts/ParentContract.sol:ParentContract",
        "label": "childToParentMapping",
        "offset": 0,
        "slot": "3",
        "type": "t_mapping(t_address,t_address)"
      }
    ],
    "types": {
      "t_address": {
        "encoding": "inplace",
        "label": "address",
        "numberOfBytes": "20"
      },
      "t_array(t_struct(Token)1428_storage)dyn_storage": {
        "base": "t_struct(Token)1428_storage",
        "encoding": "dynamic_array",
        "label": "struct ParentContract.Token[]",
        "numberOfBytes": "32"
      },
      "t_bool": {
        "encoding": "inplace",
        "label": "bool",
        "numberOfBytes": "1"
      },
      "t_contract(TokenCreator)2263": {
        "encoding": "inplace",
        "label": "contract TokenCreator",
        "numberOfBytes": "20"
      },
      "t_enum(ClaimPeriod)1377": {
        "encoding": "inplace",
        "label": "enum ParentContract.ClaimPeriod",
        "numberOfBytes": "1"
      },
      "t_mapping(t_address,t_address)": {
        "encoding": "mapping",
        "key": "t_address",
        "label": "mapping(address => address)",
        "numberOfBytes": "32",
        "value": "t_address"
      },
      "t_mapping(t_address,t_array(t_struct(Token)1428_storage)dyn_storage)": {
        "encoding": "mapping",
        "key": "t_address",
        "label": "mapping(address => struct ParentContract.Token[])",
        "numberOfBytes": "32",
        "value": "t_array(t_struct(Token)1428_storage)dyn_storage"
      },
      "t_mapping(t_address,t_mapping(t_address,t_struct(Child)1419_storage))": {
        "encoding": "mapping",
        "key": "t_address",
        "label": "mapping(address => mapping(address => struct ParentContract.Child))",
        "numberOfBytes": "32",
        "value": "t_mapping(t_address,t_struct(Child)1419_storage)"
      },
      "t_mapping(t_address,t_struct(Child)1419_storage)": {
        "encoding": "mapping",
        "key": "t_address",
        "label": "mapping(address => struct ParentContract.Child)",
        "numberOfBytes": "32",
        "value": "t_struct(Child)1419_storage"
      },
      "t_string_storage": {
        "encoding": "bytes",
        "label": "string",
        "numberOfBytes": "32"
      },
      "t_struct(Child)1419_storage": {
        "encoding": "inplace",
        "label": "struct ParentContract.Child",
        "members": [
          {
            "astId": 1403,
            "contract": "contracts/ParentContract.sol:ParentContract",
            "label": "name",
            "offset": 0,
            "slot": "0",
            "type": "t_string_storage"
          },
          {
            "astId": 1405,
            "contract": "contracts/ParentContract.sol:ParentContract",
            "label": "childAddress",
            "offset": 0,
            "slot": "1",
            "type": "t_address"
          },
          {
            "astId": 1407,
            "contract": "contracts/ParentContract.sol:ParentContract",
            "label": "tokenPreference",
            "offset": 0,
            "slot": "2",
            "type": "t_address"
          },
          {
            "astId": 1409,
            "contract": "contracts/ParentContract.sol:ParentContract",
            "label": "baseAmount",
            "offset": 0,
            "slot": "3",
            "type": "t_uint256"
          },
          {
            "astId": 1411,
            "contract": "contracts/ParentContract.sol:ParentContract",
            "label": "claimableAmount",
            "offset": 0,
            "slot": "4",
            "type": "t_uint256"
          },
          {
            "astId": 1413,
            "contract": "contracts/ParentContract.sol:ParentContract",
            "label": "claimValid",
            "offset": 0,
            "slot": "5",
            "type": "t_bool"
          },
          {
            "astId": 1416,
            "contract": "contracts/ParentContract.sol:ParentContract",
            "label": "claimPeriod",
            "offset": 1,
            "slot": "5",
            "type": "t_enum(ClaimPeriod)1377"
          },
          {
            "astId": 1418,
            "contract": "contracts/ParentContract.sol:ParentContract",
            "label": "nextClaimPeriod",
            "offset": 0,
            "slot": "6",
            "type": "t_uint256"
          }
        ],
        "numberOfBytes": "224"
      },
      "t_struct(Token)1428_storage": {
        "encoding": "inplace",
        "label": "struct ParentContract.Token",
        "members": [
          {
            "astId": 1421,
            "contract": "contracts/ParentContract.sol:ParentContract",
            "label": "supply",
            "offset": 0,
            "slot": "0",
            "type": "t_uint256"
          },
          {
            "astId": 1423,
            "contract": "contracts/ParentContract.sol:ParentContract",
            "label": "tokenAddress",
            "offset": 0,
            "slot": "1",
            "type": "t_address"
          },
          {
            "astId": 1425,
            "contract": "contracts/ParentContract.sol:ParentContract",
            "label": "name",
            "offset": 0,
            "slot": "2",
            "type": "t_string_storage"
          },
          {
            "astId": 1427,
            "contract": "contracts/ParentContract.sol:ParentContract",
            "label": "symbol",
            "offset": 0,
            "slot": "3",
            "type": "t_string_storage"
          }
        ],
        "numberOfBytes": "128"
      },
      "t_uint256": {
        "encoding": "inplace",
        "label": "uint256",
        "numberOfBytes": "32"
      }
    }
  }
}